{
    "abi": [
        {
            "type": "constructor",
            "inputs": [
                {
                    "name": "_eas",
                    "type": "address",
                    "internalType": "contract IEAS"
                },
                {
                    "name": "_schemaRegistry",
                    "type": "address",
                    "internalType": "contract ISchemaRegistry"
                }
            ],
            "stateMutability": "nonpayable"
        },
        {
            "type": "receive",
            "stateMutability": "payable"
        },
        {
            "type": "function",
            "name": "ATTESTATION_SCHEMA",
            "inputs": [],
            "outputs": [
                {
                    "name": "",
                    "type": "bytes32",
                    "internalType": "bytes32"
                }
            ],
            "stateMutability": "view"
        },
        {
            "type": "function",
            "name": "DEMAND_ABI",
            "inputs": [],
            "outputs": [
                {
                    "name": "",
                    "type": "string",
                    "internalType": "string"
                }
            ],
            "stateMutability": "view"
        },
        {
            "type": "function",
            "name": "IS_REVOCABLE",
            "inputs": [],
            "outputs": [
                {
                    "name": "",
                    "type": "bool",
                    "internalType": "bool"
                }
            ],
            "stateMutability": "view"
        },
        {
            "type": "function",
            "name": "SCHEMA_ABI",
            "inputs": [],
            "outputs": [
                {
                    "name": "",
                    "type": "string",
                    "internalType": "string"
                }
            ],
            "stateMutability": "view"
        },
        {
            "type": "function",
            "name": "_checkIdentical",
            "inputs": [
                {
                    "name": "statement",
                    "type": "tuple",
                    "internalType": "struct Attestation",
                    "components": [
                        {
                            "name": "uid",
                            "type": "bytes32",
                            "internalType": "bytes32"
                        },
                        {
                            "name": "schema",
                            "type": "bytes32",
                            "internalType": "bytes32"
                        },
                        {
                            "name": "time",
                            "type": "uint64",
                            "internalType": "uint64"
                        },
                        {
                            "name": "expirationTime",
                            "type": "uint64",
                            "internalType": "uint64"
                        },
                        {
                            "name": "revocationTime",
                            "type": "uint64",
                            "internalType": "uint64"
                        },
                        {
                            "name": "refUID",
                            "type": "bytes32",
                            "internalType": "bytes32"
                        },
                        {
                            "name": "recipient",
                            "type": "address",
                            "internalType": "address"
                        },
                        {
                            "name": "attester",
                            "type": "address",
                            "internalType": "address"
                        },
                        {
                            "name": "revocable",
                            "type": "bool",
                            "internalType": "bool"
                        },
                        {
                            "name": "data",
                            "type": "bytes",
                            "internalType": "bytes"
                        }
                    ]
                },
                {
                    "name": "demand",
                    "type": "bytes",
                    "internalType": "bytes"
                }
            ],
            "outputs": [
                {
                    "name": "",
                    "type": "bool",
                    "internalType": "bool"
                }
            ],
            "stateMutability": "pure"
        },
        {
            "type": "function",
            "name": "attest",
            "inputs": [
                {
                    "name": "attestation",
                    "type": "tuple",
                    "internalType": "struct Attestation",
                    "components": [
                        {
                            "name": "uid",
                            "type": "bytes32",
                            "internalType": "bytes32"
                        },
                        {
                            "name": "schema",
                            "type": "bytes32",
                            "internalType": "bytes32"
                        },
                        {
                            "name": "time",
                            "type": "uint64",
                            "internalType": "uint64"
                        },
                        {
                            "name": "expirationTime",
                            "type": "uint64",
                            "internalType": "uint64"
                        },
                        {
                            "name": "revocationTime",
                            "type": "uint64",
                            "internalType": "uint64"
                        },
                        {
                            "name": "refUID",
                            "type": "bytes32",
                            "internalType": "bytes32"
                        },
                        {
                            "name": "recipient",
                            "type": "address",
                            "internalType": "address"
                        },
                        {
                            "name": "attester",
                            "type": "address",
                            "internalType": "address"
                        },
                        {
                            "name": "revocable",
                            "type": "bool",
                            "internalType": "bool"
                        },
                        {
                            "name": "data",
                            "type": "bytes",
                            "internalType": "bytes"
                        }
                    ]
                }
            ],
            "outputs": [
                {
                    "name": "",
                    "type": "bool",
                    "internalType": "bool"
                }
            ],
            "stateMutability": "payable"
        },
        {
            "type": "function",
            "name": "checkStatement",
            "inputs": [
                {
                    "name": "statement",
                    "type": "tuple",
                    "internalType": "struct Attestation",
                    "components": [
                        {
                            "name": "uid",
                            "type": "bytes32",
                            "internalType": "bytes32"
                        },
                        {
                            "name": "schema",
                            "type": "bytes32",
                            "internalType": "bytes32"
                        },
                        {
                            "name": "time",
                            "type": "uint64",
                            "internalType": "uint64"
                        },
                        {
                            "name": "expirationTime",
                            "type": "uint64",
                            "internalType": "uint64"
                        },
                        {
                            "name": "revocationTime",
                            "type": "uint64",
                            "internalType": "uint64"
                        },
                        {
                            "name": "refUID",
                            "type": "bytes32",
                            "internalType": "bytes32"
                        },
                        {
                            "name": "recipient",
                            "type": "address",
                            "internalType": "address"
                        },
                        {
                            "name": "attester",
                            "type": "address",
                            "internalType": "address"
                        },
                        {
                            "name": "revocable",
                            "type": "bool",
                            "internalType": "bool"
                        },
                        {
                            "name": "data",
                            "type": "bytes",
                            "internalType": "bytes"
                        }
                    ]
                },
                {
                    "name": "demand",
                    "type": "bytes",
                    "internalType": "bytes"
                },
                {
                    "name": "counteroffer",
                    "type": "bytes32",
                    "internalType": "bytes32"
                }
            ],
            "outputs": [
                {
                    "name": "",
                    "type": "bool",
                    "internalType": "bool"
                }
            ],
            "stateMutability": "view"
        },
        {
            "type": "function",
            "name": "eas",
            "inputs": [],
            "outputs": [
                {
                    "name": "",
                    "type": "address",
                    "internalType": "contract IEAS"
                }
            ],
            "stateMutability": "view"
        },
        {
            "type": "function",
            "name": "getDemandAbi",
            "inputs": [],
            "outputs": [
                {
                    "name": "",
                    "type": "string",
                    "internalType": "string"
                }
            ],
            "stateMutability": "pure"
        },
        {
            "type": "function",
            "name": "getSchemaAbi",
            "inputs": [],
            "outputs": [
                {
                    "name": "",
                    "type": "string",
                    "internalType": "string"
                }
            ],
            "stateMutability": "pure"
        },
        {
            "type": "function",
            "name": "isPayable",
            "inputs": [],
            "outputs": [
                {
                    "name": "",
                    "type": "bool",
                    "internalType": "bool"
                }
            ],
            "stateMutability": "pure"
        },
        {
            "type": "function",
            "name": "makeStatement",
            "inputs": [
                {
                    "name": "data",
                    "type": "tuple",
                    "internalType": "struct DockerResultStatement.StatementData",
                    "components": [
                        {
                            "name": "resultCID",
                            "type": "string",
                            "internalType": "string"
                        }
                    ]
                },
                {
                    "name": "refUID",
                    "type": "bytes32",
                    "internalType": "bytes32"
                }
            ],
            "outputs": [
                {
                    "name": "",
                    "type": "bytes32",
                    "internalType": "bytes32"
                }
            ],
            "stateMutability": "nonpayable"
        },
        {
            "type": "function",
            "name": "multiAttest",
            "inputs": [
                {
                    "name": "attestations",
                    "type": "tuple[]",
                    "internalType": "struct Attestation[]",
                    "components": [
                        {
                            "name": "uid",
                            "type": "bytes32",
                            "internalType": "bytes32"
                        },
                        {
                            "name": "schema",
                            "type": "bytes32",
                            "internalType": "bytes32"
                        },
                        {
                            "name": "time",
                            "type": "uint64",
                            "internalType": "uint64"
                        },
                        {
                            "name": "expirationTime",
                            "type": "uint64",
                            "internalType": "uint64"
                        },
                        {
                            "name": "revocationTime",
                            "type": "uint64",
                            "internalType": "uint64"
                        },
                        {
                            "name": "refUID",
                            "type": "bytes32",
                            "internalType": "bytes32"
                        },
                        {
                            "name": "recipient",
                            "type": "address",
                            "internalType": "address"
                        },
                        {
                            "name": "attester",
                            "type": "address",
                            "internalType": "address"
                        },
                        {
                            "name": "revocable",
                            "type": "bool",
                            "internalType": "bool"
                        },
                        {
                            "name": "data",
                            "type": "bytes",
                            "internalType": "bytes"
                        }
                    ]
                },
                {
                    "name": "values",
                    "type": "uint256[]",
                    "internalType": "uint256[]"
                }
            ],
            "outputs": [
                {
                    "name": "",
                    "type": "bool",
                    "internalType": "bool"
                }
            ],
            "stateMutability": "payable"
        },
        {
            "type": "function",
            "name": "multiRevoke",
            "inputs": [
                {
                    "name": "attestations",
                    "type": "tuple[]",
                    "internalType": "struct Attestation[]",
                    "components": [
                        {
                            "name": "uid",
                            "type": "bytes32",
                            "internalType": "bytes32"
                        },
                        {
                            "name": "schema",
                            "type": "bytes32",
                            "internalType": "bytes32"
                        },
                        {
                            "name": "time",
                            "type": "uint64",
                            "internalType": "uint64"
                        },
                        {
                            "name": "expirationTime",
                            "type": "uint64",
                            "internalType": "uint64"
                        },
                        {
                            "name": "revocationTime",
                            "type": "uint64",
                            "internalType": "uint64"
                        },
                        {
                            "name": "refUID",
                            "type": "bytes32",
                            "internalType": "bytes32"
                        },
                        {
                            "name": "recipient",
                            "type": "address",
                            "internalType": "address"
                        },
                        {
                            "name": "attester",
                            "type": "address",
                            "internalType": "address"
                        },
                        {
                            "name": "revocable",
                            "type": "bool",
                            "internalType": "bool"
                        },
                        {
                            "name": "data",
                            "type": "bytes",
                            "internalType": "bytes"
                        }
                    ]
                },
                {
                    "name": "values",
                    "type": "uint256[]",
                    "internalType": "uint256[]"
                }
            ],
            "outputs": [
                {
                    "name": "",
                    "type": "bool",
                    "internalType": "bool"
                }
            ],
            "stateMutability": "payable"
        },
        {
            "type": "function",
            "name": "revoke",
            "inputs": [
                {
                    "name": "attestation",
                    "type": "tuple",
                    "internalType": "struct Attestation",
                    "components": [
                        {
                            "name": "uid",
                            "type": "bytes32",
                            "internalType": "bytes32"
                        },
                        {
                            "name": "schema",
                            "type": "bytes32",
                            "internalType": "bytes32"
                        },
                        {
                            "name": "time",
                            "type": "uint64",
                            "internalType": "uint64"
                        },
                        {
                            "name": "expirationTime",
                            "type": "uint64",
                            "internalType": "uint64"
                        },
                        {
                            "name": "revocationTime",
                            "type": "uint64",
                            "internalType": "uint64"
                        },
                        {
                            "name": "refUID",
                            "type": "bytes32",
                            "internalType": "bytes32"
                        },
                        {
                            "name": "recipient",
                            "type": "address",
                            "internalType": "address"
                        },
                        {
                            "name": "attester",
                            "type": "address",
                            "internalType": "address"
                        },
                        {
                            "name": "revocable",
                            "type": "bool",
                            "internalType": "bool"
                        },
                        {
                            "name": "data",
                            "type": "bytes",
                            "internalType": "bytes"
                        }
                    ]
                }
            ],
            "outputs": [
                {
                    "name": "",
                    "type": "bool",
                    "internalType": "bool"
                }
            ],
            "stateMutability": "payable"
        },
        {
            "type": "function",
            "name": "schemaRegistry",
            "inputs": [],
            "outputs": [
                {
                    "name": "",
                    "type": "address",
                    "internalType": "contract ISchemaRegistry"
                }
            ],
            "stateMutability": "view"
        },
        {
            "type": "function",
            "name": "version",
            "inputs": [],
            "outputs": [
                {
                    "name": "",
                    "type": "string",
                    "internalType": "string"
                }
            ],
            "stateMutability": "view"
        },
        {
            "type": "error",
            "name": "AccessDenied",
            "inputs": []
        },
        {
            "type": "error",
            "name": "DeadlineExpired",
            "inputs": []
        },
        {
            "type": "error",
            "name": "InsufficientValue",
            "inputs": []
        },
        {
            "type": "error",
            "name": "InvalidDemand",
            "inputs": []
        },
        {
            "type": "error",
            "name": "InvalidEAS",
            "inputs": []
        },
        {
            "type": "error",
            "name": "InvalidLength",
            "inputs": []
        },
        {
            "type": "error",
            "name": "InvalidResultAttestation",
            "inputs": []
        },
        {
            "type": "error",
            "name": "NotPayable",
            "inputs": []
        }
    ],
    "bytecode": {
        "object": "0x61016060405234801561001157600080fd5b5060405161142338038061142383398101604081905261003091610141565b60408051808201909152601081526f1cdd1c9a5b99c81c995cdd5b1d10d25160821b6020820152600160a052600360c052600060e081905283918391836001600160a01b038116610094576040516341bc07ff60e11b815260040160405180910390fd5b6001600160a01b0390811661010052848116610140528316610120819052604051630c1af44f60e31b81526360d7a278906100d79085903090869060040161017b565b6020604051808303816000875af11580156100f6573d6000803e3d6000fd5b505050506040513d601f19601f8201168201806040525081019061011a91906101e1565b608052506101fa945050505050565b6001600160a01b038116811461013e57600080fd5b50565b6000806040838503121561015457600080fd5b825161015f81610129565b602084015190925061017081610129565b809150509250929050565b606081526000845180606084015260005b818110156101a9576020818801810151608086840101520161018c565b50600060808285018101919091526001600160a01b03959095166020840152921515604083015250601f909101601f19160101919050565b6000602082840312156101f357600080fd5b5051919050565b60805160a05160c05160e0516101005161012051610140516111ba610269600039600081816102f9015261046f0152600061020301526000610938015260006105eb015260006105c201526000610599015260008181610292015281816104a901526107f001526111ba6000f3fe6080604052600436106101025760003560e01c80637a9f479e11610095578063ce46e04611610064578063ce46e04614610341578063e49617e114610355578063e60c350514610368578063f0bebf031461037b578063fdc5b3f4146103b357600080fd5b80637a9f479e146102b45780638150864d146102e757806388e5b2d91461031b57806391db0b7e1461032e57600080fd5b80634441bbd9116100d15780634441bbd9146101f1578063455577cc1461023d57806354fd4d501461026b5780635bf2f20d1461028057600080fd5b80631272ff8b1461012557806313da12b31461015a5780632083d47f1461016f578063344bd2d9146101b857600080fd5b3661012057604051631574f9f360e01b815260040160405180910390fd5b600080fd5b34801561013157600080fd5b50610145610140366004610c70565b6103ee565b60405190151581526020015b60405180910390f35b34801561016657600080fd5b50610145600081565b34801561017b57600080fd5b506101ab6040518060400160405280601081526020016f1cdd1c9a5b99c81c995cdd5b1d10d25160821b81525081565b6040516101519190610d31565b3480156101c457600080fd5b5060408051808201909152601081526f1cdd1c9a5b99c81c995cdd5b1d10d25160821b60208201526101ab565b3480156101fd57600080fd5b506102257f000000000000000000000000000000000000000000000000000000000000000081565b6040516001600160a01b039091168152602001610151565b34801561024957600080fd5b5061025d610258366004610d44565b61046b565b604051908152602001610151565b34801561027757600080fd5b506101ab610592565b34801561028c57600080fd5b5061025d7f000000000000000000000000000000000000000000000000000000000000000081565b3480156102c057600080fd5b506101456102cf366004610d8d565b80516020918201206101209092015180519101201490565b3480156102f357600080fd5b506102257f000000000000000000000000000000000000000000000000000000000000000081565b610145610329366004610e3f565b610635565b61014561033c366004610e3f565b610704565b34801561034d57600080fd5b506000610145565b610145610363366004610eae565b6107c3565b610145610376366004610eae565b6107d8565b34801561038757600080fd5b5060408051808201909152600f81526e1cdd1c9a5b99c81c5d595c9e50d251608a1b60208201526101ab565b3480156103bf57600080fd5b506101ab6040518060400160405280600f81526020016e1cdd1c9a5b99c81c5d595c9e50d251608a1b81525081565b60006103f9846107ec565b61040557506000610464565b60a08401511580159061041c5750818460a0015114155b1561042957506000610464565b60008461012001518060200190518101906104449190610f8c565b905060008480602001905181019061045c9190610f8c565b506001925050505b9392505050565b60007f00000000000000000000000000000000000000000000000000000000000000006001600160a01b031663f17325e760405180604001604052807f000000000000000000000000000000000000000000000000000000000000000081526020016040518060c00160405280336001600160a01b0316815260200160006001600160401b03168152602001600015158152602001878152602001886040516020016105179190610fc0565b604051602081830303815290604052815260200160008152508152506040518263ffffffff1660e01b815260040161054f9190611038565b6020604051808303816000875af115801561056e573d6000803e3d6000fd5b505050506040513d601f19601f8201168201806040525081019061046491906110ba565b60606105bd7f000000000000000000000000000000000000000000000000000000000000000061089b565b6105e67f000000000000000000000000000000000000000000000000000000000000000061089b565b61060f7f000000000000000000000000000000000000000000000000000000000000000061089b565b604051602001610621939291906110d3565b604051602081830303815290604052905090565b600061063f61092d565b838281146106605760405163251f56a160e21b815260040160405180910390fd5b3460005b828110156106f457600086868381811061068057610680611132565b905060200201359050828111156106aa5760405163044044a560e21b815260040160405180910390fd5b6106d78989848181106106bf576106bf611132565b90506020028101906106d19190611148565b50600190565b6106e85760009450505050506106fc565b90910390600101610664565b506001925050505b949350505050565b600061070e61092d565b8382811461072f5760405163251f56a160e21b815260040160405180910390fd5b3460005b828110156106f457600086868381811061074f5761074f611132565b905060200201359050828111156107795760405163044044a560e21b815260040160405180910390fd5b6107a689898481811061078e5761078e611132565b90506020028101906107a09190611148565b82610978565b6107b75760009450505050506106fc565b90910390600101610733565b60006107cd61092d565b60015b90505b919050565b60006107e261092d565b6107d08234610978565b60007f000000000000000000000000000000000000000000000000000000000000000082602001511461082157506000919050565b60608201516001600160401b03161580159061084957504282606001516001600160401b0316105b1561086757604051631ab7da6b60e01b815260040160405180910390fd5b60808201516001600160401b031615610893576040516341bc07ff60e11b815260040160405180910390fd5b506001919050565b606060006108a88361099d565b60010190506000816001600160401b038111156108c7576108c7610a76565b6040519080825280601f01601f1916602001820160405280156108f1576020820181803683370190505b5090508181016020015b600019016f181899199a1a9b1b9c1cb0b131b232b360811b600a86061a8153600a85049450846108fb57509392505050565b336001600160a01b037f0000000000000000000000000000000000000000000000000000000000000000161461097657604051634ca8886760e01b815260040160405180910390fd5b565b60003061098c610100850160e08601611169565b6001600160a01b0316149392505050565b60008072184f03e93ff9f4daa797ed6e38ed64bf6a1f0160401b83106109dc5772184f03e93ff9f4daa797ed6e38ed64bf6a1f0160401b830492506040015b6d04ee2d6d415b85acef81000000008310610a08576d04ee2d6d415b85acef8100000000830492506020015b662386f26fc100008310610a2657662386f26fc10000830492506010015b6305f5e1008310610a3e576305f5e100830492506008015b6127108310610a5257612710830492506004015b60648310610a64576064830492506002015b600a8310610a70576001015b92915050565b634e487b7160e01b600052604160045260246000fd5b60405161014081016001600160401b0381118282101715610aaf57610aaf610a76565b60405290565b604051601f8201601f191681016001600160401b0381118282101715610add57610add610a76565b604052919050565b80356001600160401b03811681146107d357600080fd5b80356001600160a01b03811681146107d357600080fd5b803580151581146107d357600080fd5b60006001600160401b03821115610b3c57610b3c610a76565b50601f01601f191660200190565b600082601f830112610b5b57600080fd5b8135610b6e610b6982610b23565b610ab5565b818152846020838601011115610b8357600080fd5b816020850160208301376000918101602001919091529392505050565b60006101408284031215610bb357600080fd5b610bbb610a8c565b82358152602080840135908201529050610bd760408301610ae5565b6040820152610be860608301610ae5565b6060820152610bf960808301610ae5565b608082015260a08281013590820152610c1460c08301610afc565b60c0820152610c2560e08301610afc565b60e0820152610c376101008301610b13565b6101008201526101208201356001600160401b03811115610c5757600080fd5b610c6384828501610b4a565b6101208301525092915050565b600080600060608486031215610c8557600080fd5b83356001600160401b03811115610c9b57600080fd5b610ca786828701610ba0565b93505060208401356001600160401b03811115610cc357600080fd5b610ccf86828701610b4a565b93969395505050506040919091013590565b60005b83811015610cfc578181015183820152602001610ce4565b50506000910152565b60008151808452610d1d816020860160208601610ce1565b601f01601f19169290920160200192915050565b6020815260006104646020830184610d05565b60008060408385031215610d5757600080fd5b82356001600160401b03811115610d6d57600080fd5b830160208186031215610d7f57600080fd5b946020939093013593505050565b60008060408385031215610da057600080fd5b82356001600160401b03811115610db657600080fd5b610dc285828601610ba0565b92505060208301356001600160401b03811115610dde57600080fd5b610dea85828601610b4a565b9150509250929050565b60008083601f840112610e0657600080fd5b5081356001600160401b03811115610e1d57600080fd5b6020830191508360208260051b8501011115610e3857600080fd5b9250929050565b60008060008060408587031215610e5557600080fd5b84356001600160401b03811115610e6b57600080fd5b610e7787828801610df4565b90955093505060208501356001600160401b03811115610e9657600080fd5b610ea287828801610df4565b95989497509550505050565b600060208284031215610ec057600080fd5b81356001600160401b03811115610ed657600080fd5b8201610140818503121561046457600080fd5b600060208284031215610efb57600080fd5b604051602081016001600160401b0381118282101715610f1d57610f1d610a76565b806040525080915082516001600160401b03811115610f3b57600080fd5b8301601f81018513610f4c57600080fd5b8051610f5a610b6982610b23565b818152866020838501011115610f6f57600080fd5b610f80826020830160208601610ce1565b90925250909392505050565b600060208284031215610f9e57600080fd5b81516001600160401b03811115610fb457600080fd5b6106fc84828501610ee9565b6020815260008235601e19843603018112610fda57600080fd5b83016020810190356001600160401b03811115610ff657600080fd5b80360382131561100557600080fd5b602080850152806040850152808260608601376000606082860101526060601f19601f8301168501019250505092915050565b60208152815160208201526000602083015160408084015260018060a01b0381511660608401526001600160401b0360208201511660808401526040810151151560a0840152606081015160c0840152608081015160c060e08501526110a2610120850182610d05565b905060a0820151610100850152809250505092915050565b6000602082840312156110cc57600080fd5b5051919050565b600084516110e5818460208901610ce1565b601760f91b9083019081528451611103816001840160208901610ce1565b601760f91b600192909101918201528351611125816002840160208801610ce1565b0160020195945050505050565b634e487b7160e01b600052603260045260246000fd5b6000823561013e1983360301811261115f57600080fd5b9190910192915050565b60006020828403121561117b57600080fd5b61046482610afc56fea2646970667358221220f82b0516578e7e0761a8c1227e7d24e4c5d7d8aa00cb386e3c763009e8a5ce3a64736f6c634300081a0033",
        "linkReferences": {}
    },
    "methodIdentifiers": {
        "ATTESTATION_SCHEMA()": "5bf2f20d",
        "DEMAND_ABI()": "fdc5b3f4",
        "IS_REVOCABLE()": "13da12b3",
        "SCHEMA_ABI()": "2083d47f",
        "_checkIdentical((bytes32,bytes32,uint64,uint64,uint64,bytes32,address,address,bool,bytes),bytes)": "7a9f479e",
        "attest((bytes32,bytes32,uint64,uint64,uint64,bytes32,address,address,bool,bytes))": "e60c3505",
        "checkStatement((bytes32,bytes32,uint64,uint64,uint64,bytes32,address,address,bool,bytes),bytes,bytes32)": "1272ff8b",
        "eas()": "8150864d",
        "getDemandAbi()": "f0bebf03",
        "getSchemaAbi()": "344bd2d9",
        "isPayable()": "ce46e046",
        "makeStatement((string),bytes32)": "455577cc",
        "multiAttest((bytes32,bytes32,uint64,uint64,uint64,bytes32,address,address,bool,bytes)[],uint256[])": "91db0b7e",
        "multiRevoke((bytes32,bytes32,uint64,uint64,uint64,bytes32,address,address,bool,bytes)[],uint256[])": "88e5b2d9",
        "revoke((bytes32,bytes32,uint64,uint64,uint64,bytes32,address,address,bool,bytes))": "e49617e1",
        "schemaRegistry()": "4441bbd9",
        "version()": "54fd4d50"
    },
    "id": 39
}