{
    "abi": [
        {
            "type": "constructor",
            "inputs": [
                {
                    "name": "_eas",
                    "type": "address",
                    "internalType": "contract IEAS"
                },
                {
                    "name": "_schemaRegistry",
                    "type": "address",
                    "internalType": "contract ISchemaRegistry"
                }
            ],
            "stateMutability": "nonpayable"
        },
        {
            "type": "receive",
            "stateMutability": "payable"
        },
        {
            "type": "function",
            "name": "ATTESTATION_SCHEMA",
            "inputs": [],
            "outputs": [
                {
                    "name": "",
                    "type": "bytes32",
                    "internalType": "bytes32"
                }
            ],
            "stateMutability": "view"
        },
        {
            "type": "function",
            "name": "DEMAND_ABI",
            "inputs": [],
            "outputs": [
                {
                    "name": "",
                    "type": "string",
                    "internalType": "string"
                }
            ],
            "stateMutability": "view"
        },
        {
            "type": "function",
            "name": "IS_REVOCABLE",
            "inputs": [],
            "outputs": [
                {
                    "name": "",
                    "type": "bool",
                    "internalType": "bool"
                }
            ],
            "stateMutability": "view"
        },
        {
            "type": "function",
            "name": "SCHEMA_ABI",
            "inputs": [],
            "outputs": [
                {
                    "name": "",
                    "type": "string",
                    "internalType": "string"
                }
            ],
            "stateMutability": "view"
        },
        {
            "type": "function",
            "name": "_checkIdentical",
            "inputs": [
                {
                    "name": "statement",
                    "type": "tuple",
                    "internalType": "struct Attestation",
                    "components": [
                        {
                            "name": "uid",
                            "type": "bytes32",
                            "internalType": "bytes32"
                        },
                        {
                            "name": "schema",
                            "type": "bytes32",
                            "internalType": "bytes32"
                        },
                        {
                            "name": "time",
                            "type": "uint64",
                            "internalType": "uint64"
                        },
                        {
                            "name": "expirationTime",
                            "type": "uint64",
                            "internalType": "uint64"
                        },
                        {
                            "name": "revocationTime",
                            "type": "uint64",
                            "internalType": "uint64"
                        },
                        {
                            "name": "refUID",
                            "type": "bytes32",
                            "internalType": "bytes32"
                        },
                        {
                            "name": "recipient",
                            "type": "address",
                            "internalType": "address"
                        },
                        {
                            "name": "attester",
                            "type": "address",
                            "internalType": "address"
                        },
                        {
                            "name": "revocable",
                            "type": "bool",
                            "internalType": "bool"
                        },
                        {
                            "name": "data",
                            "type": "bytes",
                            "internalType": "bytes"
                        }
                    ]
                },
                {
                    "name": "demand",
                    "type": "bytes",
                    "internalType": "bytes"
                }
            ],
            "outputs": [
                {
                    "name": "",
                    "type": "bool",
                    "internalType": "bool"
                }
            ],
            "stateMutability": "pure"
        },
        {
            "type": "function",
            "name": "attest",
            "inputs": [
                {
                    "name": "attestation",
                    "type": "tuple",
                    "internalType": "struct Attestation",
                    "components": [
                        {
                            "name": "uid",
                            "type": "bytes32",
                            "internalType": "bytes32"
                        },
                        {
                            "name": "schema",
                            "type": "bytes32",
                            "internalType": "bytes32"
                        },
                        {
                            "name": "time",
                            "type": "uint64",
                            "internalType": "uint64"
                        },
                        {
                            "name": "expirationTime",
                            "type": "uint64",
                            "internalType": "uint64"
                        },
                        {
                            "name": "revocationTime",
                            "type": "uint64",
                            "internalType": "uint64"
                        },
                        {
                            "name": "refUID",
                            "type": "bytes32",
                            "internalType": "bytes32"
                        },
                        {
                            "name": "recipient",
                            "type": "address",
                            "internalType": "address"
                        },
                        {
                            "name": "attester",
                            "type": "address",
                            "internalType": "address"
                        },
                        {
                            "name": "revocable",
                            "type": "bool",
                            "internalType": "bool"
                        },
                        {
                            "name": "data",
                            "type": "bytes",
                            "internalType": "bytes"
                        }
                    ]
                }
            ],
            "outputs": [
                {
                    "name": "",
                    "type": "bool",
                    "internalType": "bool"
                }
            ],
            "stateMutability": "payable"
        },
        {
            "type": "function",
            "name": "cancelStatement",
            "inputs": [
                {
                    "name": "uid",
                    "type": "bytes32",
                    "internalType": "bytes32"
                }
            ],
            "outputs": [
                {
                    "name": "",
                    "type": "bool",
                    "internalType": "bool"
                }
            ],
            "stateMutability": "nonpayable"
        },
        {
            "type": "function",
            "name": "checkStatement",
            "inputs": [
                {
                    "name": "statement",
                    "type": "tuple",
                    "internalType": "struct Attestation",
                    "components": [
                        {
                            "name": "uid",
                            "type": "bytes32",
                            "internalType": "bytes32"
                        },
                        {
                            "name": "schema",
                            "type": "bytes32",
                            "internalType": "bytes32"
                        },
                        {
                            "name": "time",
                            "type": "uint64",
                            "internalType": "uint64"
                        },
                        {
                            "name": "expirationTime",
                            "type": "uint64",
                            "internalType": "uint64"
                        },
                        {
                            "name": "revocationTime",
                            "type": "uint64",
                            "internalType": "uint64"
                        },
                        {
                            "name": "refUID",
                            "type": "bytes32",
                            "internalType": "bytes32"
                        },
                        {
                            "name": "recipient",
                            "type": "address",
                            "internalType": "address"
                        },
                        {
                            "name": "attester",
                            "type": "address",
                            "internalType": "address"
                        },
                        {
                            "name": "revocable",
                            "type": "bool",
                            "internalType": "bool"
                        },
                        {
                            "name": "data",
                            "type": "bytes",
                            "internalType": "bytes"
                        }
                    ]
                },
                {
                    "name": "demand",
                    "type": "bytes",
                    "internalType": "bytes"
                },
                {
                    "name": "",
                    "type": "bytes32",
                    "internalType": "bytes32"
                }
            ],
            "outputs": [
                {
                    "name": "",
                    "type": "bool",
                    "internalType": "bool"
                }
            ],
            "stateMutability": "view"
        },
        {
            "type": "function",
            "name": "collectPayment",
            "inputs": [
                {
                    "name": "_payment",
                    "type": "bytes32",
                    "internalType": "bytes32"
                },
                {
                    "name": "_fulfillment",
                    "type": "bytes32",
                    "internalType": "bytes32"
                }
            ],
            "outputs": [
                {
                    "name": "",
                    "type": "bool",
                    "internalType": "bool"
                }
            ],
            "stateMutability": "nonpayable"
        },
        {
            "type": "function",
            "name": "eas",
            "inputs": [],
            "outputs": [
                {
                    "name": "",
                    "type": "address",
                    "internalType": "contract IEAS"
                }
            ],
            "stateMutability": "view"
        },
        {
            "type": "function",
            "name": "getDemandAbi",
            "inputs": [],
            "outputs": [
                {
                    "name": "",
                    "type": "string",
                    "internalType": "string"
                }
            ],
            "stateMutability": "pure"
        },
        {
            "type": "function",
            "name": "getSchemaAbi",
            "inputs": [],
            "outputs": [
                {
                    "name": "",
                    "type": "string",
                    "internalType": "string"
                }
            ],
            "stateMutability": "pure"
        },
        {
            "type": "function",
            "name": "isPayable",
            "inputs": [],
            "outputs": [
                {
                    "name": "",
                    "type": "bool",
                    "internalType": "bool"
                }
            ],
            "stateMutability": "pure"
        },
        {
            "type": "function",
            "name": "makeStatement",
            "inputs": [
                {
                    "name": "data",
                    "type": "tuple",
                    "internalType": "struct ERC20PaymentStatement.StatementData",
                    "components": [
                        {
                            "name": "token",
                            "type": "address",
                            "internalType": "address"
                        },
                        {
                            "name": "amount",
                            "type": "uint256",
                            "internalType": "uint256"
                        },
                        {
                            "name": "arbiter",
                            "type": "address",
                            "internalType": "address"
                        },
                        {
                            "name": "demand",
                            "type": "bytes",
                            "internalType": "bytes"
                        }
                    ]
                },
                {
                    "name": "expirationTime",
                    "type": "uint64",
                    "internalType": "uint64"
                },
                {
                    "name": "refUID",
                    "type": "bytes32",
                    "internalType": "bytes32"
                }
            ],
            "outputs": [
                {
                    "name": "",
                    "type": "bytes32",
                    "internalType": "bytes32"
                }
            ],
            "stateMutability": "nonpayable"
        },
        {
            "type": "function",
            "name": "multiAttest",
            "inputs": [
                {
                    "name": "attestations",
                    "type": "tuple[]",
                    "internalType": "struct Attestation[]",
                    "components": [
                        {
                            "name": "uid",
                            "type": "bytes32",
                            "internalType": "bytes32"
                        },
                        {
                            "name": "schema",
                            "type": "bytes32",
                            "internalType": "bytes32"
                        },
                        {
                            "name": "time",
                            "type": "uint64",
                            "internalType": "uint64"
                        },
                        {
                            "name": "expirationTime",
                            "type": "uint64",
                            "internalType": "uint64"
                        },
                        {
                            "name": "revocationTime",
                            "type": "uint64",
                            "internalType": "uint64"
                        },
                        {
                            "name": "refUID",
                            "type": "bytes32",
                            "internalType": "bytes32"
                        },
                        {
                            "name": "recipient",
                            "type": "address",
                            "internalType": "address"
                        },
                        {
                            "name": "attester",
                            "type": "address",
                            "internalType": "address"
                        },
                        {
                            "name": "revocable",
                            "type": "bool",
                            "internalType": "bool"
                        },
                        {
                            "name": "data",
                            "type": "bytes",
                            "internalType": "bytes"
                        }
                    ]
                },
                {
                    "name": "values",
                    "type": "uint256[]",
                    "internalType": "uint256[]"
                }
            ],
            "outputs": [
                {
                    "name": "",
                    "type": "bool",
                    "internalType": "bool"
                }
            ],
            "stateMutability": "payable"
        },
        {
            "type": "function",
            "name": "multiRevoke",
            "inputs": [
                {
                    "name": "attestations",
                    "type": "tuple[]",
                    "internalType": "struct Attestation[]",
                    "components": [
                        {
                            "name": "uid",
                            "type": "bytes32",
                            "internalType": "bytes32"
                        },
                        {
                            "name": "schema",
                            "type": "bytes32",
                            "internalType": "bytes32"
                        },
                        {
                            "name": "time",
                            "type": "uint64",
                            "internalType": "uint64"
                        },
                        {
                            "name": "expirationTime",
                            "type": "uint64",
                            "internalType": "uint64"
                        },
                        {
                            "name": "revocationTime",
                            "type": "uint64",
                            "internalType": "uint64"
                        },
                        {
                            "name": "refUID",
                            "type": "bytes32",
                            "internalType": "bytes32"
                        },
                        {
                            "name": "recipient",
                            "type": "address",
                            "internalType": "address"
                        },
                        {
                            "name": "attester",
                            "type": "address",
                            "internalType": "address"
                        },
                        {
                            "name": "revocable",
                            "type": "bool",
                            "internalType": "bool"
                        },
                        {
                            "name": "data",
                            "type": "bytes",
                            "internalType": "bytes"
                        }
                    ]
                },
                {
                    "name": "values",
                    "type": "uint256[]",
                    "internalType": "uint256[]"
                }
            ],
            "outputs": [
                {
                    "name": "",
                    "type": "bool",
                    "internalType": "bool"
                }
            ],
            "stateMutability": "payable"
        },
        {
            "type": "function",
            "name": "revoke",
            "inputs": [
                {
                    "name": "attestation",
                    "type": "tuple",
                    "internalType": "struct Attestation",
                    "components": [
                        {
                            "name": "uid",
                            "type": "bytes32",
                            "internalType": "bytes32"
                        },
                        {
                            "name": "schema",
                            "type": "bytes32",
                            "internalType": "bytes32"
                        },
                        {
                            "name": "time",
                            "type": "uint64",
                            "internalType": "uint64"
                        },
                        {
                            "name": "expirationTime",
                            "type": "uint64",
                            "internalType": "uint64"
                        },
                        {
                            "name": "revocationTime",
                            "type": "uint64",
                            "internalType": "uint64"
                        },
                        {
                            "name": "refUID",
                            "type": "bytes32",
                            "internalType": "bytes32"
                        },
                        {
                            "name": "recipient",
                            "type": "address",
                            "internalType": "address"
                        },
                        {
                            "name": "attester",
                            "type": "address",
                            "internalType": "address"
                        },
                        {
                            "name": "revocable",
                            "type": "bool",
                            "internalType": "bool"
                        },
                        {
                            "name": "data",
                            "type": "bytes",
                            "internalType": "bytes"
                        }
                    ]
                }
            ],
            "outputs": [
                {
                    "name": "",
                    "type": "bool",
                    "internalType": "bool"
                }
            ],
            "stateMutability": "payable"
        },
        {
            "type": "function",
            "name": "schemaRegistry",
            "inputs": [],
            "outputs": [
                {
                    "name": "",
                    "type": "address",
                    "internalType": "contract ISchemaRegistry"
                }
            ],
            "stateMutability": "view"
        },
        {
            "type": "function",
            "name": "version",
            "inputs": [],
            "outputs": [
                {
                    "name": "",
                    "type": "string",
                    "internalType": "string"
                }
            ],
            "stateMutability": "view"
        },
        {
            "type": "error",
            "name": "AccessDenied",
            "inputs": []
        },
        {
            "type": "error",
            "name": "DeadlineExpired",
            "inputs": []
        },
        {
            "type": "error",
            "name": "InsufficientValue",
            "inputs": []
        },
        {
            "type": "error",
            "name": "InvalidEAS",
            "inputs": []
        },
        {
            "type": "error",
            "name": "InvalidFulfillment",
            "inputs": []
        },
        {
            "type": "error",
            "name": "InvalidLength",
            "inputs": []
        },
        {
            "type": "error",
            "name": "InvalidPayment",
            "inputs": []
        },
        {
            "type": "error",
            "name": "InvalidPaymentAttestation",
            "inputs": []
        },
        {
            "type": "error",
            "name": "NotPayable",
            "inputs": []
        },
        {
            "type": "error",
            "name": "UnauthorizedCall",
            "inputs": []
        }
    ],
    "bytecode": {
        "object": "0x61016060405234801561001157600080fd5b50604051611e25380380611e2583398101604081905261003091610131565b81816040518060600160405280603c8152602001611de9603c9139600160a0819052600360c052600060e052836001600160a01b038116610084576040516341bc07ff60e11b815260040160405180910390fd5b6001600160a01b0390811661010052848116610140528316610120819052604051630c1af44f60e31b81526360d7a278906100c79085903090869060040161016b565b6020604051808303816000875af11580156100e6573d6000803e3d6000fd5b505050506040513d601f19601f8201168201806040525081019061010a91906101d1565b608052506101ea945050505050565b6001600160a01b038116811461012e57600080fd5b50565b6000806040838503121561014457600080fd5b825161014f81610119565b602084015190925061016081610119565b809150509250929050565b606081526000845180606084015260005b81811015610199576020818801810151608086840101520161017c565b50600060808285018101919091526001600160a01b03959095166020840152921515604083015250601f909101601f19160101919050565b6000602082840312156101e357600080fd5b5051919050565b60805160a05160c05160e051610100516101205161014051611b5f61028a60003960008181610304015281816103a9015281816104bd015281816106c3015281816107560152818161089f0152610a570152600061020e01526000610f8e01526000610bd201526000610ba901526000610b8001526000818161029d0152818161045b0152818161083d01528181610a910152610dd50152611b5f6000f3fe6080604052600436106101185760003560e01c80635bf2f20d116100a0578063ce46e04611610064578063ce46e0461461034c578063e49617e114610360578063e60c350514610373578063f0bebf03146101e7578063fdc5b3f4146101a557600080fd5b80635bf2f20d1461028b5780637a9f479e146102bf5780638150864d146102f257806388e5b2d91461032657806391db0b7e1461033957600080fd5b806330088bc9116100e757806330088bc9146101c7578063344bd2d9146101e75780634441bbd9146101fc57806348f9fb461461024857806354fd4d501461027657600080fd5b8063039b9bf61461013b5780631272ff8b1461017057806313da12b3146101905780632083d47f146101a557600080fd5b3661013657604051631574f9f360e01b815260040160405180910390fd5b600080fd5b34801561014757600080fd5b5061015b6101563660046110cc565b610386565b60405190151581526020015b60405180910390f35b34801561017c57600080fd5b5061015b61018b36600461131f565b6105bf565b34801561019c57600080fd5b5061015b600181565b3480156101b157600080fd5b506101ba610684565b60405161016791906113e0565b3480156101d357600080fd5b5061015b6101e23660046113f3565b6106a0565b3480156101f357600080fd5b506101ba61098d565b34801561020857600080fd5b506102307f000000000000000000000000000000000000000000000000000000000000000081565b6040516001600160a01b039091168152602001610167565b34801561025457600080fd5b50610268610263366004611415565b6109ad565b604051908152602001610167565b34801561028257600080fd5b506101ba610b79565b34801561029757600080fd5b506102687f000000000000000000000000000000000000000000000000000000000000000081565b3480156102cb57600080fd5b5061015b6102da366004611473565b80516020918201206101209092015180519101201490565b3480156102fe57600080fd5b506102307f000000000000000000000000000000000000000000000000000000000000000081565b61015b610334366004611525565b610c1c565b61015b610347366004611525565b610ce9565b34801561035857600080fd5b50600061015b565b61015b61036e366004611594565b610da8565b61015b610381366004611594565b610dbd565b6040516328c44a9960e21b81526004810182905260009081906001600160a01b037f0000000000000000000000000000000000000000000000000000000000000000169063a3112a6490602401600060405180830381865afa1580156103f0573d6000803e3d6000fd5b505050506040513d6000823e601f3d908101601f191682016040526104189190810190611635565b90508060c001516001600160a01b0316336001600160a01b03161461045057604051637bf6a16f60e01b815260040160405180910390fd5b6040805180820182527f000000000000000000000000000000000000000000000000000000000000000081528151808301835285815260006020808301919091528083019182529251634692626760e01b81529151600483015251805160248301529091015160448201527f00000000000000000000000000000000000000000000000000000000000000006001600160a01b031690634692626790606401600060405180830381600087803b15801561050957600080fd5b505af115801561051d573d6000803e3d6000fd5b50505050600081610120015180602001905181019061053c919061172d565b8051602082015160405163a9059cbb60e01b815233600482015260248101919091529192506001600160a01b03169063a9059cbb906044016020604051808303816000875af1158015610593573d6000803e3d6000fd5b505050506040513d601f19601f820116820180604052508101906105b791906117cc565b949350505050565b60006105ca84610dd1565b6105d65750600061067d565b60008461012001518060200190518101906105f1919061172d565b9050600084806020019051810190610609919061172d565b805183519192506001600160a01b03918216911614801561063257508060200151826020015110155b8015610657575080604001516001600160a01b031682604001516001600160a01b0316145b80156106785750806060015180519060200120826060015180519060200120145b925050505b9392505050565b6040518060600160405280603c8152602001611aee603c913981565b6040516328c44a9960e21b81526004810183905260009081906001600160a01b037f0000000000000000000000000000000000000000000000000000000000000000169063a3112a6490602401600060405180830381865afa15801561070a573d6000803e3d6000fd5b505050506040513d6000823e601f3d908101601f191682016040526107329190810190611635565b6040516328c44a9960e21b8152600481018590529091506000906001600160a01b037f0000000000000000000000000000000000000000000000000000000000000000169063a3112a6490602401600060405180830381865afa15801561079d573d6000803e3d6000fd5b505050506040513d6000823e601f3d908101601f191682016040526107c59190810190611635565b90506107d082610dd1565b6107ed57604051633129ca1960e11b815260040160405180910390fd5b6000826101200151806020019051810190610808919061172d565b9050610815838383610e80565b61083257604051630ebe58ef60e11b815260040160405180910390fd5b6040805180820182527f000000000000000000000000000000000000000000000000000000000000000081528151808301835288815260006020808301919091528083019182529251634692626760e01b81529151600483015251805160248301529091015160448201527f00000000000000000000000000000000000000000000000000000000000000006001600160a01b031690634692626790606401600060405180830381600087803b1580156108eb57600080fd5b505af11580156108ff573d6000803e3d6000fd5b5050825160c0850151602085015160405163a9059cbb60e01b81526001600160a01b03928316600482015260248101919091529116925063a9059cbb91506044016020604051808303816000875af115801561095f573d6000803e3d6000fd5b505050506040513d601f19601f8201168201806040525081019061098391906117cc565b9695505050505050565b60606040518060600160405280603c8152602001611aee603c9139905090565b60006109bc60208501856117e9565b6040516323b872dd60e01b8152336004820152306024820152602086013560448201526001600160a01b0391909116906323b872dd906064016020604051808303816000875af1158015610a14573d6000803e3d6000fd5b505050506040513d601f19601f82011682018060405250810190610a3891906117cc565b610a555760405163078d696560e31b815260040160405180910390fd5b7f00000000000000000000000000000000000000000000000000000000000000006001600160a01b031663f17325e760405180604001604052807f000000000000000000000000000000000000000000000000000000000000000081526020016040518060c00160405280336001600160a01b03168152602001886001600160401b0316815260200160011515815260200187815260200189604051602001610afe919061182f565b604051602081830303815290604052815260200160008152508152506040518263ffffffff1660e01b8152600401610b3691906118d7565b6020604051808303816000875af1158015610b55573d6000803e3d6000fd5b505050506040513d601f19601f820116820180604052508101906105b79190611959565b6060610ba47f0000000000000000000000000000000000000000000000000000000000000000610ef1565b610bcd7f0000000000000000000000000000000000000000000000000000000000000000610ef1565b610bf67f0000000000000000000000000000000000000000000000000000000000000000610ef1565b604051602001610c0893929190611972565b604051602081830303815290604052905090565b6000610c26610f83565b83828114610c475760405163251f56a160e21b815260040160405180910390fd5b3460005b82811015610cdb576000868683818110610c6757610c676119d1565b90506020020135905082811115610c915760405163044044a560e21b815260040160405180910390fd5b610cbe898984818110610ca657610ca66119d1565b9050602002810190610cb891906119e7565b50600190565b610ccf5760009450505050506105b7565b90910390600101610c4b565b506001979650505050505050565b6000610cf3610f83565b83828114610d145760405163251f56a160e21b815260040160405180910390fd5b3460005b82811015610cdb576000868683818110610d3457610d346119d1565b90506020020135905082811115610d5e5760405163044044a560e21b815260040160405180910390fd5b610d8b898984818110610d7357610d736119d1565b9050602002810190610d8591906119e7565b82610fce565b610d9c5760009450505050506105b7565b90910390600101610d18565b6000610db2610f83565b60015b90505b919050565b6000610dc7610f83565b610db58234610fce565b60007f0000000000000000000000000000000000000000000000000000000000000000826020015114610e0657506000919050565b60608201516001600160401b031615801590610e2e57504282606001516001600160401b0316105b15610e4c57604051631ab7da6b60e01b815260040160405180910390fd5b60808201516001600160401b031615610e78576040516341bc07ff60e11b815260040160405180910390fd5b506001919050565b600082600001518460a0015103610e995750600161067d565b604080830151606084015186519251631272ff8b60e01b81526001600160a01b0390921692631272ff8b92610ed49288929091600401611a08565b602060405180830381865afa158015610593573d6000803e3d6000fd5b60606000610efe83610ff3565b60010190506000816001600160401b03811115610f1d57610f1d6110e5565b6040519080825280601f01601f191660200182016040528015610f47576020820181803683370190505b5090508181016020015b600019016f181899199a1a9b1b9c1cb0b131b232b360811b600a86061a8153600a8504945084610f5157509392505050565b336001600160a01b037f00000000000000000000000000000000000000000000000000000000000000001614610fcc57604051634ca8886760e01b815260040160405180910390fd5b565b600030610fe2610100850160e086016117e9565b6001600160a01b0316149392505050565b60008072184f03e93ff9f4daa797ed6e38ed64bf6a1f0160401b83106110325772184f03e93ff9f4daa797ed6e38ed64bf6a1f0160401b830492506040015b6d04ee2d6d415b85acef8100000000831061105e576d04ee2d6d415b85acef8100000000830492506020015b662386f26fc10000831061107c57662386f26fc10000830492506010015b6305f5e1008310611094576305f5e100830492506008015b61271083106110a857612710830492506004015b606483106110ba576064830492506002015b600a83106110c6576001015b92915050565b6000602082840312156110de57600080fd5b5035919050565b634e487b7160e01b600052604160045260246000fd5b60405161014081016001600160401b038111828210171561111e5761111e6110e5565b60405290565b604051608081016001600160401b038111828210171561111e5761111e6110e5565b604051601f8201601f191681016001600160401b038111828210171561116e5761116e6110e5565b604052919050565b6001600160401b038116811461118b57600080fd5b50565b8035610db881611176565b6001600160a01b038116811461118b57600080fd5b8035610db881611199565b801515811461118b57600080fd5b8035610db8816111b9565b60006001600160401b038211156111eb576111eb6110e5565b50601f01601f191660200190565b600082601f83011261120a57600080fd5b813561121d611218826111d2565b611146565b81815284602083860101111561123257600080fd5b816020850160208301376000918101602001919091529392505050565b6000610140828403121561126257600080fd5b61126a6110fb565b823581526020808401359082015290506112866040830161118e565b60408201526112976060830161118e565b60608201526112a86080830161118e565b608082015260a082810135908201526112c360c083016111ae565b60c08201526112d460e083016111ae565b60e08201526112e661010083016111c7565b6101008201526101208201356001600160401b0381111561130657600080fd5b611312848285016111f9565b6101208301525092915050565b60008060006060848603121561133457600080fd5b83356001600160401b0381111561134a57600080fd5b6113568682870161124f565b93505060208401356001600160401b0381111561137257600080fd5b61137e868287016111f9565b93969395505050506040919091013590565b60005b838110156113ab578181015183820152602001611393565b50506000910152565b600081518084526113cc816020860160208601611390565b601f01601f19169290920160200192915050565b60208152600061067d60208301846113b4565b6000806040838503121561140657600080fd5b50508035926020909101359150565b60008060006060848603121561142a57600080fd5b83356001600160401b0381111561144057600080fd5b84016080818703121561145257600080fd5b9250602084013561146281611176565b929592945050506040919091013590565b6000806040838503121561148657600080fd5b82356001600160401b0381111561149c57600080fd5b6114a88582860161124f565b92505060208301356001600160401b038111156114c457600080fd5b6114d0858286016111f9565b9150509250929050565b60008083601f8401126114ec57600080fd5b5081356001600160401b0381111561150357600080fd5b6020830191508360208260051b850101111561151e57600080fd5b9250929050565b6000806000806040858703121561153b57600080fd5b84356001600160401b0381111561155157600080fd5b61155d878288016114da565b90955093505060208501356001600160401b0381111561157c57600080fd5b611588878288016114da565b95989497509550505050565b6000602082840312156115a657600080fd5b81356001600160401b038111156115bc57600080fd5b8201610140818503121561067d57600080fd5b8051610db881611176565b8051610db881611199565b8051610db8816111b9565b600082601f83011261160157600080fd5b815161160f611218826111d2565b81815284602083860101111561162457600080fd5b6105b7826020830160208701611390565b60006020828403121561164757600080fd5b81516001600160401b0381111561165d57600080fd5b8201610140818503121561167057600080fd5b6116786110fb565b8151815260208083015190820152611692604083016115cf565b60408201526116a3606083016115cf565b60608201526116b4608083016115cf565b608082015260a082810151908201526116cf60c083016115da565b60c08201526116e060e083016115da565b60e08201526116f261010083016115e5565b6101008201526101208201516001600160401b0381111561171257600080fd5b61171e868285016115f0565b61012083015250949350505050565b60006020828403121561173f57600080fd5b81516001600160401b0381111561175557600080fd5b82016080818503121561176757600080fd5b61176f611124565b815161177a81611199565b815260208281015190820152604082015161179481611199565b604082015260608201516001600160401b038111156117b257600080fd5b6117be868285016115f0565b606083015250949350505050565b6000602082840312156117de57600080fd5b815161067d816111b9565b6000602082840312156117fb57600080fd5b813561067d81611199565b81835281816020850137506000828201602090810191909152601f909101601f19169091010190565b602081526000823561184081611199565b60018060a01b03811660208401525060208301356040830152604083013561186781611199565b6001600160a01b031660608381019190915283013536849003601e1901811261188f57600080fd5b83016020810190356001600160401b038111156118ab57600080fd5b8036038213156118ba57600080fd5b6080808501526118ce60a085018284611806565b95945050505050565b60208152815160208201526000602083015160408084015260018060a01b0381511660608401526001600160401b0360208201511660808401526040810151151560a0840152606081015160c0840152608081015160c060e08501526119416101208501826113b4565b905060a0820151610100850152809250505092915050565b60006020828403121561196b57600080fd5b5051919050565b60008451611984818460208901611390565b601760f91b90830190815284516119a2816001840160208901611390565b601760f91b6001929091019182015283516119c4816002840160208801611390565b0160020195945050505050565b634e487b7160e01b600052603260045260246000fd5b6000823561013e198336030181126119fe57600080fd5b9190910192915050565b60608152835160608201526020840151608082015260006040850151611a3960a08401826001600160401b03169052565b5060608501516001600160401b03811660c08401525060808501516001600160401b03811660e08401525060a085015161010083015260c08501516001600160a01b0381166101208401525060e08501516001600160a01b0381166101408401525061010085015180151561016084015250610120850151610140610180840152611ac86101a08401826113b4565b90508281036020840152611adc81866113b4565b91505082604083015294935050505056fe6164647265737320746f6b656e2c2075696e7432353620616d6f756e742c206164647265737320617262697465722c2062797465732064656d616e64a26469706673582212204d338074210b024d70f464a85beed3d421d20452bb2870381e8829cb945caeca64736f6c634300081a00336164647265737320746f6b656e2c2075696e7432353620616d6f756e742c206164647265737320617262697465722c2062797465732064656d616e64",
        "linkReferences": {}
    },
    "methodIdentifiers": {
        "ATTESTATION_SCHEMA()": "5bf2f20d",
        "DEMAND_ABI()": "fdc5b3f4",
        "IS_REVOCABLE()": "13da12b3",
        "SCHEMA_ABI()": "2083d47f",
        "_checkIdentical((bytes32,bytes32,uint64,uint64,uint64,bytes32,address,address,bool,bytes),bytes)": "7a9f479e",
        "attest((bytes32,bytes32,uint64,uint64,uint64,bytes32,address,address,bool,bytes))": "e60c3505",
        "cancelStatement(bytes32)": "039b9bf6",
        "checkStatement((bytes32,bytes32,uint64,uint64,uint64,bytes32,address,address,bool,bytes),bytes,bytes32)": "1272ff8b",
        "collectPayment(bytes32,bytes32)": "30088bc9",
        "eas()": "8150864d",
        "getDemandAbi()": "f0bebf03",
        "getSchemaAbi()": "344bd2d9",
        "isPayable()": "ce46e046",
        "makeStatement((address,uint256,address,bytes),uint64,bytes32)": "48f9fb46",
        "multiAttest((bytes32,bytes32,uint64,uint64,uint64,bytes32,address,address,bool,bytes)[],uint256[])": "91db0b7e",
        "multiRevoke((bytes32,bytes32,uint64,uint64,uint64,bytes32,address,address,bool,bytes)[],uint256[])": "88e5b2d9",
        "revoke((bytes32,bytes32,uint64,uint64,uint64,bytes32,address,address,bool,bytes))": "e49617e1",
        "schemaRegistry()": "4441bbd9",
        "version()": "54fd4d50"
    },
    "id": 40
}