{"abi":[{"type":"constructor","inputs":[{"name":"_eas","type":"address","internalType":"contract IEAS"},{"name":"_schemaRegistry","type":"address","internalType":"contract ISchemaRegistry"}],"stateMutability":"nonpayable"},{"type":"receive","stateMutability":"payable"},{"type":"function","name":"ATTESTATION_SCHEMA","inputs":[],"outputs":[{"name":"","type":"bytes32","internalType":"bytes32"}],"stateMutability":"view"},{"type":"function","name":"attest","inputs":[{"name":"attestation","type":"tuple","internalType":"struct Attestation","components":[{"name":"uid","type":"bytes32","internalType":"bytes32"},{"name":"schema","type":"bytes32","internalType":"bytes32"},{"name":"time","type":"uint64","internalType":"uint64"},{"name":"expirationTime","type":"uint64","internalType":"uint64"},{"name":"revocationTime","type":"uint64","internalType":"uint64"},{"name":"refUID","type":"bytes32","internalType":"bytes32"},{"name":"recipient","type":"address","internalType":"address"},{"name":"attester","type":"address","internalType":"address"},{"name":"revocable","type":"bool","internalType":"bool"},{"name":"data","type":"bytes","internalType":"bytes"}]}],"outputs":[{"name":"","type":"bool","internalType":"bool"}],"stateMutability":"payable"},{"type":"function","name":"cancelStatement","inputs":[{"name":"uid","type":"bytes32","internalType":"bytes32"}],"outputs":[{"name":"","type":"bool","internalType":"bool"}],"stateMutability":"nonpayable"},{"type":"function","name":"checkStatement","inputs":[{"name":"statement","type":"tuple","internalType":"struct Attestation","components":[{"name":"uid","type":"bytes32","internalType":"bytes32"},{"name":"schema","type":"bytes32","internalType":"bytes32"},{"name":"time","type":"uint64","internalType":"uint64"},{"name":"expirationTime","type":"uint64","internalType":"uint64"},{"name":"revocationTime","type":"uint64","internalType":"uint64"},{"name":"refUID","type":"bytes32","internalType":"bytes32"},{"name":"recipient","type":"address","internalType":"address"},{"name":"attester","type":"address","internalType":"address"},{"name":"revocable","type":"bool","internalType":"bool"},{"name":"data","type":"bytes","internalType":"bytes"}]},{"name":"demand","type":"bytes","internalType":"bytes"},{"name":"","type":"bytes32","internalType":"bytes32"}],"outputs":[{"name":"","type":"bool","internalType":"bool"}],"stateMutability":"view"},{"type":"function","name":"collectPayment","inputs":[{"name":"_payment","type":"bytes32","internalType":"bytes32"},{"name":"_fulfillment","type":"bytes32","internalType":"bytes32"}],"outputs":[{"name":"","type":"bool","internalType":"bool"}],"stateMutability":"nonpayable"},{"type":"function","name":"getSchema","inputs":[],"outputs":[{"name":"","type":"tuple","internalType":"struct SchemaRecord","components":[{"name":"uid","type":"bytes32","internalType":"bytes32"},{"name":"resolver","type":"address","internalType":"contract ISchemaResolver"},{"name":"revocable","type":"bool","internalType":"bool"},{"name":"schema","type":"string","internalType":"string"}]}],"stateMutability":"view"},{"type":"function","name":"getStatement","inputs":[{"name":"uid","type":"bytes32","internalType":"bytes32"}],"outputs":[{"name":"","type":"tuple","internalType":"struct Attestation","components":[{"name":"uid","type":"bytes32","internalType":"bytes32"},{"name":"schema","type":"bytes32","internalType":"bytes32"},{"name":"time","type":"uint64","internalType":"uint64"},{"name":"expirationTime","type":"uint64","internalType":"uint64"},{"name":"revocationTime","type":"uint64","internalType":"uint64"},{"name":"refUID","type":"bytes32","internalType":"bytes32"},{"name":"recipient","type":"address","internalType":"address"},{"name":"attester","type":"address","internalType":"address"},{"name":"revocable","type":"bool","internalType":"bool"},{"name":"data","type":"bytes","internalType":"bytes"}]}],"stateMutability":"view"},{"type":"function","name":"isPayable","inputs":[],"outputs":[{"name":"","type":"bool","internalType":"bool"}],"stateMutability":"pure"},{"type":"function","name":"makeStatement","inputs":[{"name":"data","type":"tuple","internalType":"struct ERC20PaymentObligation.StatementData","components":[{"name":"token","type":"address","internalType":"address"},{"name":"amount","type":"uint256","internalType":"uint256"},{"name":"arbiter","type":"address","internalType":"address"},{"name":"demand","type":"bytes","internalType":"bytes"}]},{"name":"expirationTime","type":"uint64","internalType":"uint64"},{"name":"refUID","type":"bytes32","internalType":"bytes32"}],"outputs":[{"name":"","type":"bytes32","internalType":"bytes32"}],"stateMutability":"nonpayable"},{"type":"function","name":"multiAttest","inputs":[{"name":"attestations","type":"tuple[]","internalType":"struct Attestation[]","components":[{"name":"uid","type":"bytes32","internalType":"bytes32"},{"name":"schema","type":"bytes32","internalType":"bytes32"},{"name":"time","type":"uint64","internalType":"uint64"},{"name":"expirationTime","type":"uint64","internalType":"uint64"},{"name":"revocationTime","type":"uint64","internalType":"uint64"},{"name":"refUID","type":"bytes32","internalType":"bytes32"},{"name":"recipient","type":"address","internalType":"address"},{"name":"attester","type":"address","internalType":"address"},{"name":"revocable","type":"bool","internalType":"bool"},{"name":"data","type":"bytes","internalType":"bytes"}]},{"name":"values","type":"uint256[]","internalType":"uint256[]"}],"outputs":[{"name":"","type":"bool","internalType":"bool"}],"stateMutability":"payable"},{"type":"function","name":"multiRevoke","inputs":[{"name":"attestations","type":"tuple[]","internalType":"struct Attestation[]","components":[{"name":"uid","type":"bytes32","internalType":"bytes32"},{"name":"schema","type":"bytes32","internalType":"bytes32"},{"name":"time","type":"uint64","internalType":"uint64"},{"name":"expirationTime","type":"uint64","internalType":"uint64"},{"name":"revocationTime","type":"uint64","internalType":"uint64"},{"name":"refUID","type":"bytes32","internalType":"bytes32"},{"name":"recipient","type":"address","internalType":"address"},{"name":"attester","type":"address","internalType":"address"},{"name":"revocable","type":"bool","internalType":"bool"},{"name":"data","type":"bytes","internalType":"bytes"}]},{"name":"values","type":"uint256[]","internalType":"uint256[]"}],"outputs":[{"name":"","type":"bool","internalType":"bool"}],"stateMutability":"payable"},{"type":"function","name":"revoke","inputs":[{"name":"attestation","type":"tuple","internalType":"struct Attestation","components":[{"name":"uid","type":"bytes32","internalType":"bytes32"},{"name":"schema","type":"bytes32","internalType":"bytes32"},{"name":"time","type":"uint64","internalType":"uint64"},{"name":"expirationTime","type":"uint64","internalType":"uint64"},{"name":"revocationTime","type":"uint64","internalType":"uint64"},{"name":"refUID","type":"bytes32","internalType":"bytes32"},{"name":"recipient","type":"address","internalType":"address"},{"name":"attester","type":"address","internalType":"address"},{"name":"revocable","type":"bool","internalType":"bool"},{"name":"data","type":"bytes","internalType":"bytes"}]}],"outputs":[{"name":"","type":"bool","internalType":"bool"}],"stateMutability":"payable"},{"type":"function","name":"version","inputs":[],"outputs":[{"name":"","type":"string","internalType":"string"}],"stateMutability":"view"},{"type":"error","name":"AccessDenied","inputs":[]},{"type":"error","name":"AttestationRevoked","inputs":[]},{"type":"error","name":"DeadlineExpired","inputs":[]},{"type":"error","name":"InsufficientValue","inputs":[]},{"type":"error","name":"InvalidEAS","inputs":[]},{"type":"error","name":"InvalidFulfillment","inputs":[]},{"type":"error","name":"InvalidLength","inputs":[]},{"type":"error","name":"InvalidPayment","inputs":[]},{"type":"error","name":"InvalidPaymentAttestation","inputs":[]},{"type":"error","name":"InvalidSchema","inputs":[]},{"type":"error","name":"NotFromStatement","inputs":[]},{"type":"error","name":"NotPayable","inputs":[]},{"type":"error","name":"UnauthorizedCall","inputs":[]}],"bytecode":{"object":"0x61016060405234801561001157600080fd5b50604051611fac380380611fac83398101604081905261003091610131565b81816040518060600160405280603c8152602001611f70603c913960016080819052600360a052600060c052836001600160a01b038116610084576040516341bc07ff60e11b815260040160405180910390fd5b6001600160a01b0390811660e052848116610120528316610100819052604051630c1af44f60e31b81526360d7a278906100c69085903090869060040161016b565b6020604051808303816000875af11580156100e5573d6000803e3d6000fd5b505050506040513d601f19601f8201168201806040525081019061010991906101d1565b61014052506101ea945050505050565b6001600160a01b038116811461012e57600080fd5b50565b6000806040838503121561014457600080fd5b825161014f81610119565b602084015190925061016081610119565b809150509250929050565b606081526000845180606084015260005b81811015610199576020818801810151608086840101520161017c565b50600060808285018101919091526001600160a01b03959095166020840152921515604083015250601f909101601f19160101919050565b6000602082840312156101e357600080fd5b5051919050565b60805160a05160c05160e051610100516101205161014051611cd8610298600039600081816101c001528181610366015281816104d20152818161074d0152818161098101528181610bee0152610c640152600081816102b4015281816103c8015281816105d301528181610666015281816107af015281816109470152610b7b01526000610c920152600061105301526000610ac201526000610a9901526000610a700152611cd86000f3fe6080604052600436106100c65760003560e01c80635cc02d2f1161007f57806391db0b7e1161005957806391db0b7e14610244578063ce46e04614610257578063e49617e11461026b578063e60c35051461027e57600080fd5b80635cc02d2f146101e25780636b122fe01461020f57806388e5b2d91461023157600080fd5b8063039b9bf6146100e95780631272ff8b1461011e57806330088bc91461013e57806348f9fb461461015e57806354fd4d501461018c5780635bf2f20d146101ae57600080fd5b366100e457604051631574f9f360e01b815260040160405180910390fd5b600080fd5b3480156100f557600080fd5b506101096101043660046111c0565b610291565b60405190151581526020015b60405180910390f35b34801561012a57600080fd5b50610109610139366004611343565b6104ca565b34801561014a57600080fd5b50610109610159366004611470565b6105b0565b34801561016a57600080fd5b5061017e610179366004611492565b61089d565b604051908152602001610115565b34801561019857600080fd5b506101a1610a69565b6040516101159190611540565b3480156101ba57600080fd5b5061017e7f000000000000000000000000000000000000000000000000000000000000000081565b3480156101ee57600080fd5b506102026101fd3660046111c0565b610b0c565b6040516101159190611627565b34801561021b57600080fd5b50610224610c36565b604051610115919061163a565b61010961023f3660046116c8565b610d06565b6101096102523660046116c8565b610dd3565b34801561026357600080fd5b506000610109565b610109610279366004611737565b610e92565b61010961028c366004611737565b610ea7565b6040516328c44a9960e21b81526004810182905260009081906001600160a01b037f0000000000000000000000000000000000000000000000000000000000000000169063a3112a6490602401600060405180830381865afa1580156102fb573d6000803e3d6000fd5b505050506040513d6000823e601f3d908101601f1916820160405261032391908101906117e3565b90508060c001516001600160a01b0316336001600160a01b03161461035b57604051637bf6a16f60e01b815260040160405180910390fd5b6040805180820182527f000000000000000000000000000000000000000000000000000000000000000081528151808301835285815260006020808301919091528083019182529251634692626760e01b81529151600483015251805160248301529091015160448201527f00000000000000000000000000000000000000000000000000000000000000006001600160a01b031690634692626790606401600060405180830381600087803b15801561041457600080fd5b505af1158015610428573d6000803e3d6000fd5b50505050600081610120015180602001905181019061044791906118db565b8051602082015160405163a9059cbb60e01b815233600482015260248101919091529192506001600160a01b03169063a9059cbb906044016020604051808303816000875af115801561049e573d6000803e3d6000fd5b505050506040513d601f19601f820116820180604052508101906104c2919061197a565b949350505050565b60006104f6847f0000000000000000000000000000000000000000000000000000000000000000610ebb565b610502575060006105a9565b600084610120015180602001905181019061051d91906118db565b905060008480602001905181019061053591906118db565b805183519192506001600160a01b03918216911614801561055e57508060200151826020015110155b8015610583575080604001516001600160a01b031682604001516001600160a01b0316145b80156105a45750806060015180519060200120826060015180519060200120145b925050505b9392505050565b6040516328c44a9960e21b81526004810183905260009081906001600160a01b037f0000000000000000000000000000000000000000000000000000000000000000169063a3112a6490602401600060405180830381865afa15801561061a573d6000803e3d6000fd5b505050506040513d6000823e601f3d908101601f1916820160405261064291908101906117e3565b6040516328c44a9960e21b8152600481018590529091506000906001600160a01b037f0000000000000000000000000000000000000000000000000000000000000000169063a3112a6490602401600060405180830381865afa1580156106ad573d6000803e3d6000fd5b505050506040513d6000823e601f3d908101601f191682016040526106d591908101906117e3565b90506106e082610ee6565b6106fd57604051633129ca1960e11b815260040160405180910390fd5b600082610120015180602001905181019061071891906118db565b9050610725838383610f43565b61074257604051630ebe58ef60e11b815260040160405180910390fd5b6040805180820182527f000000000000000000000000000000000000000000000000000000000000000081528151808301835288815260006020808301919091528083019182529251634692626760e01b81529151600483015251805160248301529091015160448201527f00000000000000000000000000000000000000000000000000000000000000006001600160a01b031690634692626790606401600060405180830381600087803b1580156107fb57600080fd5b505af115801561080f573d6000803e3d6000fd5b5050825160c0850151602085015160405163a9059cbb60e01b81526001600160a01b03928316600482015260248101919091529116925063a9059cbb91506044016020604051808303816000875af115801561086f573d6000803e3d6000fd5b505050506040513d601f19601f82011682018060405250810190610893919061197a565b9695505050505050565b60006108ac6020850185611997565b6040516323b872dd60e01b8152336004820152306024820152602086013560448201526001600160a01b0391909116906323b872dd906064016020604051808303816000875af1158015610904573d6000803e3d6000fd5b505050506040513d601f19601f82011682018060405250810190610928919061197a565b6109455760405163078d696560e31b815260040160405180910390fd5b7f00000000000000000000000000000000000000000000000000000000000000006001600160a01b031663f17325e760405180604001604052807f000000000000000000000000000000000000000000000000000000000000000081526020016040518060c00160405280336001600160a01b03168152602001886001600160401b03168152602001600115158152602001878152602001896040516020016109ee91906119dd565b604051602081830303815290604052815260200160008152508152506040518263ffffffff1660e01b8152600401610a269190611a85565b6020604051808303816000875af1158015610a45573d6000803e3d6000fd5b505050506040513d601f19601f820116820180604052508101906104c29190611b07565b6060610a947f0000000000000000000000000000000000000000000000000000000000000000610fb6565b610abd7f0000000000000000000000000000000000000000000000000000000000000000610fb6565b610ae67f0000000000000000000000000000000000000000000000000000000000000000610fb6565b604051602001610af893929190611b20565b604051602081830303815290604052905090565b604080516101408101825260008082526020820181905281830181905260608083018290526080830182905260a0830182905260c0830182905260e08301829052610100830182905261012083015291516328c44a9960e21b8152600481018490529091906001600160a01b037f0000000000000000000000000000000000000000000000000000000000000000169063a3112a6490602401600060405180830381865afa158015610bc2573d6000803e3d6000fd5b505050506040513d6000823e601f3d908101601f19168201604052610bea91908101906117e3565b90507f0000000000000000000000000000000000000000000000000000000000000000816020015114610c305760405163295d5f3960e01b815260040160405180910390fd5b92915050565b604080516080810182526000808252602082018190528183015260608082015290516351753e3760e11b81527f000000000000000000000000000000000000000000000000000000000000000060048201526001600160a01b037f0000000000000000000000000000000000000000000000000000000000000000169063a2ea7c6e90602401600060405180830381865afa158015610cd9573d6000803e3d6000fd5b505050506040513d6000823e601f3d908101601f19168201604052610d019190810190611b7f565b905090565b6000610d10611048565b83828114610d315760405163251f56a160e21b815260040160405180910390fd5b3460005b82811015610dc5576000868683818110610d5157610d51611c35565b90506020020135905082811115610d7b5760405163044044a560e21b815260040160405180910390fd5b610da8898984818110610d9057610d90611c35565b9050602002810190610da29190611c4b565b50600190565b610db95760009450505050506104c2565b90910390600101610d35565b506001979650505050505050565b6000610ddd611048565b83828114610dfe5760405163251f56a160e21b815260040160405180910390fd5b3460005b82811015610dc5576000868683818110610e1e57610e1e611c35565b90506020020135905082811115610e485760405163044044a560e21b815260040160405180910390fd5b610e75898984818110610e5d57610e5d611c35565b9050602002810190610e6f9190611c4b565b82611093565b610e865760009450505050506104c2565b90910390600101610e02565b6000610e9c611048565b60015b90505b919050565b6000610eb1611048565b610e9f8234611093565b600081836020015114610ee157604051635f9bd90760e11b815260040160405180910390fd5b6105a9835b6000610ef1826110b8565b15610f0f57604051631ab7da6b60e01b815260040160405180910390fd5b60808201516001600160401b031615610f3b57604051637b6227e960e11b815260040160405180910390fd5b506001919050565b60a083015160009015610f5e5750815160a0840151146105a9565b604080830151606084015186519251631272ff8b60e01b81526001600160a01b0390921692631272ff8b92610f999288929091600401611c6c565b602060405180830381865afa15801561049e573d6000803e3d6000fd5b60606000610fc3836110e8565b60010190506000816001600160401b03811115610fe257610fe26111d9565b6040519080825280601f01601f19166020018201604052801561100c576020820181803683370190505b5090508181016020015b600019016f181899199a1a9b1b9c1cb0b131b232b360811b600a86061a8153600a850494508461101657509392505050565b336001600160a01b037f0000000000000000000000000000000000000000000000000000000000000000161461109157604051634ca8886760e01b815260040160405180910390fd5b565b6000306110a7610100850160e08601611997565b6001600160a01b0316149392505050565b600081606001516001600160401b0316600014158015610e9f57505060600151426001600160401b039091161090565b60008072184f03e93ff9f4daa797ed6e38ed64bf6a1f0160401b83106111275772184f03e93ff9f4daa797ed6e38ed64bf6a1f0160401b830492506040015b6d04ee2d6d415b85acef81000000008310611153576d04ee2d6d415b85acef8100000000830492506020015b662386f26fc10000831061117157662386f26fc10000830492506010015b6305f5e1008310611189576305f5e100830492506008015b612710831061119d57612710830492506004015b606483106111af576064830492506002015b600a8310610c305760010192915050565b6000602082840312156111d257600080fd5b5035919050565b634e487b7160e01b600052604160045260246000fd5b60405161014081016001600160401b0381118282101715611212576112126111d9565b60405290565b604051608081016001600160401b0381118282101715611212576112126111d9565b604051601f8201601f191681016001600160401b0381118282101715611262576112626111d9565b604052919050565b6001600160401b038116811461127f57600080fd5b50565b8035610ea28161126a565b6001600160a01b038116811461127f57600080fd5b8035610ea28161128d565b801515811461127f57600080fd5b8035610ea2816112ad565b60006001600160401b038211156112df576112df6111d9565b50601f01601f191660200190565b600082601f8301126112fe57600080fd5b813561131161130c826112c6565b61123a565b81815284602083860101111561132657600080fd5b816020850160208301376000918101602001919091529392505050565b60008060006060848603121561135857600080fd5b83356001600160401b0381111561136e57600080fd5b8401610140818703121561138157600080fd5b6113896111ef565b81358152602080830135908201526113a360408301611282565b60408201526113b460608301611282565b60608201526113c560808301611282565b608082015260a082810135908201526113e060c083016112a2565b60c08201526113f160e083016112a2565b60e082015261140361010083016112bb565b6101008201526101208201356001600160401b0381111561142357600080fd5b61142f888285016112ed565b6101208301525093505060208401356001600160401b0381111561145257600080fd5b61145e868287016112ed565b93969395505050506040919091013590565b6000806040838503121561148357600080fd5b50508035926020909101359150565b6000806000606084860312156114a757600080fd5b83356001600160401b038111156114bd57600080fd5b8401608081870312156114cf57600080fd5b925060208401356114df8161126a565b929592945050506040919091013590565b60005b8381101561150b5781810151838201526020016114f3565b50506000910152565b6000815180845261152c8160208601602086016114f0565b601f01601f19169290920160200192915050565b6020815260006105a96020830184611514565b80518252602081015160208301526000604082015161157d60408501826001600160401b03169052565b50606082015161159860608501826001600160401b03169052565b5060808201516115b360808501826001600160401b03169052565b5060a082015160a084015260c08201516115d860c08501826001600160a01b03169052565b5060e08201516115f360e08501826001600160a01b03169052565b5061010082015161160961010085018215159052565b506101208201516101406101208501526104c2610140850182611514565b6020815260006105a96020830184611553565b602081528151602082015260018060a01b036020830151166040820152604082015115156060820152600060608301516080808401526104c260a0840182611514565b60008083601f84011261168f57600080fd5b5081356001600160401b038111156116a657600080fd5b6020830191508360208260051b85010111156116c157600080fd5b9250929050565b600080600080604085870312156116de57600080fd5b84356001600160401b038111156116f457600080fd5b6117008782880161167d565b90955093505060208501356001600160401b0381111561171f57600080fd5b61172b8782880161167d565b95989497509550505050565b60006020828403121561174957600080fd5b81356001600160401b0381111561175f57600080fd5b820161014081850312156105a957600080fd5b8051610ea28161126a565b8051610ea28161128d565b8051610ea2816112ad565b60006117a161130c846112c6565b90508281528383830111156117b557600080fd5b6105a98360208301846114f0565b600082601f8301126117d457600080fd5b6105a983835160208501611793565b6000602082840312156117f557600080fd5b81516001600160401b0381111561180b57600080fd5b8201610140818503121561181e57600080fd5b6118266111ef565b815181526020808301519082015261184060408301611772565b604082015261185160608301611772565b606082015261186260808301611772565b608082015260a0828101519082015261187d60c0830161177d565b60c082015261188e60e0830161177d565b60e08201526118a06101008301611788565b6101008201526101208201516001600160401b038111156118c057600080fd5b6118cc868285016117c3565b61012083015250949350505050565b6000602082840312156118ed57600080fd5b81516001600160401b0381111561190357600080fd5b82016080818503121561191557600080fd5b61191d611218565b81516119288161128d565b81526020828101519082015260408201516119428161128d565b604082015260608201516001600160401b0381111561196057600080fd5b61196c868285016117c3565b606083015250949350505050565b60006020828403121561198c57600080fd5b81516105a9816112ad565b6000602082840312156119a957600080fd5b81356105a98161128d565b81835281816020850137506000828201602090810191909152601f909101601f19169091010190565b60208152600082356119ee8161128d565b60018060a01b038116602084015250602083013560408301526040830135611a158161128d565b6001600160a01b031660608381019190915283013536849003601e19018112611a3d57600080fd5b83016020810190356001600160401b03811115611a5957600080fd5b803603821315611a6857600080fd5b608080850152611a7c60a0850182846119b4565b95945050505050565b60208152815160208201526000602083015160408084015260018060a01b0381511660608401526001600160401b0360208201511660808401526040810151151560a0840152606081015160c0840152608081015160c060e0850152611aef610120850182611514565b905060a0820151610100850152809250505092915050565b600060208284031215611b1957600080fd5b5051919050565b60008451611b328184602089016114f0565b601760f91b9083019081528451611b508160018401602089016114f0565b601760f91b600192909101918201528351611b728160028401602088016114f0565b0160020195945050505050565b600060208284031215611b9157600080fd5b81516001600160401b03811115611ba757600080fd5b820160808185031215611bb957600080fd5b611bc1611218565b815181526020820151611bd38161128d565b60208201526040820151611be6816112ad565b604082015260608201516001600160401b03811115611c0457600080fd5b80830192505084601f830112611c1957600080fd5b611c2885835160208501611793565b6060820152949350505050565b634e487b7160e01b600052603260045260246000fd5b6000823561013e19833603018112611c6257600080fd5b9190910192915050565b606081526000611c7f6060830186611553565b8281036020840152611c918186611514565b91505082604083015294935050505056fea26469706673582212201fb29e6777f5225055db2d0c964a7b1d6308f94cc98593e475ff9740422c490964736f6c634300081a00336164647265737320746f6b656e2c2075696e7432353620616d6f756e742c206164647265737320617262697465722c2062797465732064656d616e64","linkReferences":{}},"methodIdentifiers":{"ATTESTATION_SCHEMA()":"5bf2f20d","attest((bytes32,bytes32,uint64,uint64,uint64,bytes32,address,address,bool,bytes))":"e60c3505","cancelStatement(bytes32)":"039b9bf6","checkStatement((bytes32,bytes32,uint64,uint64,uint64,bytes32,address,address,bool,bytes),bytes,bytes32)":"1272ff8b","collectPayment(bytes32,bytes32)":"30088bc9","getSchema()":"6b122fe0","getStatement(bytes32)":"5cc02d2f","isPayable()":"ce46e046","makeStatement((address,uint256,address,bytes),uint64,bytes32)":"48f9fb46","multiAttest((bytes32,bytes32,uint64,uint64,uint64,bytes32,address,address,bool,bytes)[],uint256[])":"91db0b7e","multiRevoke((bytes32,bytes32,uint64,uint64,uint64,bytes32,address,address,bool,bytes)[],uint256[])":"88e5b2d9","revoke((bytes32,bytes32,uint64,uint64,uint64,bytes32,address,address,bool,bytes))":"e49617e1","version()":"54fd4d50"},"id":15}