{
    "abi": [
        {
            "type": "constructor",
            "inputs": [
                {
                    "name": "_eas",
                    "type": "address",
                    "internalType": "contract IEAS"
                },
                {
                    "name": "_schemaRegistry",
                    "type": "address",
                    "internalType": "contract ISchemaRegistry"
                }
            ],
            "stateMutability": "nonpayable"
        },
        {
            "type": "receive",
            "stateMutability": "payable"
        },
        {
            "type": "function",
            "name": "ATTESTATION_SCHEMA",
            "inputs": [],
            "outputs": [
                {
                    "name": "",
                    "type": "bytes32",
                    "internalType": "bytes32"
                }
            ],
            "stateMutability": "view"
        },
        {
            "type": "function",
            "name": "attest",
            "inputs": [
                {
                    "name": "attestation",
                    "type": "tuple",
                    "internalType": "struct Attestation",
                    "components": [
                        {
                            "name": "uid",
                            "type": "bytes32",
                            "internalType": "bytes32"
                        },
                        {
                            "name": "schema",
                            "type": "bytes32",
                            "internalType": "bytes32"
                        },
                        {
                            "name": "time",
                            "type": "uint64",
                            "internalType": "uint64"
                        },
                        {
                            "name": "expirationTime",
                            "type": "uint64",
                            "internalType": "uint64"
                        },
                        {
                            "name": "revocationTime",
                            "type": "uint64",
                            "internalType": "uint64"
                        },
                        {
                            "name": "refUID",
                            "type": "bytes32",
                            "internalType": "bytes32"
                        },
                        {
                            "name": "recipient",
                            "type": "address",
                            "internalType": "address"
                        },
                        {
                            "name": "attester",
                            "type": "address",
                            "internalType": "address"
                        },
                        {
                            "name": "revocable",
                            "type": "bool",
                            "internalType": "bool"
                        },
                        {
                            "name": "data",
                            "type": "bytes",
                            "internalType": "bytes"
                        }
                    ]
                }
            ],
            "outputs": [
                {
                    "name": "",
                    "type": "bool",
                    "internalType": "bool"
                }
            ],
            "stateMutability": "payable"
        },
        {
            "type": "function",
            "name": "cancelStatement",
            "inputs": [
                {
                    "name": "uid",
                    "type": "bytes32",
                    "internalType": "bytes32"
                }
            ],
            "outputs": [
                {
                    "name": "",
                    "type": "bool",
                    "internalType": "bool"
                }
            ],
            "stateMutability": "nonpayable"
        },
        {
            "type": "function",
            "name": "checkStatement",
            "inputs": [
                {
                    "name": "statement",
                    "type": "tuple",
                    "internalType": "struct Attestation",
                    "components": [
                        {
                            "name": "uid",
                            "type": "bytes32",
                            "internalType": "bytes32"
                        },
                        {
                            "name": "schema",
                            "type": "bytes32",
                            "internalType": "bytes32"
                        },
                        {
                            "name": "time",
                            "type": "uint64",
                            "internalType": "uint64"
                        },
                        {
                            "name": "expirationTime",
                            "type": "uint64",
                            "internalType": "uint64"
                        },
                        {
                            "name": "revocationTime",
                            "type": "uint64",
                            "internalType": "uint64"
                        },
                        {
                            "name": "refUID",
                            "type": "bytes32",
                            "internalType": "bytes32"
                        },
                        {
                            "name": "recipient",
                            "type": "address",
                            "internalType": "address"
                        },
                        {
                            "name": "attester",
                            "type": "address",
                            "internalType": "address"
                        },
                        {
                            "name": "revocable",
                            "type": "bool",
                            "internalType": "bool"
                        },
                        {
                            "name": "data",
                            "type": "bytes",
                            "internalType": "bytes"
                        }
                    ]
                },
                {
                    "name": "demand",
                    "type": "bytes",
                    "internalType": "bytes"
                },
                {
                    "name": "",
                    "type": "bytes32",
                    "internalType": "bytes32"
                }
            ],
            "outputs": [
                {
                    "name": "",
                    "type": "bool",
                    "internalType": "bool"
                }
            ],
            "stateMutability": "view"
        },
        {
            "type": "function",
            "name": "collectPayment",
            "inputs": [
                {
                    "name": "_payment",
                    "type": "bytes32",
                    "internalType": "bytes32"
                },
                {
                    "name": "_fulfillment",
                    "type": "bytes32",
                    "internalType": "bytes32"
                }
            ],
            "outputs": [
                {
                    "name": "",
                    "type": "bool",
                    "internalType": "bool"
                }
            ],
            "stateMutability": "nonpayable"
        },
        {
            "type": "function",
            "name": "getSchema",
            "inputs": [],
            "outputs": [
                {
                    "name": "",
                    "type": "tuple",
                    "internalType": "struct SchemaRecord",
                    "components": [
                        {
                            "name": "uid",
                            "type": "bytes32",
                            "internalType": "bytes32"
                        },
                        {
                            "name": "resolver",
                            "type": "address",
                            "internalType": "contract ISchemaResolver"
                        },
                        {
                            "name": "revocable",
                            "type": "bool",
                            "internalType": "bool"
                        },
                        {
                            "name": "schema",
                            "type": "string",
                            "internalType": "string"
                        }
                    ]
                }
            ],
            "stateMutability": "view"
        },
        {
            "type": "function",
            "name": "getStatement",
            "inputs": [
                {
                    "name": "uid",
                    "type": "bytes32",
                    "internalType": "bytes32"
                }
            ],
            "outputs": [
                {
                    "name": "",
                    "type": "tuple",
                    "internalType": "struct Attestation",
                    "components": [
                        {
                            "name": "uid",
                            "type": "bytes32",
                            "internalType": "bytes32"
                        },
                        {
                            "name": "schema",
                            "type": "bytes32",
                            "internalType": "bytes32"
                        },
                        {
                            "name": "time",
                            "type": "uint64",
                            "internalType": "uint64"
                        },
                        {
                            "name": "expirationTime",
                            "type": "uint64",
                            "internalType": "uint64"
                        },
                        {
                            "name": "revocationTime",
                            "type": "uint64",
                            "internalType": "uint64"
                        },
                        {
                            "name": "refUID",
                            "type": "bytes32",
                            "internalType": "bytes32"
                        },
                        {
                            "name": "recipient",
                            "type": "address",
                            "internalType": "address"
                        },
                        {
                            "name": "attester",
                            "type": "address",
                            "internalType": "address"
                        },
                        {
                            "name": "revocable",
                            "type": "bool",
                            "internalType": "bool"
                        },
                        {
                            "name": "data",
                            "type": "bytes",
                            "internalType": "bytes"
                        }
                    ]
                }
            ],
            "stateMutability": "view"
        },
        {
            "type": "function",
            "name": "isPayable",
            "inputs": [],
            "outputs": [
                {
                    "name": "",
                    "type": "bool",
                    "internalType": "bool"
                }
            ],
            "stateMutability": "pure"
        },
        {
            "type": "function",
            "name": "makeStatement",
            "inputs": [
                {
                    "name": "data",
                    "type": "tuple",
                    "internalType": "struct ERC721PaymentObligation.StatementData",
                    "components": [
                        {
                            "name": "token",
                            "type": "address",
                            "internalType": "address"
                        },
                        {
                            "name": "tokenId",
                            "type": "uint256",
                            "internalType": "uint256"
                        },
                        {
                            "name": "arbiter",
                            "type": "address",
                            "internalType": "address"
                        },
                        {
                            "name": "demand",
                            "type": "bytes",
                            "internalType": "bytes"
                        }
                    ]
                },
                {
                    "name": "expirationTime",
                    "type": "uint64",
                    "internalType": "uint64"
                },
                {
                    "name": "refUID",
                    "type": "bytes32",
                    "internalType": "bytes32"
                }
            ],
            "outputs": [
                {
                    "name": "",
                    "type": "bytes32",
                    "internalType": "bytes32"
                }
            ],
            "stateMutability": "nonpayable"
        },
        {
            "type": "function",
            "name": "multiAttest",
            "inputs": [
                {
                    "name": "attestations",
                    "type": "tuple[]",
                    "internalType": "struct Attestation[]",
                    "components": [
                        {
                            "name": "uid",
                            "type": "bytes32",
                            "internalType": "bytes32"
                        },
                        {
                            "name": "schema",
                            "type": "bytes32",
                            "internalType": "bytes32"
                        },
                        {
                            "name": "time",
                            "type": "uint64",
                            "internalType": "uint64"
                        },
                        {
                            "name": "expirationTime",
                            "type": "uint64",
                            "internalType": "uint64"
                        },
                        {
                            "name": "revocationTime",
                            "type": "uint64",
                            "internalType": "uint64"
                        },
                        {
                            "name": "refUID",
                            "type": "bytes32",
                            "internalType": "bytes32"
                        },
                        {
                            "name": "recipient",
                            "type": "address",
                            "internalType": "address"
                        },
                        {
                            "name": "attester",
                            "type": "address",
                            "internalType": "address"
                        },
                        {
                            "name": "revocable",
                            "type": "bool",
                            "internalType": "bool"
                        },
                        {
                            "name": "data",
                            "type": "bytes",
                            "internalType": "bytes"
                        }
                    ]
                },
                {
                    "name": "values",
                    "type": "uint256[]",
                    "internalType": "uint256[]"
                }
            ],
            "outputs": [
                {
                    "name": "",
                    "type": "bool",
                    "internalType": "bool"
                }
            ],
            "stateMutability": "payable"
        },
        {
            "type": "function",
            "name": "multiRevoke",
            "inputs": [
                {
                    "name": "attestations",
                    "type": "tuple[]",
                    "internalType": "struct Attestation[]",
                    "components": [
                        {
                            "name": "uid",
                            "type": "bytes32",
                            "internalType": "bytes32"
                        },
                        {
                            "name": "schema",
                            "type": "bytes32",
                            "internalType": "bytes32"
                        },
                        {
                            "name": "time",
                            "type": "uint64",
                            "internalType": "uint64"
                        },
                        {
                            "name": "expirationTime",
                            "type": "uint64",
                            "internalType": "uint64"
                        },
                        {
                            "name": "revocationTime",
                            "type": "uint64",
                            "internalType": "uint64"
                        },
                        {
                            "name": "refUID",
                            "type": "bytes32",
                            "internalType": "bytes32"
                        },
                        {
                            "name": "recipient",
                            "type": "address",
                            "internalType": "address"
                        },
                        {
                            "name": "attester",
                            "type": "address",
                            "internalType": "address"
                        },
                        {
                            "name": "revocable",
                            "type": "bool",
                            "internalType": "bool"
                        },
                        {
                            "name": "data",
                            "type": "bytes",
                            "internalType": "bytes"
                        }
                    ]
                },
                {
                    "name": "values",
                    "type": "uint256[]",
                    "internalType": "uint256[]"
                }
            ],
            "outputs": [
                {
                    "name": "",
                    "type": "bool",
                    "internalType": "bool"
                }
            ],
            "stateMutability": "payable"
        },
        {
            "type": "function",
            "name": "revoke",
            "inputs": [
                {
                    "name": "attestation",
                    "type": "tuple",
                    "internalType": "struct Attestation",
                    "components": [
                        {
                            "name": "uid",
                            "type": "bytes32",
                            "internalType": "bytes32"
                        },
                        {
                            "name": "schema",
                            "type": "bytes32",
                            "internalType": "bytes32"
                        },
                        {
                            "name": "time",
                            "type": "uint64",
                            "internalType": "uint64"
                        },
                        {
                            "name": "expirationTime",
                            "type": "uint64",
                            "internalType": "uint64"
                        },
                        {
                            "name": "revocationTime",
                            "type": "uint64",
                            "internalType": "uint64"
                        },
                        {
                            "name": "refUID",
                            "type": "bytes32",
                            "internalType": "bytes32"
                        },
                        {
                            "name": "recipient",
                            "type": "address",
                            "internalType": "address"
                        },
                        {
                            "name": "attester",
                            "type": "address",
                            "internalType": "address"
                        },
                        {
                            "name": "revocable",
                            "type": "bool",
                            "internalType": "bool"
                        },
                        {
                            "name": "data",
                            "type": "bytes",
                            "internalType": "bytes"
                        }
                    ]
                }
            ],
            "outputs": [
                {
                    "name": "",
                    "type": "bool",
                    "internalType": "bool"
                }
            ],
            "stateMutability": "payable"
        },
        {
            "type": "function",
            "name": "version",
            "inputs": [],
            "outputs": [
                {
                    "name": "",
                    "type": "string",
                    "internalType": "string"
                }
            ],
            "stateMutability": "view"
        },
        {
            "type": "error",
            "name": "AccessDenied",
            "inputs": []
        },
        {
            "type": "error",
            "name": "AttestationRevoked",
            "inputs": []
        },
        {
            "type": "error",
            "name": "DeadlineExpired",
            "inputs": []
        },
        {
            "type": "error",
            "name": "InsufficientValue",
            "inputs": []
        },
        {
            "type": "error",
            "name": "InvalidEAS",
            "inputs": []
        },
        {
            "type": "error",
            "name": "InvalidFulfillment",
            "inputs": []
        },
        {
            "type": "error",
            "name": "InvalidLength",
            "inputs": []
        },
        {
            "type": "error",
            "name": "InvalidPayment",
            "inputs": []
        },
        {
            "type": "error",
            "name": "InvalidPaymentAttestation",
            "inputs": []
        },
        {
            "type": "error",
            "name": "NotFromStatement",
            "inputs": []
        },
        {
            "type": "error",
            "name": "NotPayable",
            "inputs": []
        },
        {
            "type": "error",
            "name": "UnauthorizedCall",
            "inputs": []
        }
    ],
    "bytecode": {
        "object": "0x61016060405234801561001157600080fd5b50604051611f37380380611f3783398101604081905261003091610131565b81816040518060600160405280603d8152602001611efa603d913960016080819052600360a052600060c052836001600160a01b038116610084576040516341bc07ff60e11b815260040160405180910390fd5b6001600160a01b0390811660e052848116610120528316610100819052604051630c1af44f60e31b81526360d7a278906100c69085903090869060040161016b565b6020604051808303816000875af11580156100e5573d6000803e3d6000fd5b505050506040513d601f19601f8201168201806040525081019061010991906101d1565b61014052506101ea945050505050565b6001600160a01b038116811461012e57600080fd5b50565b6000806040838503121561014457600080fd5b825161014f81610119565b602084015190925061016081610119565b809150509250929050565b606081526000845180606084015260005b81811015610199576020818801810151608086840101520161017c565b50600060808285018101919091526001600160a01b03959095166020840152921515604083015250601f909101601f19160101919050565b6000602082840312156101e357600080fd5b5051919050565b60805160a05160c05160e051610100516101205161014051611c69610291600039600081816101c001528181610366015281816107220152818161091f01528181610b940152610c0a0152600081816102b4015281816103c8015281816105a80152818161063b01528181610784015281816108e50152610b2101526000610c3801526000610fe401526000610a6801526000610a3f01526000610a160152611c696000f3fe6080604052600436106100c65760003560e01c80635cc02d2f1161007f57806391db0b7e1161005957806391db0b7e14610244578063ce46e04614610257578063e49617e11461026b578063e60c35051461027e57600080fd5b80635cc02d2f146101e25780636b122fe01461020f57806388e5b2d91461023157600080fd5b8063039b9bf6146100e95780631272ff8b1461011e57806330088bc91461013e57806348f9fb461461015e57806354fd4d501461018c5780635bf2f20d146101ae57600080fd5b366100e457604051631574f9f360e01b815260040160405180910390fd5b600080fd5b3480156100f557600080fd5b50610109610104366004611151565b610291565b60405190151581526020015b60405180910390f35b34801561012a57600080fd5b506101096101393660046112d4565b6104c1565b34801561014a57600080fd5b50610109610159366004611401565b610585565b34801561016a57600080fd5b5061017e610179366004611423565b610869565b604051908152602001610115565b34801561019857600080fd5b506101a1610a0f565b60405161011591906114d1565b3480156101ba57600080fd5b5061017e7f000000000000000000000000000000000000000000000000000000000000000081565b3480156101ee57600080fd5b506102026101fd366004611151565b610ab2565b60405161011591906115b8565b34801561021b57600080fd5b50610224610bdc565b60405161011591906115cb565b61010961023f366004611659565b610cac565b610109610252366004611659565b610d6b565b34801561026357600080fd5b506000610109565b6101096102793660046116c8565b610e2a565b61010961028c3660046116c8565b610e3f565b6040516328c44a9960e21b81526004810182905260009081906001600160a01b037f0000000000000000000000000000000000000000000000000000000000000000169063a3112a6490602401600060405180830381865afa1580156102fb573d6000803e3d6000fd5b505050506040513d6000823e601f3d908101601f191682016040526103239190810190611774565b90508060c001516001600160a01b0316336001600160a01b03161461035b57604051637bf6a16f60e01b815260040160405180910390fd5b6040805180820182527f000000000000000000000000000000000000000000000000000000000000000081528151808301835285815260006020808301919091528083019182529251634692626760e01b81529151600483015251805160248301529091015160448201527f00000000000000000000000000000000000000000000000000000000000000006001600160a01b031690634692626790606401600060405180830381600087803b15801561041457600080fd5b505af1158015610428573d6000803e3d6000fd5b505050506000816101200151806020019051810190610447919061186c565b805160208201516040516323b872dd60e01b815230600482015233602482015260448101919091529192506001600160a01b0316906323b872dd90606401600060405180830381600087803b15801561049f57600080fd5b505af11580156104b3573d6000803e3d6000fd5b506001979650505050505050565b60006104cc84610e53565b6104d85750600061057e565b60008461012001518060200190518101906104f3919061186c565b905060008480602001905181019061050b919061186c565b805183519192506001600160a01b039182169116148015610533575080602001518260200151145b8015610558575080604001516001600160a01b031682604001516001600160a01b0316145b80156105795750806060015180519060200120826060015180519060200120145b925050505b9392505050565b6040516328c44a9960e21b81526004810183905260009081906001600160a01b037f0000000000000000000000000000000000000000000000000000000000000000169063a3112a6490602401600060405180830381865afa1580156105ef573d6000803e3d6000fd5b505050506040513d6000823e601f3d908101601f191682016040526106179190810190611774565b6040516328c44a9960e21b8152600481018590529091506000906001600160a01b037f0000000000000000000000000000000000000000000000000000000000000000169063a3112a6490602401600060405180830381865afa158015610682573d6000803e3d6000fd5b505050506040513d6000823e601f3d908101601f191682016040526106aa9190810190611774565b90506106b582610e53565b6106d257604051633129ca1960e11b815260040160405180910390fd5b60008261012001518060200190518101906106ed919061186c565b90506106fa838383610eb0565b61071757604051630ebe58ef60e11b815260040160405180910390fd5b6040805180820182527f000000000000000000000000000000000000000000000000000000000000000081528151808301835288815260006020808301919091528083019182529251634692626760e01b81529151600483015251805160248301529091015160448201527f00000000000000000000000000000000000000000000000000000000000000006001600160a01b031690634692626790606401600060405180830381600087803b1580156107d057600080fd5b505af11580156107e4573d6000803e3d6000fd5b5050825160c085015160208501516040516323b872dd60e01b81523060048201526001600160a01b0392831660248201526044810191909152911692506323b872dd9150606401600060405180830381600087803b15801561084557600080fd5b505af1158015610859573d6000803e3d6000fd5b5060019998505050505050505050565b6000610878602085018561190b565b6040516323b872dd60e01b8152336004820152306024820152602086013560448201526001600160a01b0391909116906323b872dd90606401600060405180830381600087803b1580156108cb57600080fd5b505af11580156108df573d6000803e3d6000fd5b505050507f00000000000000000000000000000000000000000000000000000000000000006001600160a01b031663f17325e760405180604001604052807f000000000000000000000000000000000000000000000000000000000000000081526020016040518060c00160405280336001600160a01b03168152602001886001600160401b031681526020016001151581526020018781526020018960405160200161098c9190611951565b604051602081830303815290604052815260200160008152508152506040518263ffffffff1660e01b81526004016109c491906119f9565b6020604051808303816000875af11580156109e3573d6000803e3d6000fd5b505050506040513d601f19601f82011682018060405250810190610a079190611a7b565b949350505050565b6060610a3a7f0000000000000000000000000000000000000000000000000000000000000000610f47565b610a637f0000000000000000000000000000000000000000000000000000000000000000610f47565b610a8c7f0000000000000000000000000000000000000000000000000000000000000000610f47565b604051602001610a9e93929190611a94565b604051602081830303815290604052905090565b604080516101408101825260008082526020820181905281830181905260608083018290526080830182905260a0830182905260c0830182905260e08301829052610100830182905261012083015291516328c44a9960e21b8152600481018490529091906001600160a01b037f0000000000000000000000000000000000000000000000000000000000000000169063a3112a6490602401600060405180830381865afa158015610b68573d6000803e3d6000fd5b505050506040513d6000823e601f3d908101601f19168201604052610b909190810190611774565b90507f0000000000000000000000000000000000000000000000000000000000000000816020015114610bd65760405163295d5f3960e01b815260040160405180910390fd5b92915050565b604080516080810182526000808252602082018190528183015260608082015290516351753e3760e11b81527f000000000000000000000000000000000000000000000000000000000000000060048201526001600160a01b037f0000000000000000000000000000000000000000000000000000000000000000169063a2ea7c6e90602401600060405180830381865afa158015610c7f573d6000803e3d6000fd5b505050506040513d6000823e601f3d908101601f19168201604052610ca79190810190611af3565b905090565b6000610cb6610fd9565b83828114610cd75760405163251f56a160e21b815260040160405180910390fd5b3460005b828110156104b3576000868683818110610cf757610cf7611ba9565b90506020020135905082811115610d215760405163044044a560e21b815260040160405180910390fd5b610d4e898984818110610d3657610d36611ba9565b9050602002810190610d489190611bbf565b50600190565b610d5f576000945050505050610a07565b90910390600101610cdb565b6000610d75610fd9565b83828114610d965760405163251f56a160e21b815260040160405180910390fd5b3460005b828110156104b3576000868683818110610db657610db6611ba9565b90506020020135905082811115610de05760405163044044a560e21b815260040160405180910390fd5b610e0d898984818110610df557610df5611ba9565b9050602002810190610e079190611bbf565b82611024565b610e1e576000945050505050610a07565b90910390600101610d9a565b6000610e34610fd9565b60015b90505b919050565b6000610e49610fd9565b610e378234611024565b6000610e5e82611049565b15610e7c57604051631ab7da6b60e01b815260040160405180910390fd5b60808201516001600160401b031615610ea857604051637b6227e960e11b815260040160405180910390fd5b506001919050565b60a083015160009015610ecb5750815160a08401511461057e565b604080830151606084015186519251631272ff8b60e01b81526001600160a01b0390921692631272ff8b92610f069288929091600401611be0565b602060405180830381865afa158015610f23573d6000803e3d6000fd5b505050506040513d601f19601f82011682018060405250810190610a079190611c16565b60606000610f5483611079565b60010190506000816001600160401b03811115610f7357610f7361116a565b6040519080825280601f01601f191660200182016040528015610f9d576020820181803683370190505b5090508181016020015b600019016f181899199a1a9b1b9c1cb0b131b232b360811b600a86061a8153600a8504945084610fa757509392505050565b336001600160a01b037f0000000000000000000000000000000000000000000000000000000000000000161461102257604051634ca8886760e01b815260040160405180910390fd5b565b600030611038610100850160e0860161190b565b6001600160a01b0316149392505050565b600081606001516001600160401b0316600014158015610e3757505060600151426001600160401b039091161090565b60008072184f03e93ff9f4daa797ed6e38ed64bf6a1f0160401b83106110b85772184f03e93ff9f4daa797ed6e38ed64bf6a1f0160401b830492506040015b6d04ee2d6d415b85acef810000000083106110e4576d04ee2d6d415b85acef8100000000830492506020015b662386f26fc10000831061110257662386f26fc10000830492506010015b6305f5e100831061111a576305f5e100830492506008015b612710831061112e57612710830492506004015b60648310611140576064830492506002015b600a8310610bd65760010192915050565b60006020828403121561116357600080fd5b5035919050565b634e487b7160e01b600052604160045260246000fd5b60405161014081016001600160401b03811182821017156111a3576111a361116a565b60405290565b604051608081016001600160401b03811182821017156111a3576111a361116a565b604051601f8201601f191681016001600160401b03811182821017156111f3576111f361116a565b604052919050565b6001600160401b038116811461121057600080fd5b50565b8035610e3a816111fb565b6001600160a01b038116811461121057600080fd5b8035610e3a8161121e565b801515811461121057600080fd5b8035610e3a8161123e565b60006001600160401b038211156112705761127061116a565b50601f01601f191660200190565b600082601f83011261128f57600080fd5b81356112a261129d82611257565b6111cb565b8181528460208386010111156112b757600080fd5b816020850160208301376000918101602001919091529392505050565b6000806000606084860312156112e957600080fd5b83356001600160401b038111156112ff57600080fd5b8401610140818703121561131257600080fd5b61131a611180565b813581526020808301359082015261133460408301611213565b604082015261134560608301611213565b606082015261135660808301611213565b608082015260a0828101359082015261137160c08301611233565b60c082015261138260e08301611233565b60e0820152611394610100830161124c565b6101008201526101208201356001600160401b038111156113b457600080fd5b6113c08882850161127e565b6101208301525093505060208401356001600160401b038111156113e357600080fd5b6113ef8682870161127e565b93969395505050506040919091013590565b6000806040838503121561141457600080fd5b50508035926020909101359150565b60008060006060848603121561143857600080fd5b83356001600160401b0381111561144e57600080fd5b84016080818703121561146057600080fd5b92506020840135611470816111fb565b929592945050506040919091013590565b60005b8381101561149c578181015183820152602001611484565b50506000910152565b600081518084526114bd816020860160208601611481565b601f01601f19169290920160200192915050565b60208152600061057e60208301846114a5565b80518252602081015160208301526000604082015161150e60408501826001600160401b03169052565b50606082015161152960608501826001600160401b03169052565b50608082015161154460808501826001600160401b03169052565b5060a082015160a084015260c082015161156960c08501826001600160a01b03169052565b5060e082015161158460e08501826001600160a01b03169052565b5061010082015161159a61010085018215159052565b50610120820151610140610120850152610a076101408501826114a5565b60208152600061057e60208301846114e4565b602081528151602082015260018060a01b03602083015116604082015260408201511515606082015260006060830151608080840152610a0760a08401826114a5565b60008083601f84011261162057600080fd5b5081356001600160401b0381111561163757600080fd5b6020830191508360208260051b850101111561165257600080fd5b9250929050565b6000806000806040858703121561166f57600080fd5b84356001600160401b0381111561168557600080fd5b6116918782880161160e565b90955093505060208501356001600160401b038111156116b057600080fd5b6116bc8782880161160e565b95989497509550505050565b6000602082840312156116da57600080fd5b81356001600160401b038111156116f057600080fd5b8201610140818503121561057e57600080fd5b8051610e3a816111fb565b8051610e3a8161121e565b8051610e3a8161123e565b600061173261129d84611257565b905082815283838301111561174657600080fd5b61057e836020830184611481565b600082601f83011261176557600080fd5b61057e83835160208501611724565b60006020828403121561178657600080fd5b81516001600160401b0381111561179c57600080fd5b820161014081850312156117af57600080fd5b6117b7611180565b81518152602080830151908201526117d160408301611703565b60408201526117e260608301611703565b60608201526117f360808301611703565b608082015260a0828101519082015261180e60c0830161170e565b60c082015261181f60e0830161170e565b60e08201526118316101008301611719565b6101008201526101208201516001600160401b0381111561185157600080fd5b61185d86828501611754565b61012083015250949350505050565b60006020828403121561187e57600080fd5b81516001600160401b0381111561189457600080fd5b8201608081850312156118a657600080fd5b6118ae6111a9565b81516118b98161121e565b81526020828101519082015260408201516118d38161121e565b604082015260608201516001600160401b038111156118f157600080fd5b6118fd86828501611754565b606083015250949350505050565b60006020828403121561191d57600080fd5b813561057e8161121e565b81835281816020850137506000828201602090810191909152601f909101601f19169091010190565b60208152600082356119628161121e565b60018060a01b0381166020840152506020830135604083015260408301356119898161121e565b6001600160a01b031660608381019190915283013536849003601e190181126119b157600080fd5b83016020810190356001600160401b038111156119cd57600080fd5b8036038213156119dc57600080fd5b6080808501526119f060a085018284611928565b95945050505050565b60208152815160208201526000602083015160408084015260018060a01b0381511660608401526001600160401b0360208201511660808401526040810151151560a0840152606081015160c0840152608081015160c060e0850152611a636101208501826114a5565b905060a0820151610100850152809250505092915050565b600060208284031215611a8d57600080fd5b5051919050565b60008451611aa6818460208901611481565b601760f91b9083019081528451611ac4816001840160208901611481565b601760f91b600192909101918201528351611ae6816002840160208801611481565b0160020195945050505050565b600060208284031215611b0557600080fd5b81516001600160401b03811115611b1b57600080fd5b820160808185031215611b2d57600080fd5b611b356111a9565b815181526020820151611b478161121e565b60208201526040820151611b5a8161123e565b604082015260608201516001600160401b03811115611b7857600080fd5b80830192505084601f830112611b8d57600080fd5b611b9c85835160208501611724565b6060820152949350505050565b634e487b7160e01b600052603260045260246000fd5b6000823561013e19833603018112611bd657600080fd5b9190910192915050565b606081526000611bf360608301866114e4565b8281036020840152611c0581866114a5565b915050826040830152949350505050565b600060208284031215611c2857600080fd5b815161057e8161123e56fea2646970667358221220c928d09f1cc0a7509b883866b96fef126a6bc1f928817ad75b72978e65dd842c64736f6c634300081a00336164647265737320746f6b656e2c2075696e7432353620746f6b656e49642c206164647265737320617262697465722c2062797465732064656d616e64",
        "linkReferences": {}
    },
    "methodIdentifiers": {
        "ATTESTATION_SCHEMA()": "5bf2f20d",
        "attest((bytes32,bytes32,uint64,uint64,uint64,bytes32,address,address,bool,bytes))": "e60c3505",
        "cancelStatement(bytes32)": "039b9bf6",
        "checkStatement((bytes32,bytes32,uint64,uint64,uint64,bytes32,address,address,bool,bytes),bytes,bytes32)": "1272ff8b",
        "collectPayment(bytes32,bytes32)": "30088bc9",
        "getSchema()": "6b122fe0",
        "getStatement(bytes32)": "5cc02d2f",
        "isPayable()": "ce46e046",
        "makeStatement((address,uint256,address,bytes),uint64,bytes32)": "48f9fb46",
        "multiAttest((bytes32,bytes32,uint64,uint64,uint64,bytes32,address,address,bool,bytes)[],uint256[])": "91db0b7e",
        "multiRevoke((bytes32,bytes32,uint64,uint64,uint64,bytes32,address,address,bool,bytes)[],uint256[])": "88e5b2d9",
        "revoke((bytes32,bytes32,uint64,uint64,uint64,bytes32,address,address,bool,bytes))": "e49617e1",
        "version()": "54fd4d50"
    },
    "id": 51
}