{
    "abi": [
        {
            "type": "constructor",
            "inputs": [
                {
                    "name": "_eas",
                    "type": "address",
                    "internalType": "contract IEAS"
                },
                {
                    "name": "_schemaRegistry",
                    "type": "address",
                    "internalType": "contract ISchemaRegistry"
                }
            ],
            "stateMutability": "nonpayable"
        },
        {
            "type": "receive",
            "stateMutability": "payable"
        },
        {
            "type": "function",
            "name": "ATTESTATION_SCHEMA",
            "inputs": [],
            "outputs": [
                {
                    "name": "",
                    "type": "bytes32",
                    "internalType": "bytes32"
                }
            ],
            "stateMutability": "view"
        },
        {
            "type": "function",
            "name": "_checkIdentical",
            "inputs": [
                {
                    "name": "statement",
                    "type": "tuple",
                    "internalType": "struct Attestation",
                    "components": [
                        {
                            "name": "uid",
                            "type": "bytes32",
                            "internalType": "bytes32"
                        },
                        {
                            "name": "schema",
                            "type": "bytes32",
                            "internalType": "bytes32"
                        },
                        {
                            "name": "time",
                            "type": "uint64",
                            "internalType": "uint64"
                        },
                        {
                            "name": "expirationTime",
                            "type": "uint64",
                            "internalType": "uint64"
                        },
                        {
                            "name": "revocationTime",
                            "type": "uint64",
                            "internalType": "uint64"
                        },
                        {
                            "name": "refUID",
                            "type": "bytes32",
                            "internalType": "bytes32"
                        },
                        {
                            "name": "recipient",
                            "type": "address",
                            "internalType": "address"
                        },
                        {
                            "name": "attester",
                            "type": "address",
                            "internalType": "address"
                        },
                        {
                            "name": "revocable",
                            "type": "bool",
                            "internalType": "bool"
                        },
                        {
                            "name": "data",
                            "type": "bytes",
                            "internalType": "bytes"
                        }
                    ]
                },
                {
                    "name": "demand",
                    "type": "bytes",
                    "internalType": "bytes"
                }
            ],
            "outputs": [
                {
                    "name": "",
                    "type": "bool",
                    "internalType": "bool"
                }
            ],
            "stateMutability": "pure"
        },
        {
            "type": "function",
            "name": "attest",
            "inputs": [
                {
                    "name": "attestation",
                    "type": "tuple",
                    "internalType": "struct Attestation",
                    "components": [
                        {
                            "name": "uid",
                            "type": "bytes32",
                            "internalType": "bytes32"
                        },
                        {
                            "name": "schema",
                            "type": "bytes32",
                            "internalType": "bytes32"
                        },
                        {
                            "name": "time",
                            "type": "uint64",
                            "internalType": "uint64"
                        },
                        {
                            "name": "expirationTime",
                            "type": "uint64",
                            "internalType": "uint64"
                        },
                        {
                            "name": "revocationTime",
                            "type": "uint64",
                            "internalType": "uint64"
                        },
                        {
                            "name": "refUID",
                            "type": "bytes32",
                            "internalType": "bytes32"
                        },
                        {
                            "name": "recipient",
                            "type": "address",
                            "internalType": "address"
                        },
                        {
                            "name": "attester",
                            "type": "address",
                            "internalType": "address"
                        },
                        {
                            "name": "revocable",
                            "type": "bool",
                            "internalType": "bool"
                        },
                        {
                            "name": "data",
                            "type": "bytes",
                            "internalType": "bytes"
                        }
                    ]
                }
            ],
            "outputs": [
                {
                    "name": "",
                    "type": "bool",
                    "internalType": "bool"
                }
            ],
            "stateMutability": "payable"
        },
        {
            "type": "function",
            "name": "cancelStatement",
            "inputs": [
                {
                    "name": "uid",
                    "type": "bytes32",
                    "internalType": "bytes32"
                }
            ],
            "outputs": [
                {
                    "name": "",
                    "type": "bool",
                    "internalType": "bool"
                }
            ],
            "stateMutability": "nonpayable"
        },
        {
            "type": "function",
            "name": "checkStatement",
            "inputs": [
                {
                    "name": "statement",
                    "type": "tuple",
                    "internalType": "struct Attestation",
                    "components": [
                        {
                            "name": "uid",
                            "type": "bytes32",
                            "internalType": "bytes32"
                        },
                        {
                            "name": "schema",
                            "type": "bytes32",
                            "internalType": "bytes32"
                        },
                        {
                            "name": "time",
                            "type": "uint64",
                            "internalType": "uint64"
                        },
                        {
                            "name": "expirationTime",
                            "type": "uint64",
                            "internalType": "uint64"
                        },
                        {
                            "name": "revocationTime",
                            "type": "uint64",
                            "internalType": "uint64"
                        },
                        {
                            "name": "refUID",
                            "type": "bytes32",
                            "internalType": "bytes32"
                        },
                        {
                            "name": "recipient",
                            "type": "address",
                            "internalType": "address"
                        },
                        {
                            "name": "attester",
                            "type": "address",
                            "internalType": "address"
                        },
                        {
                            "name": "revocable",
                            "type": "bool",
                            "internalType": "bool"
                        },
                        {
                            "name": "data",
                            "type": "bytes",
                            "internalType": "bytes"
                        }
                    ]
                },
                {
                    "name": "demand",
                    "type": "bytes",
                    "internalType": "bytes"
                },
                {
                    "name": "",
                    "type": "bytes32",
                    "internalType": "bytes32"
                }
            ],
            "outputs": [
                {
                    "name": "",
                    "type": "bool",
                    "internalType": "bool"
                }
            ],
            "stateMutability": "view"
        },
        {
            "type": "function",
            "name": "collectPayment",
            "inputs": [
                {
                    "name": "_payment",
                    "type": "bytes32",
                    "internalType": "bytes32"
                },
                {
                    "name": "_fulfillment",
                    "type": "bytes32",
                    "internalType": "bytes32"
                }
            ],
            "outputs": [
                {
                    "name": "",
                    "type": "bool",
                    "internalType": "bool"
                }
            ],
            "stateMutability": "nonpayable"
        },
        {
            "type": "function",
            "name": "eas",
            "inputs": [],
            "outputs": [
                {
                    "name": "",
                    "type": "address",
                    "internalType": "contract IEAS"
                }
            ],
            "stateMutability": "view"
        },
        {
            "type": "function",
            "name": "getSchema",
            "inputs": [],
            "outputs": [
                {
                    "name": "",
                    "type": "tuple",
                    "internalType": "struct SchemaRecord",
                    "components": [
                        {
                            "name": "uid",
                            "type": "bytes32",
                            "internalType": "bytes32"
                        },
                        {
                            "name": "resolver",
                            "type": "address",
                            "internalType": "contract ISchemaResolver"
                        },
                        {
                            "name": "revocable",
                            "type": "bool",
                            "internalType": "bool"
                        },
                        {
                            "name": "schema",
                            "type": "string",
                            "internalType": "string"
                        }
                    ]
                }
            ],
            "stateMutability": "view"
        },
        {
            "type": "function",
            "name": "getStatement",
            "inputs": [
                {
                    "name": "uid",
                    "type": "bytes32",
                    "internalType": "bytes32"
                }
            ],
            "outputs": [
                {
                    "name": "",
                    "type": "tuple",
                    "internalType": "struct Attestation",
                    "components": [
                        {
                            "name": "uid",
                            "type": "bytes32",
                            "internalType": "bytes32"
                        },
                        {
                            "name": "schema",
                            "type": "bytes32",
                            "internalType": "bytes32"
                        },
                        {
                            "name": "time",
                            "type": "uint64",
                            "internalType": "uint64"
                        },
                        {
                            "name": "expirationTime",
                            "type": "uint64",
                            "internalType": "uint64"
                        },
                        {
                            "name": "revocationTime",
                            "type": "uint64",
                            "internalType": "uint64"
                        },
                        {
                            "name": "refUID",
                            "type": "bytes32",
                            "internalType": "bytes32"
                        },
                        {
                            "name": "recipient",
                            "type": "address",
                            "internalType": "address"
                        },
                        {
                            "name": "attester",
                            "type": "address",
                            "internalType": "address"
                        },
                        {
                            "name": "revocable",
                            "type": "bool",
                            "internalType": "bool"
                        },
                        {
                            "name": "data",
                            "type": "bytes",
                            "internalType": "bytes"
                        }
                    ]
                }
            ],
            "stateMutability": "view"
        },
        {
            "type": "function",
            "name": "isPayable",
            "inputs": [],
            "outputs": [
                {
                    "name": "",
                    "type": "bool",
                    "internalType": "bool"
                }
            ],
            "stateMutability": "pure"
        },
        {
            "type": "function",
            "name": "makeStatement",
            "inputs": [
                {
                    "name": "data",
                    "type": "tuple",
                    "internalType": "struct ERC721PaymentStatement.StatementData",
                    "components": [
                        {
                            "name": "token",
                            "type": "address",
                            "internalType": "address"
                        },
                        {
                            "name": "tokenId",
                            "type": "uint256",
                            "internalType": "uint256"
                        },
                        {
                            "name": "arbiter",
                            "type": "address",
                            "internalType": "address"
                        },
                        {
                            "name": "demand",
                            "type": "bytes",
                            "internalType": "bytes"
                        }
                    ]
                },
                {
                    "name": "expirationTime",
                    "type": "uint64",
                    "internalType": "uint64"
                },
                {
                    "name": "refUID",
                    "type": "bytes32",
                    "internalType": "bytes32"
                }
            ],
            "outputs": [
                {
                    "name": "",
                    "type": "bytes32",
                    "internalType": "bytes32"
                }
            ],
            "stateMutability": "nonpayable"
        },
        {
            "type": "function",
            "name": "multiAttest",
            "inputs": [
                {
                    "name": "attestations",
                    "type": "tuple[]",
                    "internalType": "struct Attestation[]",
                    "components": [
                        {
                            "name": "uid",
                            "type": "bytes32",
                            "internalType": "bytes32"
                        },
                        {
                            "name": "schema",
                            "type": "bytes32",
                            "internalType": "bytes32"
                        },
                        {
                            "name": "time",
                            "type": "uint64",
                            "internalType": "uint64"
                        },
                        {
                            "name": "expirationTime",
                            "type": "uint64",
                            "internalType": "uint64"
                        },
                        {
                            "name": "revocationTime",
                            "type": "uint64",
                            "internalType": "uint64"
                        },
                        {
                            "name": "refUID",
                            "type": "bytes32",
                            "internalType": "bytes32"
                        },
                        {
                            "name": "recipient",
                            "type": "address",
                            "internalType": "address"
                        },
                        {
                            "name": "attester",
                            "type": "address",
                            "internalType": "address"
                        },
                        {
                            "name": "revocable",
                            "type": "bool",
                            "internalType": "bool"
                        },
                        {
                            "name": "data",
                            "type": "bytes",
                            "internalType": "bytes"
                        }
                    ]
                },
                {
                    "name": "values",
                    "type": "uint256[]",
                    "internalType": "uint256[]"
                }
            ],
            "outputs": [
                {
                    "name": "",
                    "type": "bool",
                    "internalType": "bool"
                }
            ],
            "stateMutability": "payable"
        },
        {
            "type": "function",
            "name": "multiRevoke",
            "inputs": [
                {
                    "name": "attestations",
                    "type": "tuple[]",
                    "internalType": "struct Attestation[]",
                    "components": [
                        {
                            "name": "uid",
                            "type": "bytes32",
                            "internalType": "bytes32"
                        },
                        {
                            "name": "schema",
                            "type": "bytes32",
                            "internalType": "bytes32"
                        },
                        {
                            "name": "time",
                            "type": "uint64",
                            "internalType": "uint64"
                        },
                        {
                            "name": "expirationTime",
                            "type": "uint64",
                            "internalType": "uint64"
                        },
                        {
                            "name": "revocationTime",
                            "type": "uint64",
                            "internalType": "uint64"
                        },
                        {
                            "name": "refUID",
                            "type": "bytes32",
                            "internalType": "bytes32"
                        },
                        {
                            "name": "recipient",
                            "type": "address",
                            "internalType": "address"
                        },
                        {
                            "name": "attester",
                            "type": "address",
                            "internalType": "address"
                        },
                        {
                            "name": "revocable",
                            "type": "bool",
                            "internalType": "bool"
                        },
                        {
                            "name": "data",
                            "type": "bytes",
                            "internalType": "bytes"
                        }
                    ]
                },
                {
                    "name": "values",
                    "type": "uint256[]",
                    "internalType": "uint256[]"
                }
            ],
            "outputs": [
                {
                    "name": "",
                    "type": "bool",
                    "internalType": "bool"
                }
            ],
            "stateMutability": "payable"
        },
        {
            "type": "function",
            "name": "revoke",
            "inputs": [
                {
                    "name": "attestation",
                    "type": "tuple",
                    "internalType": "struct Attestation",
                    "components": [
                        {
                            "name": "uid",
                            "type": "bytes32",
                            "internalType": "bytes32"
                        },
                        {
                            "name": "schema",
                            "type": "bytes32",
                            "internalType": "bytes32"
                        },
                        {
                            "name": "time",
                            "type": "uint64",
                            "internalType": "uint64"
                        },
                        {
                            "name": "expirationTime",
                            "type": "uint64",
                            "internalType": "uint64"
                        },
                        {
                            "name": "revocationTime",
                            "type": "uint64",
                            "internalType": "uint64"
                        },
                        {
                            "name": "refUID",
                            "type": "bytes32",
                            "internalType": "bytes32"
                        },
                        {
                            "name": "recipient",
                            "type": "address",
                            "internalType": "address"
                        },
                        {
                            "name": "attester",
                            "type": "address",
                            "internalType": "address"
                        },
                        {
                            "name": "revocable",
                            "type": "bool",
                            "internalType": "bool"
                        },
                        {
                            "name": "data",
                            "type": "bytes",
                            "internalType": "bytes"
                        }
                    ]
                }
            ],
            "outputs": [
                {
                    "name": "",
                    "type": "bool",
                    "internalType": "bool"
                }
            ],
            "stateMutability": "payable"
        },
        {
            "type": "function",
            "name": "schemaRegistry",
            "inputs": [],
            "outputs": [
                {
                    "name": "",
                    "type": "address",
                    "internalType": "contract ISchemaRegistry"
                }
            ],
            "stateMutability": "view"
        },
        {
            "type": "function",
            "name": "version",
            "inputs": [],
            "outputs": [
                {
                    "name": "",
                    "type": "string",
                    "internalType": "string"
                }
            ],
            "stateMutability": "view"
        },
        {
            "type": "error",
            "name": "AccessDenied",
            "inputs": []
        },
        {
            "type": "error",
            "name": "AttestationRevoked",
            "inputs": []
        },
        {
            "type": "error",
            "name": "DeadlineExpired",
            "inputs": []
        },
        {
            "type": "error",
            "name": "InsufficientValue",
            "inputs": []
        },
        {
            "type": "error",
            "name": "InvalidEAS",
            "inputs": []
        },
        {
            "type": "error",
            "name": "InvalidFulfillment",
            "inputs": []
        },
        {
            "type": "error",
            "name": "InvalidLength",
            "inputs": []
        },
        {
            "type": "error",
            "name": "InvalidPayment",
            "inputs": []
        },
        {
            "type": "error",
            "name": "InvalidPaymentAttestation",
            "inputs": []
        },
        {
            "type": "error",
            "name": "InvalidSchema",
            "inputs": []
        },
        {
            "type": "error",
            "name": "NotFromStatement",
            "inputs": []
        },
        {
            "type": "error",
            "name": "NotPayable",
            "inputs": []
        },
        {
            "type": "error",
            "name": "UnauthorizedCall",
            "inputs": []
        }
    ],
    "bytecode": {
        "object": "0x61016060405234801561001157600080fd5b506040516120a53803806120a583398101604081905261003091610131565b81816040518060600160405280603d8152602001612068603d913960016080819052600360a052600060c052836001600160a01b038116610084576040516341bc07ff60e11b815260040160405180910390fd5b6001600160a01b0390811660e052848116610120528316610100819052604051630c1af44f60e31b81526360d7a278906100c69085903090869060040161016b565b6020604051808303816000875af11580156100e5573d6000803e3d6000fd5b505050506040513d601f19601f8201168201806040525081019061010991906101d1565b61014052506101ea945050505050565b6001600160a01b038116811461012e57600080fd5b50565b6000806040838503121561014457600080fd5b825161014f81610119565b602084015190925061016081610119565b809150509250929050565b606081526000845180606084015260005b81811015610199576020818801810151608086840101520161017c565b50600060808285018101919091526001600160a01b03959095166020840152921515604083015250601f909101601f19160101919050565b6000602082840312156101e357600080fd5b5051919050565b60805160a05160c05160e051610100516101205161014051611dc961029f6000396000818161023d0152818161044a0152818161080701528181610a0401528181610c790152610cef0152600081816102f301528181610398015281816104ac0152818161068d0152818161072001528181610869015281816109ca0152610c060152600081816101a10152610d1d015260006110c901526000610b4d01526000610b2401526000610afb0152611dc96000f3fe6080604052600436106100f75760003560e01c80636b122fe01161008a57806391db0b7e1161005957806391db0b7e14610328578063ce46e0461461033b578063e49617e11461034f578063e60c35051461036257600080fd5b80636b122fe01461028c5780637a9f479e146102ae5780638150864d146102e157806388e5b2d91461031557600080fd5b806348f9fb46116100c657806348f9fb46146101db57806354fd4d50146102095780635bf2f20d1461022b5780635cc02d2f1461025f57600080fd5b8063039b9bf61461011a5780631272ff8b1461014f57806330088bc91461016f5780634441bbd91461018f57600080fd5b3661011557604051631574f9f360e01b815260040160405180910390fd5b600080fd5b34801561012657600080fd5b5061013a610135366004611236565b610375565b60405190151581526020015b60405180910390f35b34801561015b57600080fd5b5061013a61016a366004611489565b6105a5565b34801561017b57600080fd5b5061013a61018a3660046114fa565b61066a565b34801561019b57600080fd5b506101c37f000000000000000000000000000000000000000000000000000000000000000081565b6040516001600160a01b039091168152602001610146565b3480156101e757600080fd5b506101fb6101f636600461151c565b61094e565b604051908152602001610146565b34801561021557600080fd5b5061021e610af4565b60405161014691906115ca565b34801561023757600080fd5b506101fb7f000000000000000000000000000000000000000000000000000000000000000081565b34801561026b57600080fd5b5061027f61027a366004611236565b610b97565b60405161014691906116b1565b34801561029857600080fd5b506102a1610cc1565b60405161014691906116c4565b3480156102ba57600080fd5b5061013a6102c9366004611707565b80516020918201206101209092015180519101201490565b3480156102ed57600080fd5b506101c37f000000000000000000000000000000000000000000000000000000000000000081565b61013a6103233660046117b9565b610d91565b61013a6103363660046117b9565b610e50565b34801561034757600080fd5b50600061013a565b61013a61035d366004611828565b610f0f565b61013a610370366004611828565b610f24565b6040516328c44a9960e21b81526004810182905260009081906001600160a01b037f0000000000000000000000000000000000000000000000000000000000000000169063a3112a6490602401600060405180830381865afa1580156103df573d6000803e3d6000fd5b505050506040513d6000823e601f3d908101601f1916820160405261040791908101906118d4565b90508060c001516001600160a01b0316336001600160a01b03161461043f57604051637bf6a16f60e01b815260040160405180910390fd5b6040805180820182527f000000000000000000000000000000000000000000000000000000000000000081528151808301835285815260006020808301919091528083019182529251634692626760e01b81529151600483015251805160248301529091015160448201527f00000000000000000000000000000000000000000000000000000000000000006001600160a01b031690634692626790606401600060405180830381600087803b1580156104f857600080fd5b505af115801561050c573d6000803e3d6000fd5b50505050600081610120015180602001905181019061052b91906119cc565b805160208201516040516323b872dd60e01b815233600482015230602482015260448101919091529192506001600160a01b0316906323b872dd90606401600060405180830381600087803b15801561058357600080fd5b505af1158015610597573d6000803e3d6000fd5b506001979650505050505050565b60006105b084610f38565b6105bc57506000610663565b60008461012001518060200190518101906105d791906119cc565b90506000848060200190518101906105ef91906119cc565b805183519192506001600160a01b03918216911614801561061857508060200151826020015110155b801561063d575080604001516001600160a01b031682604001516001600160a01b0316145b801561065e5750806060015180519060200120826060015180519060200120145b925050505b9392505050565b6040516328c44a9960e21b81526004810183905260009081906001600160a01b037f0000000000000000000000000000000000000000000000000000000000000000169063a3112a6490602401600060405180830381865afa1580156106d4573d6000803e3d6000fd5b505050506040513d6000823e601f3d908101601f191682016040526106fc91908101906118d4565b6040516328c44a9960e21b8152600481018590529091506000906001600160a01b037f0000000000000000000000000000000000000000000000000000000000000000169063a3112a6490602401600060405180830381865afa158015610767573d6000803e3d6000fd5b505050506040513d6000823e601f3d908101601f1916820160405261078f91908101906118d4565b905061079a82610f38565b6107b757604051633129ca1960e11b815260040160405180910390fd5b60008261012001518060200190518101906107d291906119cc565b90506107df838383610f95565b6107fc57604051630ebe58ef60e11b815260040160405180910390fd5b6040805180820182527f000000000000000000000000000000000000000000000000000000000000000081528151808301835288815260006020808301919091528083019182529251634692626760e01b81529151600483015251805160248301529091015160448201527f00000000000000000000000000000000000000000000000000000000000000006001600160a01b031690634692626790606401600060405180830381600087803b1580156108b557600080fd5b505af11580156108c9573d6000803e3d6000fd5b5050825160c085015160208501516040516323b872dd60e01b81523060048201526001600160a01b0392831660248201526044810191909152911692506323b872dd9150606401600060405180830381600087803b15801561092a57600080fd5b505af115801561093e573d6000803e3d6000fd5b5060019998505050505050505050565b600061095d6020850185611a6b565b6040516323b872dd60e01b8152336004820152306024820152602086013560448201526001600160a01b0391909116906323b872dd90606401600060405180830381600087803b1580156109b057600080fd5b505af11580156109c4573d6000803e3d6000fd5b505050507f00000000000000000000000000000000000000000000000000000000000000006001600160a01b031663f17325e760405180604001604052807f000000000000000000000000000000000000000000000000000000000000000081526020016040518060c00160405280336001600160a01b03168152602001886001600160401b0316815260200160011515815260200187815260200189604051602001610a719190611ab1565b604051602081830303815290604052815260200160008152508152506040518263ffffffff1660e01b8152600401610aa99190611b59565b6020604051808303816000875af1158015610ac8573d6000803e3d6000fd5b505050506040513d601f19601f82011682018060405250810190610aec9190611bdb565b949350505050565b6060610b1f7f000000000000000000000000000000000000000000000000000000000000000061102c565b610b487f000000000000000000000000000000000000000000000000000000000000000061102c565b610b717f000000000000000000000000000000000000000000000000000000000000000061102c565b604051602001610b8393929190611bf4565b604051602081830303815290604052905090565b604080516101408101825260008082526020820181905281830181905260608083018290526080830182905260a0830182905260c0830182905260e08301829052610100830182905261012083015291516328c44a9960e21b8152600481018490529091906001600160a01b037f0000000000000000000000000000000000000000000000000000000000000000169063a3112a6490602401600060405180830381865afa158015610c4d573d6000803e3d6000fd5b505050506040513d6000823e601f3d908101601f19168201604052610c7591908101906118d4565b90507f0000000000000000000000000000000000000000000000000000000000000000816020015114610cbb5760405163295d5f3960e01b815260040160405180910390fd5b92915050565b604080516080810182526000808252602082018190528183015260608082015290516351753e3760e11b81527f000000000000000000000000000000000000000000000000000000000000000060048201526001600160a01b037f0000000000000000000000000000000000000000000000000000000000000000169063a2ea7c6e90602401600060405180830381865afa158015610d64573d6000803e3d6000fd5b505050506040513d6000823e601f3d908101601f19168201604052610d8c9190810190611c53565b905090565b6000610d9b6110be565b83828114610dbc5760405163251f56a160e21b815260040160405180910390fd5b3460005b82811015610597576000868683818110610ddc57610ddc611d09565b90506020020135905082811115610e065760405163044044a560e21b815260040160405180910390fd5b610e33898984818110610e1b57610e1b611d09565b9050602002810190610e2d9190611d1f565b50600190565b610e44576000945050505050610aec565b90910390600101610dc0565b6000610e5a6110be565b83828114610e7b5760405163251f56a160e21b815260040160405180910390fd5b3460005b82811015610597576000868683818110610e9b57610e9b611d09565b90506020020135905082811115610ec55760405163044044a560e21b815260040160405180910390fd5b610ef2898984818110610eda57610eda611d09565b9050602002810190610eec9190611d1f565b82611109565b610f03576000945050505050610aec565b90910390600101610e7f565b6000610f196110be565b60015b90505b919050565b6000610f2e6110be565b610f1c8234611109565b6000610f438261112e565b15610f6157604051631ab7da6b60e01b815260040160405180910390fd5b60808201516001600160401b031615610f8d57604051637b6227e960e11b815260040160405180910390fd5b506001919050565b60a083015160009015610fb05750815160a084015114610663565b604080830151606084015186519251631272ff8b60e01b81526001600160a01b0390921692631272ff8b92610feb9288929091600401611d40565b602060405180830381865afa158015611008573d6000803e3d6000fd5b505050506040513d601f19601f82011682018060405250810190610aec9190611d76565b606060006110398361115e565b60010190506000816001600160401b038111156110585761105861124f565b6040519080825280601f01601f191660200182016040528015611082576020820181803683370190505b5090508181016020015b600019016f181899199a1a9b1b9c1cb0b131b232b360811b600a86061a8153600a850494508461108c57509392505050565b336001600160a01b037f0000000000000000000000000000000000000000000000000000000000000000161461110757604051634ca8886760e01b815260040160405180910390fd5b565b60003061111d610100850160e08601611a6b565b6001600160a01b0316149392505050565b600081606001516001600160401b0316600014158015610f1c57505060600151426001600160401b039091161090565b60008072184f03e93ff9f4daa797ed6e38ed64bf6a1f0160401b831061119d5772184f03e93ff9f4daa797ed6e38ed64bf6a1f0160401b830492506040015b6d04ee2d6d415b85acef810000000083106111c9576d04ee2d6d415b85acef8100000000830492506020015b662386f26fc1000083106111e757662386f26fc10000830492506010015b6305f5e10083106111ff576305f5e100830492506008015b612710831061121357612710830492506004015b60648310611225576064830492506002015b600a8310610cbb5760010192915050565b60006020828403121561124857600080fd5b5035919050565b634e487b7160e01b600052604160045260246000fd5b60405161014081016001600160401b03811182821017156112885761128861124f565b60405290565b604051608081016001600160401b03811182821017156112885761128861124f565b604051601f8201601f191681016001600160401b03811182821017156112d8576112d861124f565b604052919050565b6001600160401b03811681146112f557600080fd5b50565b8035610f1f816112e0565b6001600160a01b03811681146112f557600080fd5b8035610f1f81611303565b80151581146112f557600080fd5b8035610f1f81611323565b60006001600160401b038211156113555761135561124f565b50601f01601f191660200190565b600082601f83011261137457600080fd5b81356113876113828261133c565b6112b0565b81815284602083860101111561139c57600080fd5b816020850160208301376000918101602001919091529392505050565b600061014082840312156113cc57600080fd5b6113d4611265565b823581526020808401359082015290506113f0604083016112f8565b6040820152611401606083016112f8565b6060820152611412608083016112f8565b608082015260a0828101359082015261142d60c08301611318565b60c082015261143e60e08301611318565b60e08201526114506101008301611331565b6101008201526101208201356001600160401b0381111561147057600080fd5b61147c84828501611363565b6101208301525092915050565b60008060006060848603121561149e57600080fd5b83356001600160401b038111156114b457600080fd5b6114c0868287016113b9565b93505060208401356001600160401b038111156114dc57600080fd5b6114e886828701611363565b93969395505050506040919091013590565b6000806040838503121561150d57600080fd5b50508035926020909101359150565b60008060006060848603121561153157600080fd5b83356001600160401b0381111561154757600080fd5b84016080818703121561155957600080fd5b92506020840135611569816112e0565b929592945050506040919091013590565b60005b8381101561159557818101518382015260200161157d565b50506000910152565b600081518084526115b681602086016020860161157a565b601f01601f19169290920160200192915050565b602081526000610663602083018461159e565b80518252602081015160208301526000604082015161160760408501826001600160401b03169052565b50606082015161162260608501826001600160401b03169052565b50608082015161163d60808501826001600160401b03169052565b5060a082015160a084015260c082015161166260c08501826001600160a01b03169052565b5060e082015161167d60e08501826001600160a01b03169052565b5061010082015161169361010085018215159052565b50610120820151610140610120850152610aec61014085018261159e565b60208152600061066360208301846115dd565b602081528151602082015260018060a01b03602083015116604082015260408201511515606082015260006060830151608080840152610aec60a084018261159e565b6000806040838503121561171a57600080fd5b82356001600160401b0381111561173057600080fd5b61173c858286016113b9565b92505060208301356001600160401b0381111561175857600080fd5b61176485828601611363565b9150509250929050565b60008083601f84011261178057600080fd5b5081356001600160401b0381111561179757600080fd5b6020830191508360208260051b85010111156117b257600080fd5b9250929050565b600080600080604085870312156117cf57600080fd5b84356001600160401b038111156117e557600080fd5b6117f18782880161176e565b90955093505060208501356001600160401b0381111561181057600080fd5b61181c8782880161176e565b95989497509550505050565b60006020828403121561183a57600080fd5b81356001600160401b0381111561185057600080fd5b8201610140818503121561066357600080fd5b8051610f1f816112e0565b8051610f1f81611303565b8051610f1f81611323565b60006118926113828461133c565b90508281528383830111156118a657600080fd5b61066383602083018461157a565b600082601f8301126118c557600080fd5b61066383835160208501611884565b6000602082840312156118e657600080fd5b81516001600160401b038111156118fc57600080fd5b8201610140818503121561190f57600080fd5b611917611265565b815181526020808301519082015261193160408301611863565b604082015261194260608301611863565b606082015261195360808301611863565b608082015260a0828101519082015261196e60c0830161186e565b60c082015261197f60e0830161186e565b60e08201526119916101008301611879565b6101008201526101208201516001600160401b038111156119b157600080fd5b6119bd868285016118b4565b61012083015250949350505050565b6000602082840312156119de57600080fd5b81516001600160401b038111156119f457600080fd5b820160808185031215611a0657600080fd5b611a0e61128e565b8151611a1981611303565b8152602082810151908201526040820151611a3381611303565b604082015260608201516001600160401b03811115611a5157600080fd5b611a5d868285016118b4565b606083015250949350505050565b600060208284031215611a7d57600080fd5b813561066381611303565b81835281816020850137506000828201602090810191909152601f909101601f19169091010190565b6020815260008235611ac281611303565b60018060a01b038116602084015250602083013560408301526040830135611ae981611303565b6001600160a01b031660608381019190915283013536849003601e19018112611b1157600080fd5b83016020810190356001600160401b03811115611b2d57600080fd5b803603821315611b3c57600080fd5b608080850152611b5060a085018284611a88565b95945050505050565b60208152815160208201526000602083015160408084015260018060a01b0381511660608401526001600160401b0360208201511660808401526040810151151560a0840152606081015160c0840152608081015160c060e0850152611bc361012085018261159e565b905060a0820151610100850152809250505092915050565b600060208284031215611bed57600080fd5b5051919050565b60008451611c0681846020890161157a565b601760f91b9083019081528451611c2481600184016020890161157a565b601760f91b600192909101918201528351611c4681600284016020880161157a565b0160020195945050505050565b600060208284031215611c6557600080fd5b81516001600160401b03811115611c7b57600080fd5b820160808185031215611c8d57600080fd5b611c9561128e565b815181526020820151611ca781611303565b60208201526040820151611cba81611323565b604082015260608201516001600160401b03811115611cd857600080fd5b80830192505084601f830112611ced57600080fd5b611cfc85835160208501611884565b6060820152949350505050565b634e487b7160e01b600052603260045260246000fd5b6000823561013e19833603018112611d3657600080fd5b9190910192915050565b606081526000611d5360608301866115dd565b8281036020840152611d65818661159e565b915050826040830152949350505050565b600060208284031215611d8857600080fd5b81516106638161132356fea2646970667358221220ee103b093d4e80e432d1f94873cd485151e2025f0d1290d48950ecff3e6c69f564736f6c634300081a00336164647265737320746f6b656e2c2075696e7432353620746f6b656e49642c206164647265737320617262697465722c2062797465732064656d616e64",
        "linkReferences": {}
    },
    "methodIdentifiers": {
        "ATTESTATION_SCHEMA()": "5bf2f20d",
        "_checkIdentical((bytes32,bytes32,uint64,uint64,uint64,bytes32,address,address,bool,bytes),bytes)": "7a9f479e",
        "attest((bytes32,bytes32,uint64,uint64,uint64,bytes32,address,address,bool,bytes))": "e60c3505",
        "cancelStatement(bytes32)": "039b9bf6",
        "checkStatement((bytes32,bytes32,uint64,uint64,uint64,bytes32,address,address,bool,bytes),bytes,bytes32)": "1272ff8b",
        "collectPayment(bytes32,bytes32)": "30088bc9",
        "eas()": "8150864d",
        "getSchema()": "6b122fe0",
        "getStatement(bytes32)": "5cc02d2f",
        "isPayable()": "ce46e046",
        "makeStatement((address,uint256,address,bytes),uint64,bytes32)": "48f9fb46",
        "multiAttest((bytes32,bytes32,uint64,uint64,uint64,bytes32,address,address,bool,bytes)[],uint256[])": "91db0b7e",
        "multiRevoke((bytes32,bytes32,uint64,uint64,uint64,bytes32,address,address,bool,bytes)[],uint256[])": "88e5b2d9",
        "revoke((bytes32,bytes32,uint64,uint64,uint64,bytes32,address,address,bool,bytes))": "e49617e1",
        "schemaRegistry()": "4441bbd9",
        "version()": "54fd4d50"
    },
    "id": 54
}