{
    "abi": [
        {
            "type": "constructor",
            "inputs": [
                {
                    "name": "_eas",
                    "type": "address",
                    "internalType": "contract IEAS"
                },
                {
                    "name": "_schemaRegistry",
                    "type": "address",
                    "internalType": "contract ISchemaRegistry"
                }
            ],
            "stateMutability": "nonpayable"
        },
        {
            "type": "receive",
            "stateMutability": "payable"
        },
        {
            "type": "function",
            "name": "ATTESTATION_SCHEMA",
            "inputs": [],
            "outputs": [
                {
                    "name": "",
                    "type": "bytes32",
                    "internalType": "bytes32"
                }
            ],
            "stateMutability": "view"
        },
        {
            "type": "function",
            "name": "attest",
            "inputs": [
                {
                    "name": "attestation",
                    "type": "tuple",
                    "internalType": "struct Attestation",
                    "components": [
                        {
                            "name": "uid",
                            "type": "bytes32",
                            "internalType": "bytes32"
                        },
                        {
                            "name": "schema",
                            "type": "bytes32",
                            "internalType": "bytes32"
                        },
                        {
                            "name": "time",
                            "type": "uint64",
                            "internalType": "uint64"
                        },
                        {
                            "name": "expirationTime",
                            "type": "uint64",
                            "internalType": "uint64"
                        },
                        {
                            "name": "revocationTime",
                            "type": "uint64",
                            "internalType": "uint64"
                        },
                        {
                            "name": "refUID",
                            "type": "bytes32",
                            "internalType": "bytes32"
                        },
                        {
                            "name": "recipient",
                            "type": "address",
                            "internalType": "address"
                        },
                        {
                            "name": "attester",
                            "type": "address",
                            "internalType": "address"
                        },
                        {
                            "name": "revocable",
                            "type": "bool",
                            "internalType": "bool"
                        },
                        {
                            "name": "data",
                            "type": "bytes",
                            "internalType": "bytes"
                        }
                    ]
                }
            ],
            "outputs": [
                {
                    "name": "",
                    "type": "bool",
                    "internalType": "bool"
                }
            ],
            "stateMutability": "payable"
        },
        {
            "type": "function",
            "name": "getSchema",
            "inputs": [],
            "outputs": [
                {
                    "name": "",
                    "type": "tuple",
                    "internalType": "struct SchemaRecord",
                    "components": [
                        {
                            "name": "uid",
                            "type": "bytes32",
                            "internalType": "bytes32"
                        },
                        {
                            "name": "resolver",
                            "type": "address",
                            "internalType": "contract ISchemaResolver"
                        },
                        {
                            "name": "revocable",
                            "type": "bool",
                            "internalType": "bool"
                        },
                        {
                            "name": "schema",
                            "type": "string",
                            "internalType": "string"
                        }
                    ]
                }
            ],
            "stateMutability": "view"
        },
        {
            "type": "function",
            "name": "getStatement",
            "inputs": [
                {
                    "name": "uid",
                    "type": "bytes32",
                    "internalType": "bytes32"
                }
            ],
            "outputs": [
                {
                    "name": "",
                    "type": "tuple",
                    "internalType": "struct Attestation",
                    "components": [
                        {
                            "name": "uid",
                            "type": "bytes32",
                            "internalType": "bytes32"
                        },
                        {
                            "name": "schema",
                            "type": "bytes32",
                            "internalType": "bytes32"
                        },
                        {
                            "name": "time",
                            "type": "uint64",
                            "internalType": "uint64"
                        },
                        {
                            "name": "expirationTime",
                            "type": "uint64",
                            "internalType": "uint64"
                        },
                        {
                            "name": "revocationTime",
                            "type": "uint64",
                            "internalType": "uint64"
                        },
                        {
                            "name": "refUID",
                            "type": "bytes32",
                            "internalType": "bytes32"
                        },
                        {
                            "name": "recipient",
                            "type": "address",
                            "internalType": "address"
                        },
                        {
                            "name": "attester",
                            "type": "address",
                            "internalType": "address"
                        },
                        {
                            "name": "revocable",
                            "type": "bool",
                            "internalType": "bool"
                        },
                        {
                            "name": "data",
                            "type": "bytes",
                            "internalType": "bytes"
                        }
                    ]
                }
            ],
            "stateMutability": "view"
        },
        {
            "type": "function",
            "name": "isPayable",
            "inputs": [],
            "outputs": [
                {
                    "name": "",
                    "type": "bool",
                    "internalType": "bool"
                }
            ],
            "stateMutability": "pure"
        },
        {
            "type": "function",
            "name": "makeStatement",
            "inputs": [
                {
                    "name": "data",
                    "type": "tuple",
                    "internalType": "struct JobResultObligation.StatementData",
                    "components": [
                        {
                            "name": "result",
                            "type": "string",
                            "internalType": "string"
                        }
                    ]
                },
                {
                    "name": "refUID",
                    "type": "bytes32",
                    "internalType": "bytes32"
                }
            ],
            "outputs": [
                {
                    "name": "",
                    "type": "bytes32",
                    "internalType": "bytes32"
                }
            ],
            "stateMutability": "nonpayable"
        },
        {
            "type": "function",
            "name": "multiAttest",
            "inputs": [
                {
                    "name": "attestations",
                    "type": "tuple[]",
                    "internalType": "struct Attestation[]",
                    "components": [
                        {
                            "name": "uid",
                            "type": "bytes32",
                            "internalType": "bytes32"
                        },
                        {
                            "name": "schema",
                            "type": "bytes32",
                            "internalType": "bytes32"
                        },
                        {
                            "name": "time",
                            "type": "uint64",
                            "internalType": "uint64"
                        },
                        {
                            "name": "expirationTime",
                            "type": "uint64",
                            "internalType": "uint64"
                        },
                        {
                            "name": "revocationTime",
                            "type": "uint64",
                            "internalType": "uint64"
                        },
                        {
                            "name": "refUID",
                            "type": "bytes32",
                            "internalType": "bytes32"
                        },
                        {
                            "name": "recipient",
                            "type": "address",
                            "internalType": "address"
                        },
                        {
                            "name": "attester",
                            "type": "address",
                            "internalType": "address"
                        },
                        {
                            "name": "revocable",
                            "type": "bool",
                            "internalType": "bool"
                        },
                        {
                            "name": "data",
                            "type": "bytes",
                            "internalType": "bytes"
                        }
                    ]
                },
                {
                    "name": "values",
                    "type": "uint256[]",
                    "internalType": "uint256[]"
                }
            ],
            "outputs": [
                {
                    "name": "",
                    "type": "bool",
                    "internalType": "bool"
                }
            ],
            "stateMutability": "payable"
        },
        {
            "type": "function",
            "name": "multiRevoke",
            "inputs": [
                {
                    "name": "attestations",
                    "type": "tuple[]",
                    "internalType": "struct Attestation[]",
                    "components": [
                        {
                            "name": "uid",
                            "type": "bytes32",
                            "internalType": "bytes32"
                        },
                        {
                            "name": "schema",
                            "type": "bytes32",
                            "internalType": "bytes32"
                        },
                        {
                            "name": "time",
                            "type": "uint64",
                            "internalType": "uint64"
                        },
                        {
                            "name": "expirationTime",
                            "type": "uint64",
                            "internalType": "uint64"
                        },
                        {
                            "name": "revocationTime",
                            "type": "uint64",
                            "internalType": "uint64"
                        },
                        {
                            "name": "refUID",
                            "type": "bytes32",
                            "internalType": "bytes32"
                        },
                        {
                            "name": "recipient",
                            "type": "address",
                            "internalType": "address"
                        },
                        {
                            "name": "attester",
                            "type": "address",
                            "internalType": "address"
                        },
                        {
                            "name": "revocable",
                            "type": "bool",
                            "internalType": "bool"
                        },
                        {
                            "name": "data",
                            "type": "bytes",
                            "internalType": "bytes"
                        }
                    ]
                },
                {
                    "name": "values",
                    "type": "uint256[]",
                    "internalType": "uint256[]"
                }
            ],
            "outputs": [
                {
                    "name": "",
                    "type": "bool",
                    "internalType": "bool"
                }
            ],
            "stateMutability": "payable"
        },
        {
            "type": "function",
            "name": "revoke",
            "inputs": [
                {
                    "name": "attestation",
                    "type": "tuple",
                    "internalType": "struct Attestation",
                    "components": [
                        {
                            "name": "uid",
                            "type": "bytes32",
                            "internalType": "bytes32"
                        },
                        {
                            "name": "schema",
                            "type": "bytes32",
                            "internalType": "bytes32"
                        },
                        {
                            "name": "time",
                            "type": "uint64",
                            "internalType": "uint64"
                        },
                        {
                            "name": "expirationTime",
                            "type": "uint64",
                            "internalType": "uint64"
                        },
                        {
                            "name": "revocationTime",
                            "type": "uint64",
                            "internalType": "uint64"
                        },
                        {
                            "name": "refUID",
                            "type": "bytes32",
                            "internalType": "bytes32"
                        },
                        {
                            "name": "recipient",
                            "type": "address",
                            "internalType": "address"
                        },
                        {
                            "name": "attester",
                            "type": "address",
                            "internalType": "address"
                        },
                        {
                            "name": "revocable",
                            "type": "bool",
                            "internalType": "bool"
                        },
                        {
                            "name": "data",
                            "type": "bytes",
                            "internalType": "bytes"
                        }
                    ]
                }
            ],
            "outputs": [
                {
                    "name": "",
                    "type": "bool",
                    "internalType": "bool"
                }
            ],
            "stateMutability": "payable"
        },
        {
            "type": "function",
            "name": "version",
            "inputs": [],
            "outputs": [
                {
                    "name": "",
                    "type": "string",
                    "internalType": "string"
                }
            ],
            "stateMutability": "view"
        },
        {
            "type": "error",
            "name": "AccessDenied",
            "inputs": []
        },
        {
            "type": "error",
            "name": "InsufficientValue",
            "inputs": []
        },
        {
            "type": "error",
            "name": "InvalidEAS",
            "inputs": []
        },
        {
            "type": "error",
            "name": "InvalidLength",
            "inputs": []
        },
        {
            "type": "error",
            "name": "NotFromStatement",
            "inputs": []
        },
        {
            "type": "error",
            "name": "NotPayable",
            "inputs": []
        }
    ],
    "bytecode": {
        "object": "0x61016060405234801561001157600080fd5b5060405161136a38038061136a8339810160408190526100309161013e565b60408051808201909152600d81526c1cdd1c9a5b99c81c995cdd5b1d609a1b602082015260016080819052600360a052600060c05283918391836001600160a01b038116610091576040516341bc07ff60e11b815260040160405180910390fd5b6001600160a01b0390811660e052848116610120528316610100819052604051630c1af44f60e31b81526360d7a278906100d390859030908690600401610178565b6020604051808303816000875af11580156100f2573d6000803e3d6000fd5b505050506040513d601f19601f8201168201806040525081019061011691906101de565b61014052506101f7945050505050565b6001600160a01b038116811461013b57600080fd5b50565b6000806040838503121561015157600080fd5b825161015c81610126565b602084015190925061016d81610126565b809150509250929050565b606081526000845180606084015260005b818110156101a65760208188018101516080868401015201610189565b50600060808285018101919091526001600160a01b03959095166020840152921515604083015250601f909101601f19160101919050565b6000602082840312156101f057600080fd5b5051919050565b60805160a05160c05160e0516101005161012051610140516110fd61026d6000396000818161011f0152818161023e015281816104b3015261052901526000818161020401526104400152600061055701526000610820015260006103870152600061035e0152600061033501526110fd6000f3fe6080604052600436106100955760003560e01c806388e5b2d91161005957806388e5b2d91461019057806391db0b7e146101b3578063ce46e046146101c6578063e49617e1146101da578063e60c3505146101ed57600080fd5b8063455577cc146100b857806354fd4d50146100eb5780635bf2f20d1461010d5780635cc02d2f146101415780636b122fe01461016e57600080fd5b366100b357604051631574f9f360e01b815260040160405180910390fd5b600080fd5b3480156100c457600080fd5b506100d86100d336600461095d565b610200565b6040519081526020015b60405180910390f35b3480156100f757600080fd5b5061010061032e565b6040516100e291906109f6565b34801561011957600080fd5b506100d87f000000000000000000000000000000000000000000000000000000000000000081565b34801561014d57600080fd5b5061016161015c366004610a09565b6103d1565b6040516100e29190610a22565b34801561017a57600080fd5b506101836104fb565b6040516100e29190610ae4565b6101a361019e366004610b72565b6105cb565b60405190151581526020016100e2565b6101a36101c1366004610b72565b61069a565b3480156101d257600080fd5b5060006101a3565b6101a36101e8366004610be1565b610759565b6101a36101fb366004610be1565b61076e565b60007f00000000000000000000000000000000000000000000000000000000000000006001600160a01b031663f17325e760405180604001604052807f000000000000000000000000000000000000000000000000000000000000000081526020016040518060c00160405280336001600160a01b0316815260200160006001600160401b03168152602001600015158152602001878152602001886040516020016102ac9190610c1c565b604051602081830303815290604052815260200160008152508152506040518263ffffffff1660e01b81526004016102e49190610c94565b6020604051808303816000875af1158015610303573d6000803e3d6000fd5b505050506040513d601f19601f820116820180604052508101906103279190610d16565b9392505050565b60606103597f0000000000000000000000000000000000000000000000000000000000000000610782565b6103827f0000000000000000000000000000000000000000000000000000000000000000610782565b6103ab7f0000000000000000000000000000000000000000000000000000000000000000610782565b6040516020016103bd93929190610d2f565b604051602081830303815290604052905090565b604080516101408101825260008082526020820181905281830181905260608083018290526080830182905260a0830182905260c0830182905260e08301829052610100830182905261012083015291516328c44a9960e21b8152600481018490529091906001600160a01b037f0000000000000000000000000000000000000000000000000000000000000000169063a3112a6490602401600060405180830381865afa158015610487573d6000803e3d6000fd5b505050506040513d6000823e601f3d908101601f191682016040526104af9190810190610ec7565b90507f00000000000000000000000000000000000000000000000000000000000000008160200151146104f55760405163295d5f3960e01b815260040160405180910390fd5b92915050565b604080516080810182526000808252602082018190528183015260608082015290516351753e3760e11b81527f000000000000000000000000000000000000000000000000000000000000000060048201526001600160a01b037f0000000000000000000000000000000000000000000000000000000000000000169063a2ea7c6e90602401600060405180830381865afa15801561059e573d6000803e3d6000fd5b505050506040513d6000823e601f3d908101601f191682016040526105c69190810190610fbf565b905090565b60006105d5610815565b838281146105f65760405163251f56a160e21b815260040160405180910390fd5b3460005b8281101561068a57600086868381811061061657610616611073565b905060200201359050828111156106405760405163044044a560e21b815260040160405180910390fd5b61066d89898481811061065557610655611073565b90506020028101906106679190611089565b50600190565b61067e576000945050505050610692565b909103906001016105fa565b506001925050505b949350505050565b60006106a4610815565b838281146106c55760405163251f56a160e21b815260040160405180910390fd5b3460005b8281101561068a5760008686838181106106e5576106e5611073565b9050602002013590508281111561070f5760405163044044a560e21b815260040160405180910390fd5b61073c89898481811061072457610724611073565b90506020028101906107369190611089565b82610860565b61074d576000945050505050610692565b909103906001016106c9565b6000610763610815565b60015b90505b919050565b6000610778610815565b6107668234610860565b6060600061078f83610885565b60010190506000816001600160401b038111156107ae576107ae610d8e565b6040519080825280601f01601f1916602001820160405280156107d8576020820181803683370190505b5090508181016020015b600019016f181899199a1a9b1b9c1cb0b131b232b360811b600a86061a8153600a85049450846107e2575b509392505050565b336001600160a01b037f0000000000000000000000000000000000000000000000000000000000000000161461085e57604051634ca8886760e01b815260040160405180910390fd5b565b600030610874610100850160e086016110aa565b6001600160a01b0316149392505050565b60008072184f03e93ff9f4daa797ed6e38ed64bf6a1f0160401b83106108c45772184f03e93ff9f4daa797ed6e38ed64bf6a1f0160401b830492506040015b6d04ee2d6d415b85acef810000000083106108f0576d04ee2d6d415b85acef8100000000830492506020015b662386f26fc10000831061090e57662386f26fc10000830492506010015b6305f5e1008310610926576305f5e100830492506008015b612710831061093a57612710830492506004015b6064831061094c576064830492506002015b600a83106104f55760010192915050565b6000806040838503121561097057600080fd5b82356001600160401b0381111561098657600080fd5b83016020818603121561099857600080fd5b946020939093013593505050565b60005b838110156109c15781810151838201526020016109a9565b50506000910152565b600081518084526109e28160208601602086016109a6565b601f01601f19169290920160200192915050565b60208152600061032760208301846109ca565b600060208284031215610a1b57600080fd5b5035919050565b60208152815160208201526020820151604082015260006040830151610a5360608401826001600160401b03169052565b5060608301516001600160401b03811660808401525060808301516001600160401b03811660a08401525060a083015160c083015260c0830151610aa260e08401826001600160a01b03169052565b5060e08301516001600160a01b0381166101008401525061010083015180151561012084015250610120830151610140808401526106926101608401826109ca565b602081528151602082015260018060a01b0360208301511660408201526040820151151560608201526000606083015160808084015261069260a08401826109ca565b60008083601f840112610b3957600080fd5b5081356001600160401b03811115610b5057600080fd5b6020830191508360208260051b8501011115610b6b57600080fd5b9250929050565b60008060008060408587031215610b8857600080fd5b84356001600160401b03811115610b9e57600080fd5b610baa87828801610b27565b90955093505060208501356001600160401b03811115610bc957600080fd5b610bd587828801610b27565b95989497509550505050565b600060208284031215610bf357600080fd5b81356001600160401b03811115610c0957600080fd5b8201610140818503121561032757600080fd5b6020815260008235601e19843603018112610c3657600080fd5b83016020810190356001600160401b03811115610c5257600080fd5b803603821315610c6157600080fd5b602080850152806040850152808260608601376000606082860101526060601f19601f8301168501019250505092915050565b60208152815160208201526000602083015160408084015260018060a01b0381511660608401526001600160401b0360208201511660808401526040810151151560a0840152606081015160c0840152608081015160c060e0850152610cfe6101208501826109ca565b905060a0820151610100850152809250505092915050565b600060208284031215610d2857600080fd5b5051919050565b60008451610d418184602089016109a6565b601760f91b9083019081528451610d5f8160018401602089016109a6565b601760f91b600192909101918201528351610d818160028401602088016109a6565b0160020195945050505050565b634e487b7160e01b600052604160045260246000fd5b60405161014081016001600160401b0381118282101715610dc757610dc7610d8e565b60405290565b604051608081016001600160401b0381118282101715610dc757610dc7610d8e565b80516001600160401b038116811461076957600080fd5b6001600160a01b0381168114610e1b57600080fd5b50565b805161076981610e06565b8051801515811461076957600080fd5b6000806001600160401b03841115610e5357610e53610d8e565b50604051601f19601f85018116603f011681018181106001600160401b0382111715610e8157610e81610d8e565b604052838152905080828401851015610e9957600080fd5b61080d8460208301856109a6565b600082601f830112610eb857600080fd5b61032783835160208501610e39565b600060208284031215610ed957600080fd5b81516001600160401b03811115610eef57600080fd5b82016101408185031215610f0257600080fd5b610f0a610da4565b8151815260208083015190820152610f2460408301610def565b6040820152610f3560608301610def565b6060820152610f4660808301610def565b608082015260a08281015190820152610f6160c08301610e1e565b60c0820152610f7260e08301610e1e565b60e0820152610f846101008301610e29565b6101008201526101208201516001600160401b03811115610fa457600080fd5b610fb086828501610ea7565b61012083015250949350505050565b600060208284031215610fd157600080fd5b81516001600160401b03811115610fe757600080fd5b820160808185031215610ff957600080fd5b611001610dcd565b81518152602082015161101381610e06565b602082015261102460408301610e29565b604082015260608201516001600160401b0381111561104257600080fd5b80830192505084601f83011261105757600080fd5b61106685835160208501610e39565b6060820152949350505050565b634e487b7160e01b600052603260045260246000fd5b6000823561013e198336030181126110a057600080fd5b9190910192915050565b6000602082840312156110bc57600080fd5b813561032781610e0656fea2646970667358221220aa1605632ebe812dbdc4afa1e66ec45a1579bf8b147d07a5e53e1826387228ae64736f6c634300081a0033",
        "linkReferences": {}
    },
    "methodIdentifiers": {
        "ATTESTATION_SCHEMA()": "5bf2f20d",
        "attest((bytes32,bytes32,uint64,uint64,uint64,bytes32,address,address,bool,bytes))": "e60c3505",
        "getSchema()": "6b122fe0",
        "getStatement(bytes32)": "5cc02d2f",
        "isPayable()": "ce46e046",
        "makeStatement((string),bytes32)": "455577cc",
        "multiAttest((bytes32,bytes32,uint64,uint64,uint64,bytes32,address,address,bool,bytes)[],uint256[])": "91db0b7e",
        "multiRevoke((bytes32,bytes32,uint64,uint64,uint64,bytes32,address,address,bool,bytes)[],uint256[])": "88e5b2d9",
        "revoke((bytes32,bytes32,uint64,uint64,uint64,bytes32,address,address,bool,bytes))": "e49617e1",
        "version()": "54fd4d50"
    },
    "id": 14
}