{
    "abi": [
        {
            "type": "constructor",
            "inputs": [
                {
                    "name": "_eas",
                    "type": "address",
                    "internalType": "contract IEAS"
                },
                {
                    "name": "_schemaRegistry",
                    "type": "address",
                    "internalType": "contract ISchemaRegistry"
                }
            ],
            "stateMutability": "nonpayable"
        },
        {
            "type": "receive",
            "stateMutability": "payable"
        },
        {
            "type": "function",
            "name": "ATTESTATION_SCHEMA",
            "inputs": [],
            "outputs": [
                {
                    "name": "",
                    "type": "bytes32",
                    "internalType": "bytes32"
                }
            ],
            "stateMutability": "view"
        },
        {
            "type": "function",
            "name": "attest",
            "inputs": [
                {
                    "name": "attestation",
                    "type": "tuple",
                    "internalType": "struct Attestation",
                    "components": [
                        {
                            "name": "uid",
                            "type": "bytes32",
                            "internalType": "bytes32"
                        },
                        {
                            "name": "schema",
                            "type": "bytes32",
                            "internalType": "bytes32"
                        },
                        {
                            "name": "time",
                            "type": "uint64",
                            "internalType": "uint64"
                        },
                        {
                            "name": "expirationTime",
                            "type": "uint64",
                            "internalType": "uint64"
                        },
                        {
                            "name": "revocationTime",
                            "type": "uint64",
                            "internalType": "uint64"
                        },
                        {
                            "name": "refUID",
                            "type": "bytes32",
                            "internalType": "bytes32"
                        },
                        {
                            "name": "recipient",
                            "type": "address",
                            "internalType": "address"
                        },
                        {
                            "name": "attester",
                            "type": "address",
                            "internalType": "address"
                        },
                        {
                            "name": "revocable",
                            "type": "bool",
                            "internalType": "bool"
                        },
                        {
                            "name": "data",
                            "type": "bytes",
                            "internalType": "bytes"
                        }
                    ]
                }
            ],
            "outputs": [
                {
                    "name": "",
                    "type": "bool",
                    "internalType": "bool"
                }
            ],
            "stateMutability": "payable"
        },
        {
            "type": "function",
            "name": "checkStatement",
            "inputs": [
                {
                    "name": "statement",
                    "type": "tuple",
                    "internalType": "struct Attestation",
                    "components": [
                        {
                            "name": "uid",
                            "type": "bytes32",
                            "internalType": "bytes32"
                        },
                        {
                            "name": "schema",
                            "type": "bytes32",
                            "internalType": "bytes32"
                        },
                        {
                            "name": "time",
                            "type": "uint64",
                            "internalType": "uint64"
                        },
                        {
                            "name": "expirationTime",
                            "type": "uint64",
                            "internalType": "uint64"
                        },
                        {
                            "name": "revocationTime",
                            "type": "uint64",
                            "internalType": "uint64"
                        },
                        {
                            "name": "refUID",
                            "type": "bytes32",
                            "internalType": "bytes32"
                        },
                        {
                            "name": "recipient",
                            "type": "address",
                            "internalType": "address"
                        },
                        {
                            "name": "attester",
                            "type": "address",
                            "internalType": "address"
                        },
                        {
                            "name": "revocable",
                            "type": "bool",
                            "internalType": "bool"
                        },
                        {
                            "name": "data",
                            "type": "bytes",
                            "internalType": "bytes"
                        }
                    ]
                },
                {
                    "name": "demand",
                    "type": "bytes",
                    "internalType": "bytes"
                },
                {
                    "name": "",
                    "type": "bytes32",
                    "internalType": "bytes32"
                }
            ],
            "outputs": [
                {
                    "name": "",
                    "type": "bool",
                    "internalType": "bool"
                }
            ],
            "stateMutability": "view"
        },
        {
            "type": "function",
            "name": "getSchema",
            "inputs": [],
            "outputs": [
                {
                    "name": "",
                    "type": "tuple",
                    "internalType": "struct SchemaRecord",
                    "components": [
                        {
                            "name": "uid",
                            "type": "bytes32",
                            "internalType": "bytes32"
                        },
                        {
                            "name": "resolver",
                            "type": "address",
                            "internalType": "contract ISchemaResolver"
                        },
                        {
                            "name": "revocable",
                            "type": "bool",
                            "internalType": "bool"
                        },
                        {
                            "name": "schema",
                            "type": "string",
                            "internalType": "string"
                        }
                    ]
                }
            ],
            "stateMutability": "view"
        },
        {
            "type": "function",
            "name": "getStatement",
            "inputs": [
                {
                    "name": "uid",
                    "type": "bytes32",
                    "internalType": "bytes32"
                }
            ],
            "outputs": [
                {
                    "name": "",
                    "type": "tuple",
                    "internalType": "struct Attestation",
                    "components": [
                        {
                            "name": "uid",
                            "type": "bytes32",
                            "internalType": "bytes32"
                        },
                        {
                            "name": "schema",
                            "type": "bytes32",
                            "internalType": "bytes32"
                        },
                        {
                            "name": "time",
                            "type": "uint64",
                            "internalType": "uint64"
                        },
                        {
                            "name": "expirationTime",
                            "type": "uint64",
                            "internalType": "uint64"
                        },
                        {
                            "name": "revocationTime",
                            "type": "uint64",
                            "internalType": "uint64"
                        },
                        {
                            "name": "refUID",
                            "type": "bytes32",
                            "internalType": "bytes32"
                        },
                        {
                            "name": "recipient",
                            "type": "address",
                            "internalType": "address"
                        },
                        {
                            "name": "attester",
                            "type": "address",
                            "internalType": "address"
                        },
                        {
                            "name": "revocable",
                            "type": "bool",
                            "internalType": "bool"
                        },
                        {
                            "name": "data",
                            "type": "bytes",
                            "internalType": "bytes"
                        }
                    ]
                }
            ],
            "stateMutability": "view"
        },
        {
            "type": "function",
            "name": "isPayable",
            "inputs": [],
            "outputs": [
                {
                    "name": "",
                    "type": "bool",
                    "internalType": "bool"
                }
            ],
            "stateMutability": "pure"
        },
        {
            "type": "function",
            "name": "makeStatement",
            "inputs": [
                {
                    "name": "data",
                    "type": "tuple",
                    "internalType": "struct RedisProvisionObligation.StatementData",
                    "components": [
                        {
                            "name": "user",
                            "type": "address",
                            "internalType": "address"
                        },
                        {
                            "name": "capacity",
                            "type": "uint256",
                            "internalType": "uint256"
                        },
                        {
                            "name": "egress",
                            "type": "uint256",
                            "internalType": "uint256"
                        },
                        {
                            "name": "cpus",
                            "type": "uint256",
                            "internalType": "uint256"
                        },
                        {
                            "name": "serverName",
                            "type": "string",
                            "internalType": "string"
                        },
                        {
                            "name": "url",
                            "type": "string",
                            "internalType": "string"
                        }
                    ]
                },
                {
                    "name": "expirationTime",
                    "type": "uint64",
                    "internalType": "uint64"
                }
            ],
            "outputs": [
                {
                    "name": "",
                    "type": "bytes32",
                    "internalType": "bytes32"
                }
            ],
            "stateMutability": "nonpayable"
        },
        {
            "type": "function",
            "name": "multiAttest",
            "inputs": [
                {
                    "name": "attestations",
                    "type": "tuple[]",
                    "internalType": "struct Attestation[]",
                    "components": [
                        {
                            "name": "uid",
                            "type": "bytes32",
                            "internalType": "bytes32"
                        },
                        {
                            "name": "schema",
                            "type": "bytes32",
                            "internalType": "bytes32"
                        },
                        {
                            "name": "time",
                            "type": "uint64",
                            "internalType": "uint64"
                        },
                        {
                            "name": "expirationTime",
                            "type": "uint64",
                            "internalType": "uint64"
                        },
                        {
                            "name": "revocationTime",
                            "type": "uint64",
                            "internalType": "uint64"
                        },
                        {
                            "name": "refUID",
                            "type": "bytes32",
                            "internalType": "bytes32"
                        },
                        {
                            "name": "recipient",
                            "type": "address",
                            "internalType": "address"
                        },
                        {
                            "name": "attester",
                            "type": "address",
                            "internalType": "address"
                        },
                        {
                            "name": "revocable",
                            "type": "bool",
                            "internalType": "bool"
                        },
                        {
                            "name": "data",
                            "type": "bytes",
                            "internalType": "bytes"
                        }
                    ]
                },
                {
                    "name": "values",
                    "type": "uint256[]",
                    "internalType": "uint256[]"
                }
            ],
            "outputs": [
                {
                    "name": "",
                    "type": "bool",
                    "internalType": "bool"
                }
            ],
            "stateMutability": "payable"
        },
        {
            "type": "function",
            "name": "multiRevoke",
            "inputs": [
                {
                    "name": "attestations",
                    "type": "tuple[]",
                    "internalType": "struct Attestation[]",
                    "components": [
                        {
                            "name": "uid",
                            "type": "bytes32",
                            "internalType": "bytes32"
                        },
                        {
                            "name": "schema",
                            "type": "bytes32",
                            "internalType": "bytes32"
                        },
                        {
                            "name": "time",
                            "type": "uint64",
                            "internalType": "uint64"
                        },
                        {
                            "name": "expirationTime",
                            "type": "uint64",
                            "internalType": "uint64"
                        },
                        {
                            "name": "revocationTime",
                            "type": "uint64",
                            "internalType": "uint64"
                        },
                        {
                            "name": "refUID",
                            "type": "bytes32",
                            "internalType": "bytes32"
                        },
                        {
                            "name": "recipient",
                            "type": "address",
                            "internalType": "address"
                        },
                        {
                            "name": "attester",
                            "type": "address",
                            "internalType": "address"
                        },
                        {
                            "name": "revocable",
                            "type": "bool",
                            "internalType": "bool"
                        },
                        {
                            "name": "data",
                            "type": "bytes",
                            "internalType": "bytes"
                        }
                    ]
                },
                {
                    "name": "values",
                    "type": "uint256[]",
                    "internalType": "uint256[]"
                }
            ],
            "outputs": [
                {
                    "name": "",
                    "type": "bool",
                    "internalType": "bool"
                }
            ],
            "stateMutability": "payable"
        },
        {
            "type": "function",
            "name": "reviseStatement",
            "inputs": [
                {
                    "name": "statementUID",
                    "type": "bytes32",
                    "internalType": "bytes32"
                },
                {
                    "name": "newData",
                    "type": "tuple",
                    "internalType": "struct RedisProvisionObligation.StatementData",
                    "components": [
                        {
                            "name": "user",
                            "type": "address",
                            "internalType": "address"
                        },
                        {
                            "name": "capacity",
                            "type": "uint256",
                            "internalType": "uint256"
                        },
                        {
                            "name": "egress",
                            "type": "uint256",
                            "internalType": "uint256"
                        },
                        {
                            "name": "cpus",
                            "type": "uint256",
                            "internalType": "uint256"
                        },
                        {
                            "name": "serverName",
                            "type": "string",
                            "internalType": "string"
                        },
                        {
                            "name": "url",
                            "type": "string",
                            "internalType": "string"
                        }
                    ]
                },
                {
                    "name": "newExpiration",
                    "type": "uint64",
                    "internalType": "uint64"
                }
            ],
            "outputs": [
                {
                    "name": "",
                    "type": "bytes32",
                    "internalType": "bytes32"
                }
            ],
            "stateMutability": "nonpayable"
        },
        {
            "type": "function",
            "name": "revoke",
            "inputs": [
                {
                    "name": "attestation",
                    "type": "tuple",
                    "internalType": "struct Attestation",
                    "components": [
                        {
                            "name": "uid",
                            "type": "bytes32",
                            "internalType": "bytes32"
                        },
                        {
                            "name": "schema",
                            "type": "bytes32",
                            "internalType": "bytes32"
                        },
                        {
                            "name": "time",
                            "type": "uint64",
                            "internalType": "uint64"
                        },
                        {
                            "name": "expirationTime",
                            "type": "uint64",
                            "internalType": "uint64"
                        },
                        {
                            "name": "revocationTime",
                            "type": "uint64",
                            "internalType": "uint64"
                        },
                        {
                            "name": "refUID",
                            "type": "bytes32",
                            "internalType": "bytes32"
                        },
                        {
                            "name": "recipient",
                            "type": "address",
                            "internalType": "address"
                        },
                        {
                            "name": "attester",
                            "type": "address",
                            "internalType": "address"
                        },
                        {
                            "name": "revocable",
                            "type": "bool",
                            "internalType": "bool"
                        },
                        {
                            "name": "data",
                            "type": "bytes",
                            "internalType": "bytes"
                        }
                    ]
                }
            ],
            "outputs": [
                {
                    "name": "",
                    "type": "bool",
                    "internalType": "bool"
                }
            ],
            "stateMutability": "payable"
        },
        {
            "type": "function",
            "name": "version",
            "inputs": [],
            "outputs": [
                {
                    "name": "",
                    "type": "string",
                    "internalType": "string"
                }
            ],
            "stateMutability": "view"
        },
        {
            "type": "error",
            "name": "AccessDenied",
            "inputs": []
        },
        {
            "type": "error",
            "name": "AttestationRevoked",
            "inputs": []
        },
        {
            "type": "error",
            "name": "DeadlineExpired",
            "inputs": []
        },
        {
            "type": "error",
            "name": "InsufficientValue",
            "inputs": []
        },
        {
            "type": "error",
            "name": "InvalidEAS",
            "inputs": []
        },
        {
            "type": "error",
            "name": "InvalidLength",
            "inputs": []
        },
        {
            "type": "error",
            "name": "InvalidSchema",
            "inputs": []
        },
        {
            "type": "error",
            "name": "NotFromStatement",
            "inputs": []
        },
        {
            "type": "error",
            "name": "NotPayable",
            "inputs": []
        },
        {
            "type": "error",
            "name": "UnauthorizedCall",
            "inputs": []
        }
    ],
    "bytecode": {
        "object": "0x61016060405234801561001157600080fd5b50604051611d66380380611d6683398101604081905261003091610131565b81816040518060a0016040528060698152602001611cfd6069913960016080819052600360a052600060c052836001600160a01b038116610084576040516341bc07ff60e11b815260040160405180910390fd5b6001600160a01b0390811660e052848116610120528316610100819052604051630c1af44f60e31b81526360d7a278906100c69085903090869060040161016b565b6020604051808303816000875af11580156100e5573d6000803e3d6000fd5b505050506040513d601f19601f8201168201806040525081019061010991906101d1565b61014052506101ea945050505050565b6001600160a01b038116811461012e57600080fd5b50565b6000806040838503121561014457600080fd5b825161014f81610119565b602084015190925061016081610119565b809150509250929050565b606081526000845180606084015260005b81811015610199576020818801810151608086840101520161017c565b50600060808285018101919091526001600160a01b03959095166020840152921515604083015250601f909101601f19160101919050565b6000602082840312156101e357600080fd5b5051919050565b60805160a05160c05160e051610100516101205161014051611a7361028a600039600081816101370152818161025e015281816105050152818161057b0152818161065b015281816109a10152610aa301526000818161049201528181610621015281816108f701528181610a030152610a69015260006105a901526000610c89015260006103d9015260006103b0015260006103870152611a736000f3fe6080604052600436106100ab5760003560e01c806388e5b2d91161006457806388e5b2d9146101d657806391db0b7e146101e9578063ce46e046146101fc578063d1dae7ac14610210578063e49617e114610230578063e60c35051461024357600080fd5b80631272ff8b146100ce57806354fd4d50146101035780635bf2f20d146101255780635cc02d2f146101675780636b122fe014610194578063813e551d146101b657600080fd5b366100c957604051631574f9f360e01b815260040160405180910390fd5b600080fd5b3480156100da57600080fd5b506100ee6100e9366004611001565b610256565b60405190151581526020015b60405180910390f35b34801561010f57600080fd5b50610118610380565b6040516100fa919061117e565b34801561013157600080fd5b506101597f000000000000000000000000000000000000000000000000000000000000000081565b6040519081526020016100fa565b34801561017357600080fd5b50610187610182366004611191565b610423565b6040516100fa91906111aa565b3480156101a057600080fd5b506101a961054d565b6040516100fa919061126c565b3480156101c257600080fd5b506101596101d13660046112c7565b61061d565b6100ee6101e4366004611363565b610746565b6100ee6101f7366004611363565b610815565b34801561020857600080fd5b5060006100ee565b34801561021c57600080fd5b5061015961022b3660046113d2565b6108d4565b6100ee61023e36600461142c565b610b94565b6100ee61025136600461142c565b610ba9565b6000610282847f0000000000000000000000000000000000000000000000000000000000000000610bbd565b61028e57506000610379565b6000838060200190518101906102a491906114c4565b905060008561012001518060200190518101906102c1919061157d565b60a087015183519192501480156102f2575085606001516001600160401b03168260a001516001600160401b031611155b8015610317575080600001516001600160a01b031682602001516001600160a01b0316145b801561032b57508060200151826040015111155b801561033f57508060400151826060015111155b801561035357508060600151826080015111155b801561037457508060800151805190602001208260c0015180519060200120145b925050505b9392505050565b60606103ab7f0000000000000000000000000000000000000000000000000000000000000000610bec565b6103d47f0000000000000000000000000000000000000000000000000000000000000000610bec565b6103fd7f0000000000000000000000000000000000000000000000000000000000000000610bec565b60405160200161040f93929190611646565b604051602081830303815290604052905090565b604080516101408101825260008082526020820181905281830181905260608083018290526080830182905260a0830182905260c0830182905260e08301829052610100830182905261012083015291516328c44a9960e21b8152600481018490529091906001600160a01b037f0000000000000000000000000000000000000000000000000000000000000000169063a3112a6490602401600060405180830381865afa1580156104d9573d6000803e3d6000fd5b505050506040513d6000823e601f3d908101601f1916820160405261050191908101906116b0565b90507f00000000000000000000000000000000000000000000000000000000000000008160200151146105475760405163295d5f3960e01b815260040160405180910390fd5b92915050565b604080516080810182526000808252602082018190528183015260608082015290516351753e3760e11b81527f000000000000000000000000000000000000000000000000000000000000000060048201526001600160a01b037f0000000000000000000000000000000000000000000000000000000000000000169063a2ea7c6e90602401600060405180830381865afa1580156105f0573d6000803e3d6000fd5b505050506040513d6000823e601f3d908101601f1916820160405261061891908101906117a8565b905090565b60007f00000000000000000000000000000000000000000000000000000000000000006001600160a01b031663f17325e760405180604001604052807f000000000000000000000000000000000000000000000000000000000000000081526020016040518060c00160405280336001600160a01b03168152602001876001600160401b031681526020016001151581526020016000801b8152602001886040516020016106cb91906118b5565b604051602081830303815290604052815260200160008152508152506040518263ffffffff1660e01b8152600401610703919061194e565b6020604051808303816000875af1158015610722573d6000803e3d6000fd5b505050506040513d601f19601f8201168201806040525081019061037991906119d0565b6000610750610c7e565b838281146107715760405163251f56a160e21b815260040160405180910390fd5b3460005b82811015610805576000868683818110610791576107916119e9565b905060200201359050828111156107bb5760405163044044a560e21b815260040160405180910390fd5b6107e88989848181106107d0576107d06119e9565b90506020028101906107e291906119ff565b50600190565b6107f957600094505050505061080d565b90910390600101610775565b506001925050505b949350505050565b600061081f610c7e565b838281146108405760405163251f56a160e21b815260040160405180910390fd5b3460005b82811015610805576000868683818110610860576108606119e9565b9050602002013590508281111561088a5760405163044044a560e21b815260040160405180910390fd5b6108b789898481811061089f5761089f6119e9565b90506020028101906108b191906119ff565b82610cc9565b6108c857600094505050505061080d565b90910390600101610844565b6040516328c44a9960e21b81526004810184905260009081906001600160a01b037f0000000000000000000000000000000000000000000000000000000000000000169063a3112a6490602401600060405180830381865afa15801561093e573d6000803e3d6000fd5b505050506040513d6000823e601f3d908101601f1916820160405261096691908101906116b0565b60c08101519091506001600160a01b0316331461099657604051637bf6a16f60e01b815260040160405180910390fd5b6040805180820182527f000000000000000000000000000000000000000000000000000000000000000081528151808301835287815260006020808301919091528083019182529251634692626760e01b81529151600483015251805160248301529091015160448201527f00000000000000000000000000000000000000000000000000000000000000006001600160a01b031690634692626790606401600060405180830381600087803b158015610a4f57600080fd5b505af1158015610a63573d6000803e3d6000fd5b505050507f00000000000000000000000000000000000000000000000000000000000000006001600160a01b031663f17325e760405180604001604052807f000000000000000000000000000000000000000000000000000000000000000081526020016040518060c00160405280336001600160a01b03168152602001886001600160401b031681526020016001151581526020018a815260200189604051602001610b1091906118b5565b604051602081830303815290604052815260200160008152508152506040518263ffffffff1660e01b8152600401610b48919061194e565b6020604051808303816000875af1158015610b67573d6000803e3d6000fd5b505050506040513d601f19601f82011682018060405250810190610b8b91906119d0565b95945050505050565b6000610b9e610c7e565b60015b90505b919050565b6000610bb3610c7e565b610ba18234610cc9565b600081836020015114610be357604051635f9bd90760e11b815260040160405180910390fd5b61037983610cee565b60606000610bf983610d4b565b60010190506000816001600160401b03811115610c1857610c18610e53565b6040519080825280601f01601f191660200182016040528015610c42576020820181803683370190505b5090508181016020015b600019016f181899199a1a9b1b9c1cb0b131b232b360811b600a86061a8153600a8504945084610c4c57509392505050565b336001600160a01b037f00000000000000000000000000000000000000000000000000000000000000001614610cc757604051634ca8886760e01b815260040160405180910390fd5b565b600030610cdd610100850160e08601611a20565b6001600160a01b0316149392505050565b6000610cf982610e23565b15610d1757604051631ab7da6b60e01b815260040160405180910390fd5b60808201516001600160401b031615610d4357604051637b6227e960e11b815260040160405180910390fd5b506001919050565b60008072184f03e93ff9f4daa797ed6e38ed64bf6a1f0160401b8310610d8a5772184f03e93ff9f4daa797ed6e38ed64bf6a1f0160401b830492506040015b6d04ee2d6d415b85acef81000000008310610db6576d04ee2d6d415b85acef8100000000830492506020015b662386f26fc100008310610dd457662386f26fc10000830492506010015b6305f5e1008310610dec576305f5e100830492506008015b6127108310610e0057612710830492506004015b60648310610e12576064830492506002015b600a83106105475760010192915050565b600081606001516001600160401b0316600014158015610ba157505060600151426001600160401b039091161090565b634e487b7160e01b600052604160045260246000fd5b60405161014081016001600160401b0381118282101715610e8c57610e8c610e53565b60405290565b60405160e081016001600160401b0381118282101715610e8c57610e8c610e53565b60405160c081016001600160401b0381118282101715610e8c57610e8c610e53565b604051608081016001600160401b0381118282101715610e8c57610e8c610e53565b604051601f8201601f191681016001600160401b0381118282101715610f2057610f20610e53565b604052919050565b6001600160401b0381168114610f3d57600080fd5b50565b8035610ba481610f28565b6001600160a01b0381168114610f3d57600080fd5b8035610ba481610f4b565b8015158114610f3d57600080fd5b8035610ba481610f6b565b60006001600160401b03821115610f9d57610f9d610e53565b50601f01601f191660200190565b600082601f830112610fbc57600080fd5b8135610fcf610fca82610f84565b610ef8565b818152846020838601011115610fe457600080fd5b816020850160208301376000918101602001919091529392505050565b60008060006060848603121561101657600080fd5b83356001600160401b0381111561102c57600080fd5b8401610140818703121561103f57600080fd5b611047610e69565b813581526020808301359082015261106160408301610f40565b604082015261107260608301610f40565b606082015261108360808301610f40565b608082015260a0828101359082015261109e60c08301610f60565b60c08201526110af60e08301610f60565b60e08201526110c16101008301610f79565b6101008201526101208201356001600160401b038111156110e157600080fd5b6110ed88828501610fab565b6101208301525093505060208401356001600160401b0381111561111057600080fd5b61111c86828701610fab565b93969395505050506040919091013590565b60005b83811015611149578181015183820152602001611131565b50506000910152565b6000815180845261116a81602086016020860161112e565b601f01601f19169290920160200192915050565b6020815260006103796020830184611152565b6000602082840312156111a357600080fd5b5035919050565b602081528151602082015260208201516040820152600060408301516111db60608401826001600160401b03169052565b5060608301516001600160401b03811660808401525060808301516001600160401b03811660a08401525060a083015160c083015260c083015161122a60e08401826001600160a01b03169052565b5060e08301516001600160a01b03811661010084015250610100830151801515610120840152506101208301516101408084015261080d610160840182611152565b602081528151602082015260018060a01b0360208301511660408201526040820151151560608201526000606083015160808084015261080d60a0840182611152565b600060c082840312156112c157600080fd5b50919050565b600080604083850312156112da57600080fd5b82356001600160401b038111156112f057600080fd5b6112fc858286016112af565b925050602083013561130d81610f28565b809150509250929050565b60008083601f84011261132a57600080fd5b5081356001600160401b0381111561134157600080fd5b6020830191508360208260051b850101111561135c57600080fd5b9250929050565b6000806000806040858703121561137957600080fd5b84356001600160401b0381111561138f57600080fd5b61139b87828801611318565b90955093505060208501356001600160401b038111156113ba57600080fd5b6113c687828801611318565b95989497509550505050565b6000806000606084860312156113e757600080fd5b8335925060208401356001600160401b0381111561140457600080fd5b611410868287016112af565b925050604084013561142181610f28565b809150509250925092565b60006020828403121561143e57600080fd5b81356001600160401b0381111561145457600080fd5b8201610140818503121561037957600080fd5b8051610ba481610f4b565b8051610ba481610f28565b600082601f83011261148e57600080fd5b81516020830160006114a2610fca84610f84565b90508281528583830111156114b657600080fd5b610b8b83602083018461112e565b6000602082840312156114d657600080fd5b81516001600160401b038111156114ec57600080fd5b820160e081850312156114fe57600080fd5b611506610e92565b8151815261151660208301611467565b602082015260408281015190820152606080830151908201526080808301519082015261154560a08301611472565b60a082015260c08201516001600160401b0381111561156357600080fd5b61156f8682850161147d565b60c083015250949350505050565b60006020828403121561158f57600080fd5b81516001600160401b038111156115a557600080fd5b820160c081850312156115b757600080fd5b6115bf610eb4565b6115c882611467565b815260208281015190820152604080830151908201526060808301519082015260808201516001600160401b0381111561160157600080fd5b61160d8682850161147d565b60808301525060a08201516001600160401b0381111561162c57600080fd5b6116388682850161147d565b60a083015250949350505050565b6000845161165881846020890161112e565b601760f91b908301908152845161167681600184016020890161112e565b601760f91b60019290910191820152835161169881600284016020880161112e565b0160020195945050505050565b8051610ba481610f6b565b6000602082840312156116c257600080fd5b81516001600160401b038111156116d857600080fd5b820161014081850312156116eb57600080fd5b6116f3610e69565b815181526020808301519082015261170d60408301611472565b604082015261171e60608301611472565b606082015261172f60808301611472565b608082015260a0828101519082015261174a60c08301611467565b60c082015261175b60e08301611467565b60e082015261176d61010083016116a5565b6101008201526101208201516001600160401b0381111561178d57600080fd5b6117998682850161147d565b61012083015250949350505050565b6000602082840312156117ba57600080fd5b81516001600160401b038111156117d057600080fd5b8201608081850312156117e257600080fd5b6117ea610ed6565b8151815260208201516117fc81610f4b565b6020820152604082015161180f81610f6b565b604082015260608201516001600160401b0381111561182d57600080fd5b6118398682850161147d565b606083015250949350505050565b6000808335601e1984360301811261185e57600080fd5b83016020810192503590506001600160401b0381111561187d57600080fd5b80360382131561135c57600080fd5b81835281816020850137506000828201602090810191909152601f909101601f19169091010190565b60208152600082356118c681610f4b565b6001600160a01b031660208381019190915283013560408084019190915283013560608084019190915283013560808084019190915261190890840184611847565b60c060a085015261191d60e08501828461188c565b91505061192d60a0850185611847565b848303601f190160c086015261194483828461188c565b9695505050505050565b60208152815160208201526000602083015160408084015260018060a01b0381511660608401526001600160401b0360208201511660808401526040810151151560a0840152606081015160c0840152608081015160c060e08501526119b8610120850182611152565b905060a0820151610100850152809250505092915050565b6000602082840312156119e257600080fd5b5051919050565b634e487b7160e01b600052603260045260246000fd5b6000823561013e19833603018112611a1657600080fd5b9190910192915050565b600060208284031215611a3257600080fd5b813561037981610f4b56fea264697066735822122081e11596f686efc1f730ce62bdcc40abdf43ec947e7d2ea60885164f198f917e64736f6c634300081a00336164647265737320757365722c2075696e743235362063617061636974792c2075696e74323536206567726573732c2075696e7432353620637075732c20737472696e67206d656d6f7279207365727665724e616d652c20737472696e67206d656d6f72792075726c",
        "linkReferences": {}
    },
    "methodIdentifiers": {
        "ATTESTATION_SCHEMA()": "5bf2f20d",
        "attest((bytes32,bytes32,uint64,uint64,uint64,bytes32,address,address,bool,bytes))": "e60c3505",
        "checkStatement((bytes32,bytes32,uint64,uint64,uint64,bytes32,address,address,bool,bytes),bytes,bytes32)": "1272ff8b",
        "getSchema()": "6b122fe0",
        "getStatement(bytes32)": "5cc02d2f",
        "isPayable()": "ce46e046",
        "makeStatement((address,uint256,uint256,uint256,string,string),uint64)": "813e551d",
        "multiAttest((bytes32,bytes32,uint64,uint64,uint64,bytes32,address,address,bool,bytes)[],uint256[])": "91db0b7e",
        "multiRevoke((bytes32,bytes32,uint64,uint64,uint64,bytes32,address,address,bool,bytes)[],uint256[])": "88e5b2d9",
        "reviseStatement(bytes32,(address,uint256,uint256,uint256,string,string),uint64)": "d1dae7ac",
        "revoke((bytes32,bytes32,uint64,uint64,uint64,bytes32,address,address,bool,bytes))": "e49617e1",
        "version()": "54fd4d50"
    },
    "id": 16
}