{"abi":[{"type":"constructor","inputs":[{"name":"_eas","type":"address","internalType":"contract IEAS"},{"name":"_schemaRegistry","type":"address","internalType":"contract ISchemaRegistry"}],"stateMutability":"nonpayable"},{"type":"receive","stateMutability":"payable"},{"type":"function","name":"ATTESTATION_SCHEMA","inputs":[],"outputs":[{"name":"","type":"bytes32","internalType":"bytes32"}],"stateMutability":"view"},{"type":"function","name":"attest","inputs":[{"name":"attestation","type":"tuple","internalType":"struct Attestation","components":[{"name":"uid","type":"bytes32","internalType":"bytes32"},{"name":"schema","type":"bytes32","internalType":"bytes32"},{"name":"time","type":"uint64","internalType":"uint64"},{"name":"expirationTime","type":"uint64","internalType":"uint64"},{"name":"revocationTime","type":"uint64","internalType":"uint64"},{"name":"refUID","type":"bytes32","internalType":"bytes32"},{"name":"recipient","type":"address","internalType":"address"},{"name":"attester","type":"address","internalType":"address"},{"name":"revocable","type":"bool","internalType":"bool"},{"name":"data","type":"bytes","internalType":"bytes"}]}],"outputs":[{"name":"","type":"bool","internalType":"bool"}],"stateMutability":"payable"},{"type":"function","name":"checkStatement","inputs":[{"name":"statement","type":"tuple","internalType":"struct Attestation","components":[{"name":"uid","type":"bytes32","internalType":"bytes32"},{"name":"schema","type":"bytes32","internalType":"bytes32"},{"name":"time","type":"uint64","internalType":"uint64"},{"name":"expirationTime","type":"uint64","internalType":"uint64"},{"name":"revocationTime","type":"uint64","internalType":"uint64"},{"name":"refUID","type":"bytes32","internalType":"bytes32"},{"name":"recipient","type":"address","internalType":"address"},{"name":"attester","type":"address","internalType":"address"},{"name":"revocable","type":"bool","internalType":"bool"},{"name":"data","type":"bytes","internalType":"bytes"}]},{"name":"demand","type":"bytes","internalType":"bytes"},{"name":"","type":"bytes32","internalType":"bytes32"}],"outputs":[{"name":"","type":"bool","internalType":"bool"}],"stateMutability":"view"},{"type":"function","name":"getSchema","inputs":[],"outputs":[{"name":"","type":"tuple","internalType":"struct SchemaRecord","components":[{"name":"uid","type":"bytes32","internalType":"bytes32"},{"name":"resolver","type":"address","internalType":"contract ISchemaResolver"},{"name":"revocable","type":"bool","internalType":"bool"},{"name":"schema","type":"string","internalType":"string"}]}],"stateMutability":"view"},{"type":"function","name":"getStatement","inputs":[{"name":"uid","type":"bytes32","internalType":"bytes32"}],"outputs":[{"name":"","type":"tuple","internalType":"struct Attestation","components":[{"name":"uid","type":"bytes32","internalType":"bytes32"},{"name":"schema","type":"bytes32","internalType":"bytes32"},{"name":"time","type":"uint64","internalType":"uint64"},{"name":"expirationTime","type":"uint64","internalType":"uint64"},{"name":"revocationTime","type":"uint64","internalType":"uint64"},{"name":"refUID","type":"bytes32","internalType":"bytes32"},{"name":"recipient","type":"address","internalType":"address"},{"name":"attester","type":"address","internalType":"address"},{"name":"revocable","type":"bool","internalType":"bool"},{"name":"data","type":"bytes","internalType":"bytes"}]}],"stateMutability":"view"},{"type":"function","name":"isPayable","inputs":[],"outputs":[{"name":"","type":"bool","internalType":"bool"}],"stateMutability":"pure"},{"type":"function","name":"makeStatement","inputs":[{"name":"data","type":"tuple","internalType":"struct RedisProvisionObligation.StatementData","components":[{"name":"user","type":"address","internalType":"address"},{"name":"capacity","type":"uint256","internalType":"uint256"},{"name":"egress","type":"uint256","internalType":"uint256"},{"name":"cpus","type":"uint256","internalType":"uint256"},{"name":"serverName","type":"string","internalType":"string"},{"name":"url","type":"string","internalType":"string"}]},{"name":"expirationTime","type":"uint64","internalType":"uint64"}],"outputs":[{"name":"","type":"bytes32","internalType":"bytes32"}],"stateMutability":"nonpayable"},{"type":"function","name":"multiAttest","inputs":[{"name":"attestations","type":"tuple[]","internalType":"struct Attestation[]","components":[{"name":"uid","type":"bytes32","internalType":"bytes32"},{"name":"schema","type":"bytes32","internalType":"bytes32"},{"name":"time","type":"uint64","internalType":"uint64"},{"name":"expirationTime","type":"uint64","internalType":"uint64"},{"name":"revocationTime","type":"uint64","internalType":"uint64"},{"name":"refUID","type":"bytes32","internalType":"bytes32"},{"name":"recipient","type":"address","internalType":"address"},{"name":"attester","type":"address","internalType":"address"},{"name":"revocable","type":"bool","internalType":"bool"},{"name":"data","type":"bytes","internalType":"bytes"}]},{"name":"values","type":"uint256[]","internalType":"uint256[]"}],"outputs":[{"name":"","type":"bool","internalType":"bool"}],"stateMutability":"payable"},{"type":"function","name":"multiRevoke","inputs":[{"name":"attestations","type":"tuple[]","internalType":"struct Attestation[]","components":[{"name":"uid","type":"bytes32","internalType":"bytes32"},{"name":"schema","type":"bytes32","internalType":"bytes32"},{"name":"time","type":"uint64","internalType":"uint64"},{"name":"expirationTime","type":"uint64","internalType":"uint64"},{"name":"revocationTime","type":"uint64","internalType":"uint64"},{"name":"refUID","type":"bytes32","internalType":"bytes32"},{"name":"recipient","type":"address","internalType":"address"},{"name":"attester","type":"address","internalType":"address"},{"name":"revocable","type":"bool","internalType":"bool"},{"name":"data","type":"bytes","internalType":"bytes"}]},{"name":"values","type":"uint256[]","internalType":"uint256[]"}],"outputs":[{"name":"","type":"bool","internalType":"bool"}],"stateMutability":"payable"},{"type":"function","name":"reviseStatement","inputs":[{"name":"statementUID","type":"bytes32","internalType":"bytes32"},{"name":"changeData","type":"tuple","internalType":"struct RedisProvisionObligation.ChangeData","components":[{"name":"addedCapacity","type":"uint256","internalType":"uint256"},{"name":"addedEgress","type":"uint256","internalType":"uint256"},{"name":"addedCpus","type":"uint256","internalType":"uint256"},{"name":"addedDuration","type":"uint64","internalType":"uint64"},{"name":"newServerName","type":"string","internalType":"string"},{"name":"newUrl","type":"string","internalType":"string"}]}],"outputs":[{"name":"","type":"bytes32","internalType":"bytes32"}],"stateMutability":"nonpayable"},{"type":"function","name":"revoke","inputs":[{"name":"attestation","type":"tuple","internalType":"struct Attestation","components":[{"name":"uid","type":"bytes32","internalType":"bytes32"},{"name":"schema","type":"bytes32","internalType":"bytes32"},{"name":"time","type":"uint64","internalType":"uint64"},{"name":"expirationTime","type":"uint64","internalType":"uint64"},{"name":"revocationTime","type":"uint64","internalType":"uint64"},{"name":"refUID","type":"bytes32","internalType":"bytes32"},{"name":"recipient","type":"address","internalType":"address"},{"name":"attester","type":"address","internalType":"address"},{"name":"revocable","type":"bool","internalType":"bool"},{"name":"data","type":"bytes","internalType":"bytes"}]}],"outputs":[{"name":"","type":"bool","internalType":"bool"}],"stateMutability":"payable"},{"type":"function","name":"version","inputs":[],"outputs":[{"name":"","type":"string","internalType":"string"}],"stateMutability":"view"},{"type":"error","name":"AccessDenied","inputs":[]},{"type":"error","name":"AttestationRevoked","inputs":[]},{"type":"error","name":"DeadlineExpired","inputs":[]},{"type":"error","name":"InsufficientValue","inputs":[]},{"type":"error","name":"InvalidEAS","inputs":[]},{"type":"error","name":"InvalidLength","inputs":[]},{"type":"error","name":"InvalidSchema","inputs":[]},{"type":"error","name":"NotFromStatement","inputs":[]},{"type":"error","name":"NotPayable","inputs":[]},{"type":"error","name":"UnauthorizedCall","inputs":[]}],"bytecode":{"object":"0x610160806040523461023057604081611a4280380380916100208285610288565b8339810103126102305780516001600160a01b0381169182820361023057602001516001600160a01b03811691828203610230576040519360a085016001600160401b0381118682101761027257604052606985527f6164647265737320757365722c2075696e743235362063617061636974792c2060208601527f75696e74323536206567726573732c2075696e7432353620637075732c20737460408601527f72696e67206d656d6f7279207365727665724e616d652c20737472696e67206d606086015268195b5bdc9e481d5c9b60ba1b60808601526001608052600360a052600060c05215610261578060e05261012052610100526040518092630c1af44f60e31b82526060600483015280519081606484015260005b828110610249575050918160006084828683836020998401015230602483015260016044830152601f801991011681010301925af190811561023d57600091610206575b506101405260405161179690816102ac823960805181610753015260a05181610781015260c051816107ac015260e0518161170601526101005181610424015261012051818181610320015281816105bd015261089a0152610140518181816102dc015281816103f2015281816105f701528181610718015281816109b60152610d240152f35b90506020813d602011610235575b8161022160209383610288565b8101031261023057513861017f565b600080fd5b3d9150610214565b6040513d6000823e3d90fd5b6020828201810151608488840101528694500161013b565b6341bc07ff60e11b60005260046000fd5b634e487b7160e01b600052604160045260246000fd5b601f909101601f19168101906001600160401b038211908210176102725760405256fe608080604052600436101561002c575b50361561001b57600080fd5b631574f9f360e01b60005260046000fd5b6000803560e01c9182631272ff8b14610c0d57508163248b85801461084c57816354fd4d501461073b5781635bf2f20d146107015781635cc02d2f146105425781636b122fe0146103b2578163813e551d146101bc57816388e5b2d91461013e57816391db0b7e1461011f578163ce46e0461461010157508063e49617e1146100e45763e60c3505146100bf573861000f565b60206100da6100cd36611160565b6100d5611704565b611747565b6040519015158152f35b6100ed36611160565b506100f6611704565b602060405160018152f35b3461011c578060031936011261011c57602090604051908152f35b80fd5b60206100da61012d36611110565b92610139929192611704565b611513565b61014736611110565b9092610154949294611704565b8185036101ad578291345b86841061017157602060405160018152f35b61017c8483886114ca565b359080821161019e5790600191610194868a876114f0565b500393019261015f565b63044044a560e21b8652600486fd5b63251f56a160e21b8352600483fd5b3461011c57604036600319011261011c576004356001600160401b0381116103ae578060040160c060031983360301126103aa57602435916001600160401b0383168093036103a657916102816102a160209361029361031b9796604051948593888086015260018060a01b0361023282611014565b1660408601526024830135606086015260448301356080860152606483013560a086015260a46102796102686084860184611478565b60c0808a01526101008901916114a9565b930190611478565b848303603f190160e0860152906114a9565b03601f198101835282610fdf565b604051916102ae83610fa9565b338352838301526001604083015283606083015260808201528260a0820152604051906102da82610f8e565b7f00000000000000000000000000000000000000000000000000000000000000008252828201526040518094819263f17325e760e01b835260048301611402565b0381847f00000000000000000000000000000000000000000000000000000000000000006001600160a01b03165af190811561039a5790610362575b602090604051908152f35b506020813d602011610392575b8161037c60209383610fdf565b8101031261038d5760209051610357565b600080fd5b3d915061036f565b604051903d90823e3d90fd5b8380fd5b8280fd5b5080fd5b3461011c578060031936011261011c576060806040516103d181610fc4565b8381528360208201528360408201520152604051906351753e3760e11b82527f00000000000000000000000000000000000000000000000000000000000000006004830152808260248160018060a01b037f0000000000000000000000000000000000000000000000000000000000000000165afa90811561039a57809161049e575b60608261049a604051928392602084528051602085015260018060a01b0360208201511660408501526040810151151582850152015160808084015260a08301906110bb565b0390f35b90503d8082843e6104af8184610fdf565b8201916020818403126103ae578051906001600160401b0382116103aa57019060808284031261011c57604051916104e683610fc4565b8051835260208101516001600160a01b03811681036103aa576020840152610510604082016112b2565b60408401526060810151916001600160401b03831161011c57509261053891606094016111f3565b8282015282610454565b3461011c57602036600319011261011c57606061012060405161056481610f5c565b83815283602082015283604082015283838201528360808201528360a08201528360c08201528360e0820152836101008201520152604051906328c44a9960e21b82526004356004830152808260248160018060a01b037f0000000000000000000000000000000000000000000000000000000000000000165afa9182156106f45781926106d0575b50602082019081517f0000000000000000000000000000000000000000000000000000000000000000036106c1575061049a61012060405193849360208552815160208601525160408501526001600160401b0360408201511660608501526001600160401b0360608201511660808501526001600160401b0360808201511660a085015260a081015160c085015260018060a01b0360c08201511660e085015260018060a01b0360e0820151166101008501526101008101511515828501520151610140808401526101608301906110bb565b63295d5f3960e01b8152600490fd5b6106ed9192503d8084833e6106e58183610fdf565b8101906112bf565b90826105ed565b50604051903d90823e3d90fd5b3461011c578060031936011261011c5760206040517f00000000000000000000000000000000000000000000000000000000000000008152f35b3461011c578060031936011261011c5761049a6107777f0000000000000000000000000000000000000000000000000000000000000000611595565b61083860016107a57f0000000000000000000000000000000000000000000000000000000000000000611595565b92816107d07f0000000000000000000000000000000000000000000000000000000000000000611595565b602060405196846107ea899651809285808a019101611098565b8501601760f91b838201526108088251809385602185019101611098565b0101601760f91b83820152610827825180936020600285019101611098565b01010301601f198101835282610fdf565b6040519182916020835260208301906110bb565b3461011c57604036600319011261011c576024356004356001600160401b0382116103aa57816004019160c060031982360301126103a6576040516328c44a9960e21b8152600481018390527f00000000000000000000000000000000000000000000000000000000000000006001600160a01b03169390928584602481885afa938415610c02578694610be6575b506108f46101208501516020808251830101910161120d565b60c08501516001600160a01b03163303610bd7576064840135946001600160401b038616809603610bd357606001946001600160401b03865116016001600160401b038111610bbf576001600160401b031685526020810190610959843583516113ad565b8252604081019361096f602487013586516113ad565b855260846060830196610987604482013589516113ad565b885260a4810161099781856113d0565b9050610ba7575b5001906109ab82826113d0565b9050610b87575b50507f0000000000000000000000000000000000000000000000000000000000000000956040516109e281610f8e565b848152896020820152604051906109f882610f8e565b88825260208201908152893b15610b8357604051634692626760e01b81529151600483015251805160248301526020015160448201528981606481838d5af18015610b7857610b40575b5092610acb610b259693610abd8b9a97946001600160401b0360209b985116966040519687948d8087015260018060a01b0384511660408701525160608601525160808501525160a084015260a0610aa9608083015160c0808701526101008601906110bb565b910151838203603f190160e08501526110bb565b03601f198101845283610fdf565b60405192610ad884610fa9565b3384528784015260016040840152606083015260808201528560a082015260405191610b0383610f8e565b82528482015260405195868094819363f17325e760e01b835260048301611402565b03925af190811561039a579061036257602090604051908152f35b610b259693610abd60209996939a97948c610b666001600160401b039e610acb96610fdf565b9c5094979a9396995050939650610a42565b6040513d8c823e3d90fd5b8a80fd5b610b9b91610b94916113d0565b3691611043565b608082015288806109b2565b610b94610bb491856113d0565b60a08501528b61099e565b634e487b7160e01b88526011600452602488fd5b8780fd5b637bf6a16f60e01b8752600487fd5b610bfb9194503d8088833e6106e58183610fdf565b92866108db565b6040513d88823e3d90fd5b346103ae5760603660031901126103ae57600435916001600160401b03831161011c57610140600319843603011261011c57610c4882610f5c565b82600401358252602082019160248401358352610c6760448501611000565b6040820152610c7860648501611000565b9160608201928352610c8c60848601611000565b6080830190815260a083019560a48101358752610cab60c48201611014565b60c0850152610cbc60e48201611014565b60e085015261010481013580151581036103a6576101008501526101248101356001600160401b0381116103a657610120916004610cfd923692010161107a565b93019283526024356001600160401b0381116103aa57610d2190369060040161107a565b947f0000000000000000000000000000000000000000000000000000000000000000905103610f4d576001600160401b038451168015159081610f43575b50610f3457516001600160401b0316610f255783518401936020818603126103ae576020810151906001600160401b0382116103aa57019460e0868603126103ae576040519360e085018581106001600160401b03821117610f115760405260208701518552610dd160408801611194565b60208601908152606088015191604087019283526080890151936060880194855260a08a01519560808901968752610e0b60c08c016111a8565b9960a08a019a8b5260e08c0151916001600160401b03831161011c575060209b8c610e559381610e3e94019201016111f3565b9760c08a01988952518b808251830101910161120d565b97519051149788610ef6575b505086610edd575b5085610ece575b5084610ebe575b5083610eae575b5082610e91575b50506040519015158152f35b608091925051838151910120910151828151910120148280610e85565b5160608301511015925084610e7e565b5160408401511015935085610e77565b51848701511015945086610e70565b5185516001600160a01b03908116911614955087610e69565b5190516001600160401b039182169116101596508880610e61565b634e487b7160e01b84526041600452602484fd5b637b6227e960e11b8152600490fd5b631ab7da6b60e01b8252600482fd5b9050421187610d5f565b635f9bd90760e11b8252600482fd5b61014081019081106001600160401b03821117610f7857604052565b634e487b7160e01b600052604160045260246000fd5b604081019081106001600160401b03821117610f7857604052565b60c081019081106001600160401b03821117610f7857604052565b608081019081106001600160401b03821117610f7857604052565b90601f801991011681019081106001600160401b03821117610f7857604052565b35906001600160401b038216820361038d57565b35906001600160a01b038216820361038d57565b6001600160401b038111610f7857601f01601f191660200190565b92919261104f82611028565b9161105d6040519384610fdf565b82948184528183011161038d578281602093846000960137010152565b9080601f8301121561038d5781602061109593359101611043565b90565b60005b8381106110ab5750506000910152565b818101518382015260200161109b565b906020916110d481518092818552858086019101611098565b601f01601f1916010190565b9181601f8401121561038d578235916001600160401b03831161038d576020808501948460051b01011161038d57565b604060031982011261038d576004356001600160401b03811161038d578161113a916004016110e0565b92909291602435906001600160401b03821161038d5761115c916004016110e0565b9091565b602060031982011261038d57600435906001600160401b03821161038d5761014090829003600319011261038d5760040190565b51906001600160a01b038216820361038d57565b51906001600160401b038216820361038d57565b909291926111c981611028565b916111d76040519384610fdf565b82948284528282011161038d5760206111f1930190611098565b565b9080601f8301121561038d578151611095926020016111bc565b60208183031261038d578051906001600160401b03821161038d570160c08183031261038d576040519161124083610fa9565b61124982611194565b835260208201516020840152604082015160408401526060820151606084015260808201516001600160401b03811161038d57816112889184016111f3565b608084015260a08201516001600160401b03811161038d576112aa92016111f3565b60a082015290565b5190811515820361038d57565b60208183031261038d578051906001600160401b03821161038d5701906101408282031261038d57604051916112f483610f5c565b805183526020810151602084015261130e604082016111a8565b604084015261131f606082016111a8565b6060840152611330608082016111a8565b608084015260a081015160a084015261134b60c08201611194565b60c084015261135c60e08201611194565b60e084015261136e61010082016112b2565b610100840152610120810151906001600160401b03821161038d57019080601f8301121561038d5781516113a4926020016111bc565b61012082015290565b919082018092116113ba57565b634e487b7160e01b600052601160045260246000fd5b903590601e198136030182121561038d57018035906001600160401b03821161038d5760200191813603831361038d57565b9060209081835280518284015201519060408082015260018060a01b0382511660608201526001600160401b0360208301511660808201526040820151151560a0820152606082015160c082015261010060a061146f608085015160c060e08601526101208501906110bb565b93015191015290565b9035601e198236030181121561038d5701602081359101916001600160401b03821161038d57813603831361038d57565b908060209392818452848401376000828201840152601f01601f1916010190565b91908110156114da5760051b0190565b634e487b7160e01b600052603260045260246000fd5b91908110156114da5760051b8101359061013e198136030182121561038d570190565b9290919281830361158457600091345b84841061153557505050505050600190565b6115408483886114ca565b35818111611573576115566100d58688876114f0565b156115675760019103930192611523565b50505050505050600090565b63044044a560e21b60005260046000fd5b63251f56a160e21b60005260046000fd5b8060009172184f03e93ff9f4daa797ed6e38ed64bf6a1f0160401b8210156116e1575b806d04ee2d6d415b85acef8100000000600a9210156116c6575b662386f26fc100008110156116b2575b6305f5e1008110156116a1575b612710811015611692575b6064811015611684575b1015611679575b600a6021600184019361161d85611028565b9461162b6040519687610fdf565b80865261163a601f1991611028565b013660208701378401015b60001901916f181899199a1a9b1b9c1cb0b131b232b360811b8282061a835304801561167457600a9091611645565b505090565b60019091019061160b565b606460029104930192611604565b612710600491049301926115fa565b6305f5e100600891049301926115ef565b662386f26fc10000601091049301926115e2565b6d04ee2d6d415b85acef8100000000602091049301926115d2565b506040915072184f03e93ff9f4daa797ed6e38ed64bf6a1f0160401b81046115b8565b7f00000000000000000000000000000000000000000000000000000000000000006001600160a01b0316330361173657565b634ca8886760e01b60005260046000fd5b60e0013560018060a01b03811680910361038d5730149056fea26469706673582212209f6a492954102010a14de449ecf14948fc58be259f5a944a8f87bb1547dc4c4964736f6c634300081a0033","linkReferences":{}},"methodIdentifiers":{"ATTESTATION_SCHEMA()":"5bf2f20d","attest((bytes32,bytes32,uint64,uint64,uint64,bytes32,address,address,bool,bytes))":"e60c3505","checkStatement((bytes32,bytes32,uint64,uint64,uint64,bytes32,address,address,bool,bytes),bytes,bytes32)":"1272ff8b","getSchema()":"6b122fe0","getStatement(bytes32)":"5cc02d2f","isPayable()":"ce46e046","makeStatement((address,uint256,uint256,uint256,string,string),uint64)":"813e551d","multiAttest((bytes32,bytes32,uint64,uint64,uint64,bytes32,address,address,bool,bytes)[],uint256[])":"91db0b7e","multiRevoke((bytes32,bytes32,uint64,uint64,uint64,bytes32,address,address,bool,bytes)[],uint256[])":"88e5b2d9","reviseStatement(bytes32,(uint256,uint256,uint256,uint64,string,string))":"248b8580","revoke((bytes32,bytes32,uint64,uint64,uint64,bytes32,address,address,bool,bytes))":"e49617e1","version()":"54fd4d50"},"id":54}