{
    "abi": [
        {
            "type": "function",
            "name": "checkStatement",
            "inputs": [
                {
                    "name": "",
                    "type": "tuple",
                    "internalType": "struct Attestation",
                    "components": [
                        {
                            "name": "uid",
                            "type": "bytes32",
                            "internalType": "bytes32"
                        },
                        {
                            "name": "schema",
                            "type": "bytes32",
                            "internalType": "bytes32"
                        },
                        {
                            "name": "time",
                            "type": "uint64",
                            "internalType": "uint64"
                        },
                        {
                            "name": "expirationTime",
                            "type": "uint64",
                            "internalType": "uint64"
                        },
                        {
                            "name": "revocationTime",
                            "type": "uint64",
                            "internalType": "uint64"
                        },
                        {
                            "name": "refUID",
                            "type": "bytes32",
                            "internalType": "bytes32"
                        },
                        {
                            "name": "recipient",
                            "type": "address",
                            "internalType": "address"
                        },
                        {
                            "name": "attester",
                            "type": "address",
                            "internalType": "address"
                        },
                        {
                            "name": "revocable",
                            "type": "bool",
                            "internalType": "bool"
                        },
                        {
                            "name": "data",
                            "type": "bytes",
                            "internalType": "bytes"
                        }
                    ]
                },
                {
                    "name": "",
                    "type": "bytes",
                    "internalType": "bytes"
                },
                {
                    "name": "",
                    "type": "bytes32",
                    "internalType": "bytes32"
                }
            ],
            "outputs": [
                {
                    "name": "",
                    "type": "bool",
                    "internalType": "bool"
                }
            ],
            "stateMutability": "pure"
        }
    ],
    "bytecode": {
        "object": "0x6080604052348015600f57600080fd5b506102d48061001f6000396000f3fe608060405234801561001057600080fd5b506004361061002b5760003560e01c80631272ff8b14610030575b600080fd5b61004761003e36600461016e565b60019392505050565b604051901515815260200160405180910390f35b634e487b7160e01b600052604160045260246000fd5b604051610140810167ffffffffffffffff811182821017156100955761009561005b565b60405290565b803567ffffffffffffffff811681146100b357600080fd5b919050565b80356001600160a01b03811681146100b357600080fd5b803580151581146100b357600080fd5b600082601f8301126100f057600080fd5b813567ffffffffffffffff81111561010a5761010a61005b565b604051601f8201601f19908116603f0116810167ffffffffffffffff811182821017156101395761013961005b565b60405281815283820160200185101561015157600080fd5b816020850160208301376000918101602001919091529392505050565b60008060006060848603121561018357600080fd5b833567ffffffffffffffff81111561019a57600080fd5b840161014081870312156101ad57600080fd5b6101b5610071565b81358152602080830135908201526101cf6040830161009b565b60408201526101e06060830161009b565b60608201526101f16080830161009b565b608082015260a0828101359082015261020c60c083016100b8565b60c082015261021d60e083016100b8565b60e082015261022f61010083016100cf565b61010082015261012082013567ffffffffffffffff81111561025057600080fd5b61025c888285016100df565b61012083015250935050602084013567ffffffffffffffff81111561028057600080fd5b61028c868287016100df565b9396939550505050604091909101359056fea2646970667358221220e7e986e0c82a099ccec43e8b33cb081a7e54fce6722bd18ab0e463e901a54ee264736f6c634300081a0033",
        "linkReferences": {}
    },
    "methodIdentifiers": {
        "checkStatement((bytes32,bytes32,uint64,uint64,uint64,bytes32,address,address,bool,bytes),bytes,bytes32)": "1272ff8b"
    },
    "id": 3
}